:020000040800F2
:10640000382A0020F5650008FD650008FF650008D2
:106410000166000803660008056600080000000029
:1064200000000000000000000000000007660008F7
:1064300009660008000000000B660008858000085F
:106440000F6600080F6600080F6600080F66000858
:106450000F6600080F660008BD8800080F66000878
:106460000F6600080F6600080F6600080F66000838
:106470000F6600080F6600080F6600080F66000828
:106480000F6600080F6600080F6600080F66000818
:106490000F6600080F6600080F6600080F66000808
:1064A0000F6600080F6600080F6600080F660008F8
:1064B000939600080F6600080F6600080F66000834
:1064C0000F6600080F6600080F6600080F660008D8
:1064D0000F660008C98100080F6600080F660008F3
:1064E000E17900080F6600080F6600080F660008D3
:1064F0000F66000800F002F800F05AF80AA090E8D1
:10650000000C82448344AAF10107DA4501D100F06E
:106510004FF8AFF2090EBAE80F0013F0010F18BFE1
:10652000FB1A43F001031847E0A7000000A8000091
:106530000A444FF0000C10F8013B13F0070408BFA9
:1065400010F8014B1D1108BF10F8015B641E05D047
:1065500010F8016B641E01F8016BF9D113F0080FFC
:106560001EBF10F8014BAD1C0C1B09D16D1E58BF8E
:1065700001F801CBFAD505E014F8016B01F8016BC5
:106580006D1EF9D59142D6D3704700000023002438
:1065900000250026103A28BF78C1FBD8520728BF33
:1065A00030C148BF0B6070471FB51FBD10B510BD8F
:1065B00008F0ECFF1146FFF7F7FF02F025FA09F0AB
:1065C0000AF803B4FFF7F2FF03BC09F011F800006A
:1065D00072B6704762B6704730BF72B662B680F36B
:1065E0000888704780F310887047EFF3108072B608
:1065F000704700000948804709480047FEE7FEE76A
:10660000FEE7FEE7FEE7FEE7FEE7FEE7FEE7FEE762
:1066100004480549054A064B704700004B680008CE
:10662000F564000838200020382A00203822002095
:10663000382200200EB50020029001900090CE4834
:10664000006840F48030CC49086000BFCA48006848
:1066500000F4003001900298401C0290019818B993
:106660000298B0F5A04FF1D1C348006800F40030A3
:1066700010B10120019001E0002001900198012853
:106680005AD1BE48006840F00400BC490860084682
:10669000006840F0020008600846006840F0010011
:1066A0000860B5482430006840F08050B249243179
:1066B0000860C814B249086000BFB148406800F0E3
:1066C00010000028F9D1AC4808300068AA49083108
:1066D00008600846006808600846006808600846C8
:1066E000006820F47D0008600846006840F411004E
:1066F0000860A148006840F080709F49086000BFB2
:106700009D48006800F000700028F9D09A480830D1
:10671000006820F0030098490831086008460068C6
:1067200040F00300086000BF93480830006800F0A4
:106730000C000C28F8D187E08F48006820F48030E6
:106740008D4908600846006840F00100086000209C
:10675000029000BF8848006800F002000090029894
:10676000401C0290009818B90298B0F5A04FF1D1E2
:106770008148006800F0020010B10120009001E0A3
:1067800000200090009801285ED17C48006840F00D
:1067900004007A4908600846006840F0020008607A
:1067A0000846006840F00100086073482430006823
:1067B00040F08050704924310860C8147049086066
:1067C00000BF6F48406800F010000028F9D16A4807
:1067D00008300068684908310860084600680860A9
:1067E0000846006808600846006820F47D000860DC
:1067F0000846006820F4803008600846006840F4CD
:10680000080008605C48006840F080705A490860E1
:1068100000BF5948006800F000700028F9D05648C1
:106820000830006820F0030053490831086008462A
:10683000006840F00300086000BF4F48083000685F
:1068400000F00C000C28F8D10EBD10B54A480068C5
:1068500040F480704849086047480830006849495A
:1068600008404549083108604348006846490840E7
:10687000414908600846006820F4802008603E48CE
:106880000830006820F47D003B4908310860002092
:10689000091D0860FFF7CEFE3C4800683C490860CF
:1068A00010BD2DE9F04105460A46002600230024CC
:1068B0009C460027002130480830006800F00C0694
:1068C00036B1042E11D0082E11D00C2E38D110E084
:1068D0002948001D0068C0F34237781C4FF00108BA
:1068E00008FA00F84FEAC83137E02A4935E02A496A
:1068F00033E021480830006800F470131E48083067
:10690000006800F44004254800EB93400378012020
:1069100000EB945418480830006800F4803CBCF147
:10692000000F06D11B485843B0FBF4F10020107053
:1069300005E019485843B0FBF4F1012010700CE059
:106940000D48001D0068C0F34237781C4FF0010865
:1069500008FA00F84FEAC83100BF00BF0648083007
:106960000068C0F30310DFF8388018F80060F140C9
:1069700029600120BDE8F08100380240003C02405F
:10698000007000400CC0FF88FEFFFEEE9003000880
:1069900008ED00E00024F40000127A00000000205E
:1069A00009000020704700004A48006800F001001C
:1069B00028B149484749083108604848086070478D
:1069C00000B54448006800F0020038B1FFF7ECFF62
:1069D000434840490C3108604248086000BD3D48CA
:1069E000006840F002003B490860704739481430A5
:1069F000006800F0020028B1022036491431086016
:106A0000012070470020FCE7014600E0491E31B13B
:106A100030481430006800F001000028F6D109B9B0
:106A2000032070472B481430006800F4F85030B150
:106A30004FF4F850274A143210600120F1E700208B
:106A4000EFE770B504464FF40050FFF7DDFF054651
:106A5000E5B92048006840F400701E490860084607
:106A6000006840F008000860002020604FF40050EB
:106A7000FFF7CAFF05461748006820F008001549CF
:106A800008600846006820F40070086015B9FFF738
:106A9000ADFF70BD0020FCE770B505460C461646FC
:106AA0004FF44050FFF7B0FF70B90AE0306828603B
:106AB000361D2D1D241F4FF44050FFF7A5FF00B1D8
:106AC00001E0002CF2DC00BF0CB9012070BD0020F9
:106AD000FCE70000043C0240EFCDAB890504030253
:106AE000BFAE9D8C16151413F0B504460B46494DE8
:106AF00005EB8420484D2D680126A6403543464EBF
:106B00003560002135E003F0010585B305684F00CD
:106B10000326BE40B5430560868801258D40AE43FF
:106B2000868085684F000326BE40B5438560C568F2
:106B30004F000326BE40B543C56095094E00B540E1
:106B40000668354305608688C2F300158D402E43E4
:106B5000868085684F00C2F38106BE40354385605C
:106B600002F003054E00B540C6683543C5605B10B2
:106B7000491C002BC7DCF0BDF0B503461446254D7B
:106B800005EB8322002022E001F00105EDB1C608EB
:106B900002F1200555F826504607F70E0F26BE4095
:106BA000B543C70802F1200646F82750C60802F18F
:106BB000200555F826504607F60E04FA06F635432A
:106BC000C70802F1200646F827504910401C00294A
:106BD000DADCF0BD02460B460E4800EB8221888AC3
:106BE00018438882888A70470A4B03EB8022938A75
:106BF0008B4393827047074B03EB8022938A4B4071
:106C0000938270470246034800EB8223188A0840AB
:106C100070470000000002401C380240002107E0DD
:106C2000052101E04A1E91B20029FBDC421E90B210
:106C30000028F5DC704710B54D22C0210120FFF778
:106C400053FFC0210120FFF7C5FF10BD10B5802103
:106C50000120FFF7BFFF40210120FFF7BBFF02200B
:106C6000FFF7DCFF80210120FFF7BEFF0220FFF7C6
:106C7000D5FF40210120FFF7B7FF10BD10B58021DF
:106C80000120FFF7B1FF0220FFF7C8FF40210120DC
:106C9000FFF7A0FF0220FFF7C1FF80210120FFF7CF
:106CA00099FF0220FFF7BAFF10BD10B5044640213E
:106CB0000120FFF799FF0220FFF7B0FF24B18021E8
:106CC0000120FFF787FF03E080210120FFF78CFF01
:106CD0000220FFF7A3FF40210120FFF77BFF0220E6
:106CE000FFF79CFF40210120FFF77EFF10BD10B58C
:106CF0000024012280211046FFF7F6FE80210120AA
:106D0000FFF768FF0220FFF789FF40210120FFF70E
:106D100061FF0220FFF782FF10E0601C80B2044692
:106D2000B0F5FA7F0ADD4D2280210120FFF7DCFE5D
:106D300080210120FFF74EFF002010BD802101209F
:106D4000FFF760FF0028E8D140210120FFF74CFF4A
:106D50000220FFF763FF4D2280210120FFF7C4FED0
:106D600080210120FFF736FF0220FFF757FF0120A7
:106D7000E3E770B5044640210120FFF735FF02200C
:106D8000FFF74CFF002520E004F0800020B18021B7
:106D90000120FFF71FFF03E080210120FFF724FF00
:106DA0006006040E0220FFF739FF40210120FFF7A3
:106DB00011FF0220FFF732FF40210120FFF714FFEF
:106DC0000220FFF72BFF681CC5B2082DDCDBFFF7A4
:106DD0008EFF70BD70B5064600240122802110464A
:106DE000FFF782FE80210120FFF7F4FE00251BE063
:106DF00040210120FFF7F8FE0220FFF70FFF40219E
:106E00000120FFF7E7FE0220FFF708FF6006040EEF
:106E100080210120FFF7F6FE08B1601CC4B20220F9
:106E2000FFF7FCFE681CC5B2082DE1DB4021012004
:106E3000FFF7DAFE0220FFF7F1FE4D22802101204C
:106E4000FFF752FE80210120FFF7C4FE0220FFF76A
:106E5000E5FE3046FFF729FF204670BD70B50546B8
:106E60000C4600BFFFF7F2FE2846FFF782FF10B97D
:106E7000601E041EF6D1FFF701FF0CB1012070BDAA
:106E80000020FCE72DE9F04107460E4615461C465A
:106E9000FFF7DCFE3846FFF76CFFF0B13012FFF76A
:106EA00068FFD0B1F0B2FFF764FFB0B1FFF7CEFEDC
:106EB00047F00100FFF75DFF78B106E00020FFF723
:106EC00089FF05F8010B601EC4B2012CF6DC601EC0
:106ED000C4B20120FFF77EFF2870FFF7CFFE14B980
:106EE0000120BDE8F0810020FBE72DE9F0410746D5
:106EF0000D4616461C46FFF7A9FE3846FFF739FF38
:106F000098B12812FFF735FF78B1E8B2FFF731FFEB
:106F100058B107E016F8010BFFF72BFF00B903E0AB
:106F2000601EC4B2002CF5DC00BFFFF7A7FE14B949
:106F30000120BDE8F0810020FBE72DE9F041074684
:106F40000D4616461C46FFF781FE3846FFF711FF37
:106F500090B12812FFF70DFF70B1E8B2FFF709FFFB
:106F600050B106E03046FFF704FF00B903E0601EB1
:106F7000C4B2002CF6DC00BFFFF780FE14B901207C
:106F8000BDE8F0810020FBE77047704770470000C4
:106F900070B505460C464FF480707D490860FFF7D8
:106FA0000FFD03E0A4F5807405F580752846FFF712
:106FB00048FD012802D1B4F5807FF3D8FFF70FFD1B
:106FC000B4F5807F01D8012070BD0020FCE72DE9D9
:106FD000F04106460C46174604F0030010B124F0B9
:106FE0000304241DFFF7ECFC3A4621463046FFF728
:106FF00053FD0546FFF7F3FC2846BDE8F081034644
:1070000004E018681060121D1B1D091F0029F8D12B
:10701000012070472DE9F04FC1B080460D469246E1
:1070200005F0030010B125F003052D1DFFF7C8FC86
:10703000B8F1006F02D35748804503D3002041B018
:10704000BDE8F08FA8F1006B4FEA1B260BF0FF099B
:10705000C9F58074A54200D8ACB249E04FF0006198
:1070600001EB06206A46C914FFF7C9FF002707E0B5
:1070700009EB07001DF8000000B103E0781C87B29F
:10708000A742F5DB00BFA7421CDA4FF0006101EB1D
:107090000620FFF7D6FC4090002707E01AF807000B
:1070A00007EB09010DF80100781C87B2A742F5DB58
:1070B0004FF0006101EB06206A46C914FFF7ECFCB3
:1070C000409005E0524621464046FFF7E5FC4090DF
:1070D000A54200D10DE0761C4FF00009A244A04467
:1070E0002D1BB5F5807F02D94FF4807400E0ACB25F
:1070F000B4E700BFFFF773FC4098A0E71CB5264932
:1071000003C9CDE900012548006840F480502349B7
:1071100008602348806840F00100214988600846E3
:10712000007940F0FF0008711E4800681E4988423F
:107130001AD01C49083908681949896841F00101C9
:10714000174A91601949096D11601849496D11601C
:107150001649496E116011460860096801916A4636
:1071600008211048FFF756FF1CBD1049096D01604A
:107170000E49496D41600D49496E8160704700209C
:1071800070474FF48070704708484C300088704753
:10719000183C02400000060810FC00081C380240A1
:1071A000003002403C040008A542BD5A0000F81F10
:1071B00008B1012100E00021FE4A11707047FE482D
:1071C0007047FE480078704770B505460C464FF48E
:1071D00080510120FFF708FD284600F0B5FC20464D
:1071E00000F0B2FC06464FF480510120FFF7F2FC9C
:1071F000304670BD10B5F248006820F48060F04958
:107200000860442240210020FFF76EFC44224FF426
:1072100080510120FFF768FC00224FF48061104686
:10722000FFF762FC002202210120FFF75DFC4FF412
:1072300080610020FFF7CEFC02210120FFF7CAFC8D
:1072400044224FF400610020FFF74EFC4FF4006130
:107250000020FFF7BFFC00F0A2FC042000F0E6FCD9
:1072600010BD0120D7490870704710B5052187204F
:10727000FFF7AAFF02218E20FFF7A6FF0221882038
:10728000FFF7A2FF00218820FFF79EFF1321852032
:10729000FFF79AFF80218620FFF796FF0021032049
:1072A000FFF792FF00210420FFF78EFFC44800681B
:1072B00040F48060C249086010BD10B5C048006845
:1072C00020F48060BE49086000218E20FFF77CFF1B
:1072D00001218720FFF778FF00218520FFF774FF49
:1072E00000218620FFF770FF00210320FFF76CFFCD
:1072F00000210420FFF768FF022003F0A3F910BD6E
:1073000010B50446B04A2146022003F05DFA10BDD4
:1073100010B500212620FFF757FF0446AB48007840
:10732000A04203DAA9480078201A02E0A7480078B2
:10733000001B08284EDA6410A448007804EB6000B3
:10734000A24908700846C078401CC0B2C870142812
:1073500060DD084600780A2803DB08460078DC2850
:1073600003DD0420FFF7CCFF30E0984800781430AC
:107370009249087008460178A720FFF725FF944836
:107380000068F8B100F073FE91490968884205D29F
:1073900000F06DFE8E490968081A04E000F067FEEF
:1073A0008B490968401A8B49884206D20420FFF7AE
:1073B000A7FF00208649086008E000F058FE8449D5
:1073C000086003E000F053FE814908600020824914
:1073D000086010BD7D484078A04203DA7B484078C1
:1073E000201A02E079484078001B32280DDA7748ED
:1073F0008078401CC0B27549887004280ADD0846B0
:1074000004700020C870887004E070484470002048
:107410006E49887070480068401C6F490860B0F57C
:10742000167F06D9002008600420FFF769FF0020BE
:10743000CFE70120CDE710B5FFF7DCFE4FF4805118
:107440000120FFF7C7FB40210020FFF7C3FB02200C
:1074500003F0F8F840210020FFF7C6FB322003F0CC
:10746000F1F800210320FFF7AFFE00210420FFF711
:10747000ABFE80218720FFF7A7FE022003F0E2F891
:1074800000218720FFF7A0FE00218520FFF79CFE4A
:1074900000218620FFF798FE00210320FFF794FECD
:1074A00000210420FFF790FE79218920FFF78CFE50
:1074B00006218A20FFF788FEEA218B20FFF784FE51
:1074C000EA218C20FFF780FEFC218D20FFF77CFE57
:1074D00000218E20FFF778FE404801789C20FFF7BE
:1074E00073FE3E4841789D20FFF76EFE3B48817851
:1074F0009E20FFF769FE3948C1789F20FFF764FEA0
:1075000036480179A020FFF75FFE34484179A12079
:10751000FFF75AFE31488179A220FFF755FE2F4828
:10752000C179A320FFF750FE2C48017AA420FFF771
:107530004BFE2A48417AA520FFF746FE2748817A6C
:10754000AA20FFF741FEAC21B020FFF73DFE00214D
:10755000B220FFF739FE0221B320FFF735FE1021DC
:10756000B420FFF731FE2821B520FFF72DFE2D2195
:10757000B620FFF729FED421B720FFF725FE002112
:10758000B820FFF721FE0021B920FFF71DFE4221A0
:10759000BA20FFF719FE4521BB20FFF715FE532146
:1075A000BC20FFF711FE5421BD20FFF70DFE422144
:1075B000BF2015E01F000020900200201E000020C8
:1075C000000401401D00002037740008280000203E
:1075D00030000020A06806002C00002018FC0008E5
:1075E000FFF7F2FD4521C020FFF7EEFD5321C1203A
:1075F000FFF7EAFD5421C220FFF7E6FDFF21C3207B
:10760000FFF7E2FDFF21C420FFF7DEFDFF21C520CB
:10761000FFF7DAFDFF21C620FFF7D6FDFE48C17A4D
:10762000D820FFF7D1FDFC48017BE920FFF7CCFD16
:10763000F948417BEE20FFF7C7FDF748817BEF203B
:10764000FFF7C2FDF448C17BF020FFF7BDFDF24813
:10765000017CF120FFF7B8FDEF48417CF220FFF7F5
:10766000B3FD5221F520FFF7AFFD04F07BFB493855
:1076700000EB80004006040E2146F920FFF7A4FD30
:107680000A21FA20FFF7A0FD0021F320FFF79CFD5F
:107690000021F420FFF798FDDF48C17CF620FFF7BA
:1076A00093FDDD48017DF720FFF78EFD0721ED20DA
:1076B000FFF78AFDD9480178A720FFF785FDD84B51
:1076C0004FF4C8720021032004F0B2F81E21FC2000
:1076D000FFF77AFD0C21FD20FFF776FD3221FE2019
:1076E000FFF772FD01220A21002000F0F3FA0223C5
:1076F00028220021184600F0CBFACA48006820F47E
:107700008060C8490860FFF7D8FDFFF7AEFDFFF7BE
:10771000A8FD10BD10B503218820FFF755FD0821F5
:107720008820FFF751FD01218E20FFF74DFD10BD90
:107730002DE9F04106460C4690460025FFF7BDFDB9
:10774000FFF7E8FF2146BE20FFF73EFD1DE04FF4A6
:10775000805503E0142002F069FF6D1E0021032014
:10776000FFF732FD00F0200008B9002DF2D100270C
:1077700007E016F8011BFF20FFF726FD601EC4B2CC
:107780007F1C322F01D2002CF3D1002CDFD1092134
:107790008720FFF719FD4FF4C87002F047FF4FF440
:1077A000805506E0681E051E03D10420FFF7A8FDE2
:1077B00008E000210320FFF707FD00F0040008B9EE
:1077C000002DEFD100BFFFF778FDFFF74EFDBDE8BC
:1077D000F0812DE9F04105460F462C4604F11206D2
:1077E000322F2FDC204605F092FC10B10020BDE8BE
:1077F000F081E07CB2280FD1F078BB280CD105F0E5
:107800003EFAE168884207D13079642804DA864874
:1078100001783079854A115405F031FAE1688842DF
:107820000AD005F02FFA8046804810F80800401C66
:107830007E4901F8080000BF207D1730C1B2204604
:1078400005F03DFC0120D2E72DE9F04F91B08046D4
:107850000F464FF000094FF0010AB1E04846411CC5
:1078600001F0FF09052806DD0520FFF749FD00208E
:107870006F490870ACE000210320FFF7A5FC044627
:1078800000210420FFF7A0FC054605F0800028B188
:1078900000212620FFF798FC6349087004F00100DE
:1078A00018B100206249087092E004F0100020B383
:1078B0005F48007818B9404602F022FD8246002653
:1078C0000BE000217F20FFF77FFC834659464046AE
:1078D00003F063F88246701CC6B2322EF1DB5448C6
:1078E0000078CD2803DD00205149087070E0504831
:1078F000007832304E49087000BF04F002000028C2
:107900005ED000214B20FFF75FFC044611E0002110
:107910007F20FFF759FC46490978322291FBF2F3A8
:1079200002FB131101AA505441480078401C404901
:1079300008703F480078A042E9DB172C2EDB3D4859
:10794000007860B1214601A8FFF743FF38B9002055
:1079500037490870FFF789FC11B0BDE8F08F322C71
:1079600003DC404602F0CCFC8246322094FBF0F16E
:1079700000FB114028B1322094FBF0F100FB1140D4
:1079800000E032200646324601A9404602F092FF4E
:107990008246404602F0BCFC824606E0224601A92F
:1079A000384602F02EFD00F0FF0A00202049087042
:1079B000BAF1000F04D100220321022002F004FFDB
:1079C0004FF480610020FFF71DF900283FF446AF17
:1079D00000BF1748007808B9FFF747FC00BFBBE7B6
:1079E00010B515491548FFF72FFF4FF480600D497A
:1079F0001431086010BD10B504461148008850B914
:107A0000082C00D3012400F032FB0E4931F8141089
:107A1000B0FBF1F218E01CE018FC00081E0000208A
:107A200011730008000401401C0000209002002097
:107A3000200000201F0000208C0D00204C0300209F
:107A4000260000202EFC000801FB1200801C31499A
:107A5000088002210120FFF7D5F8F0B92D480088F1
:107A6000401E80B22B49088070BB2B480088401C08
:107A700080B229490880642808DD00200880274B4F
:107A80004FF4C8720021032003F0D2FE00202149E8
:107A9000088023490880012010BD00201D4908806E
:107AA0001D4908801E480088401C80B21C4908807F
:107AB000B0F57A7F08DD00200880184B4FF4C872BB
:107AC0000021032003F0B4FE0020E5E770B5064670
:107AD0000C46154613480078012819D12846FFF7AF
:107AE0008AFFA8B100200F4908700F4BC82200215F
:107AF000084603F09DFE172C03DBB61DA4F10C0015
:107B0000C4B22A4621463046FFF712FE012070BD5E
:107B10000020FCE72600002024000020117300084C
:107B2000220000201D0000206372000810B585228D
:107B30004FF460410120FEF7D7FF05224FF460416A
:107B40000120FFF719F810BD0146002208E0104699
:107B5000531C9AB24FF6FE73984201DB0020704727
:107B60003D48008800F002000028F0D03A48001D8F
:107B70000180002208E01046531C9AB24FF6FE73B3
:107B8000984201DB0020EAE73348008800F001005A
:107B90000028F0D03048001D0088C0B2DFE710B5E3
:107BA0002E48006840F480402C4908600846006870
:107BB00020F48040086029480C30006840F4804080
:107BC00026490C3108602548001D006840F002007D
:107BD0002249091D0860FFF7A9FF1F4808380088DF
:107BE0001D49083908800846008840F40070088064
:107BF0000846008840F4807008800846008840F0FD
:107C0000040008800846008808800846008840F084
:107C1000080008800846008808800846008840F070
:107C200040000880FF20FFF78FFF10BD00F0070025
:107C300009490839098821F03801074A083A1180B2
:107C40001146098841EAC00111801146098841F0B6
:107C50004001118070470000083800401838024089
:107C6000A44A0A400243A44B1A6070470146072306
:107C700023EA01021202A04B1B1D18684FF6FF03F6
:107C800018409E4B184310439B4B1B1D18607047B8
:107C90002DE9F0410746884614461D460026284631
:107CA000FFF7E4FFC5F1040007FA00F60F202841B2
:107CB00000EA0800064336019148065504F01F010A
:107CC000012088406111890001F1E021C1F8000123
:107CD000BDE8F08170B504460B46CE1701EB9676F1
:107CE000C6F38700CE1701EB9676B610A1EB860699
:107CF000B606350E834B1B6843F00103814E33609B
:107D0000814B53F820300F26AE40B3437E4E46F8E9
:107D10002030334653F8203004FA05F61E437A4BE0
:107D200043F82060794B1B6801268E403343774E21
:107D3000336002F0010343B1744B0C331B6801261E
:107D40008E403343714E0C36336002F0020343B170
:107D50006E4B08331E6801238B401E436B4B083368
:107D60001E6070BD0020674908390860091F08605F
:107D700014206449091F08600020091D0860091DBE
:107D8000086060482038006840F001005D492039F3
:107D900008605C48183800685D490840594918393E
:107DA00008605848203800685A4908405549203929
:107DB00008600846006820F48020086051481838A0
:107DC000006820F4FE004F49183908600020091DA2
:107DD0000860704710B548480830006840F004005B
:107DE0004549083108604748001D006840F0805050
:107DF0004449091D08604848406840F4807046497D
:107E000048600846006840F00400086008460068C2
:107E100040F002000860FEF7DFFB10BD3748001D90
:107E20003549091D0860704701464906354A126800
:107E300042F00102334B1A60704700B5024600233E
:107E4000FFF790FF2F482038006840F480302D491C
:107E50002039086000BF2B4820380068400C0028FB
:107E6000F9D04FF48060274918390860901EC2B2DB
:107E70000846006840EA824008600846006840F40E
:107E8000803008602548006840F0320023490860CF
:107E90001C482038006840F080701A49203908607A
:107EA00000BF184820380068400E0028F9D0154857
:107EB0001838006840F0020012491839086006E0DE
:107EC000104818380068C0F3870303F00303022B3F
:107ED000F6D100BD70B5044625462068104908401B
:107EE000B0F1005F04D12868FEF779FB686880472D
:107EF00070BD000080FFFF1F08ED00E00000FA05E4
:107F000000E400E020380240080001400004014085
:107F10000000FFF8FFFFF6FE00700040003C02404A
:107F20000000FE2F10B505F039F900F07FF8FFF7DB
:107F3000E5F8FEF780FEFFF77EFA10BD01463648F1
:107F40000068364A90422DD13348001D0068B0F1D8
:107F5000FF3F27D03048001D006818B32E48001D91
:107F60000068B0F1443F1DD02B48001D0068B0F1FF
:107F7000883F17D02848001D0068294A904211D038
:107F80002548001D0068244A08321268D2439042F6
:107F900008D12148001D006888420AD01E48001DF3
:107FA000006870471F48406E884202D01D48406EEE
:107FB000F7E70020F5E7184800681849884229D1FA
:107FC0001548001D0068B0F1FF3F23D01248001D86
:107FD0000068F8B11048001D0068B0F1443F19D0A6
:107FE0000D48001D0068B0F1883F13D00A48001DFD
:107FF00000680B4988420DD00748001D00680649FB
:1080000008310968C943884204D10348001D00684B
:108010000549486070470000300400085A3CC3A579
:10802000424553540000F81FEC1300201CB50020FB
:108030000190FF200090694601A8FEF732FC4FF046
:10804000E020006920F004004FF0E02108614FF4C7
:10805000FA510198B0FBF1F04FF0E02148610020A7
:1080600088610320086100200F4908601CBD0E488C
:10807000006870470C4800680C49086070470B485E
:108080000068704710B5084800680949B0FBF1F274
:1080900001FB12000449086008460068401C0860A3
:1080A00003F0D2FC10BD0000340000203800002096
:1080B0000084D71710B5012280210020FEF714FD9F
:1080C00080210020FEF786FD00200149086010BDD8
:1080D0003C00002070B505460C464348006840F45B
:1080E0008040414908600846006820F480400860EC
:1080F0003D480C30006840F004003B490C310860FA
:108100000846006840F4804008608C224915002031
:10811000FEF7EAFC8C224FF480610020FEF7E4FCBD
:1081200007224FF4C0610020FEF726FD2F48684368
:10813000B0FBF4F02E490880081D008842F20C01C3
:1081400008432B49091D08800846008840F48070C8
:1081500008800846008840F020000880022325227D
:1081600003210846FFF794FD70BD0246002100E0A0
:10817000491C1F480838008800F0400018B944F630
:1081800020608142F4D344F62060814204D2184832
:10819000001F0280012070470020FCE770B50446F4
:1081A0000D46164609E014F8010BFFF7DEFF20B973
:1081B0004FF4E1312020FFF78DFF281EA5F10101CA
:1081C000CDB2F0D1012070BD10B509480838008843
:1081D00000F0200030B10648001F0088C1B20548F9
:1081E00002F0DBFB10BD00001438024040420F00DB
:1081F000083801404C030020704770477047014623
:108200001220704710B54022D1000020FEF76CFC10
:108210004FF400710020FEF7DDFC00224FF4005106
:108220001046FEF761FC00224FF480411046FEF735
:108230005BFCC02210210020FEF756FC10BD10B5DB
:108240004FF400710020FEF7C5FC10BD10B54FF4CF
:1082500000710020FEF7C8FC10BD10B500245F4877
:10826000006840F001005D490860FFF7CBFF05E0C2
:10827000601C0446B0F57A7F00D905E057480068D5
:1082800000F002000028F3D000BF544820300068FE
:1082900040F40070514920310860504814300068A3
:1082A00040F400704D49143108600846006820F41D
:1082B000007008604A4800684A4908404849086018
:1082C000084600680860084600680860081D0068E5
:1082D000454908404249091D086008460068086091
:1082E000084600680860084600680860084600689C
:1082F00008603B482C30006839492C310860384808
:108300003C30006820F01F0035493C3108600846C9
:10831000006840F0040008603148001D006840F02B
:1083200001002F49091D086010BD014600222C489C
:10833000001D006840F08040294B1B1D186007E0BD
:10834000501C80B20246B0F5FA6F01DD0020704784
:108350002348001F006800F002000028F0D02048E9
:108360005430006808800120F1E7F8B504460D4656
:108370000026002000901A48001D006840F001000F
:108380001749091D0860002718E06846FFF7CDFF70
:10839000012807D1BDF8000006444FF4FA7002F03E
:1083A00045F909E00E48001D006820F001000C4965
:1083B000091D08600020F8BD781CC7B2A742E4DBA5
:1083C000B6FBF4F028800648001D006820F001008C
:1083D0000349091D08600120EDE700000038024054
:1083E00004240140FFFEFFFCFDF7FFC038B5044642
:1083F000002000900025FFF722FF69460A20FFF7C2
:10840000B4FF01280CD1BDF8000040F2393100FB67
:1084100001F5C5F34F202080FFF718FF012038BD7C
:10842000FFF714FF0020FAE7F8B50546002000909A
:10843000002400266846FFF7D9FF01286FD19D4828
:108440000088BDF80010884201DC642604E19948E8
:108450004088BDF80010884213DC96480088954992
:108460004988401A0A2190FBF1F092494988BDF8E9
:108470000020511A91FBF0F0C4B204F15A00C6B2C8
:10848000EAE08C488088BDF80010884213DC8948F7
:10849000408888498988401A0A2190FBF1F0854973
:1084A0008988BDF80020511A91FBF0F0C4B204F1A4
:1084B0005000C6B2D0E07F48C088BDF800108842A6
:1084C00013DC7C4880887B49C988401A0A2190FBCC
:1084D000F1F07849C988BDF80020511A91FBF0F0FD
:1084E000C4B204F14600C6B2B6E072480089BDF8D5
:1084F0000010884214DC6F48C0886E490989401A10
:108500000A2190FBF1F06B490989BDF80020511A4E
:1085100091FBF0F0C4B204F13C00C6B29CE0C1E0B3
:1085200064484089BDF80010884213DC6148008926
:1085300060494989401A0A2190FBF1F05D49498957
:10854000BDF80020511A91FBF0F0C4B204F13200E2
:10855000C6B281E057488089BDF80010884213DC1C
:108560005448408953498989401A0A2190FBF1F007
:1085700050498989BDF80020511A91FBF0F0C4B22E
:1085800004F12800C6B267E04A48C089BDF800106F
:10859000884213DC474880894649C989401A0A2124
:1085A00090FBF1F04349C989BDF80020511A91FBB5
:1085B000F0F0C4B204F11E00C6B24DE03D48008A9E
:1085C000BDF80010884213DC3A48C0893949098A4D
:1085D000401A0A2190FBF1F03649098ABDF80020C3
:1085E000511A91FBF0F0C4B204F11400C6B233E0AA
:1085F0003048408ABDF80010884213DC2D48008ABC
:108600002C49498A401A0A2190FBF1F02949498AEC
:10861000BDF80020511A91FBF0F0C4B204F10A0039
:10862000C6B219E02348808ABDF80010884212DCE7
:108630002048408A1F49898A401A0A2190FBF1F09C
:108640001C49898ABDF80020511A91FBF0F0C4B290
:10865000601CC6B200E001262E7017480078502832
:1086600003DD0420154908701AE0134800783C28FF
:1086700003DD03201149087012E00F480078282814
:1086800003DD02200D4908700AE00B480078142829
:1086900003DD01200949087002E000200749087045
:1086A0000120F8BDFF20287000200449087000BF99
:1086B000F7E7000036FC00084000002041000020E1
:1086C00000B58DB0302101A806F036FF30480078A3
:1086D00060BB4FF400510020FEF794FA28B94FF424
:1086E00080410020FEF78EFA40B12A48102308226C
:1086F000002100900C2000F083FC05E000232022E4
:1087000019460C2000F02AFD23480078C0EBC00178
:1087100001EB00101F49E63901EB4000102317223E
:10872000002100900D2000F06BFC0DE000232022C2
:1087300019460C2000F012FD01A810231722002179
:1087400000900D2000F05CFC0DB000BD10B513488A
:10875000007808B9FFF7B4FF10BD10B5FFF77DFD35
:108760000F48FFF761FE10BD70B506460C46154672
:108770000B48FFF759FE012805D1094800782870F9
:108780000120207070BD1220FCE7034601207047D5
:10879000420000209A05010841000020220100202B
:1087A0004000002010B5022201210020FEF79CF9B4
:1087B00010BD002043490880704710B501210020FA
:1087C000FEF720FA012801D1FFF7F3FF10BD10B525
:1087D00000204FF0E0210861282000F01F02012155
:1087E0009140394A430942F8231000BFFDF7F0FEDB
:1087F0004FF400610020FEF7F7F93448008820F0BC
:108800004000324908803248006820F480403049F6
:108810000860081F006820F48040091F08602C4889
:108820001438006840F001002949143908602848CC
:10883000006840F08050264908602648006840F0F3
:108840000400244908602448006840F002002249DE
:1088500008600846006840F0040008600846406868
:1088600040F48070486030BF10BD10B515480188D5
:108870000088401C134A1080B1F5967F0BD300206E
:108880001146088000F0AAFA02F062F901F0EFF94F
:10889000FFF79DFF11E00B480088C8280DD101208B
:1088A0000E49087000F093FD0D49087800F0BFFDF7
:1088B00000F094FA01200B49087010BD01200A490C
:1088C000086070474400002080E100E0003800406C
:1088D0002438024010ED00E000700040420000200B
:1088E00008030020430000201404014010B5034693
:1088F000002000BF06E053F82040944200D103E07E
:10890000441CE0B28842F6DB00BF10BD10B5002168
:10891000002200BF22E0836953F821305B1C846988
:1089200044F8213004684369B3FBF4F3846954F8D4
:108930002140A3420FD2531CDAB204684369B3FB4F
:10894000F4F3846944F821300379934200DD03E0B5
:10895000002380F8243000BF4B1CD9B203798B422E
:10896000D9DC10BD2DE9F04704460D4616461F46DA
:108970004FF0FF394FF0FF0894F8250078BB2046F0
:10898000FFF7C4FF21792A46E069FFF7AFFF804671
:108990002079404502D14846BDE8F0872168A068AB
:1089A000B0FBF1F0A16951F8281088422AD20020CA
:1089B0000C34E16841F82800207E401C2076207E9F
:1089C00014F80C1988420BDD002084F824000120E3
:1089D00084F8250000202062A6B1B04712E001E033
:1089E000A9460FE0206A401C206221682069B0FB84
:1089F000F1F0216A884205D2002084F82500206227
:108A000007B1B8474846C7E700F074FE01F021FA05
:108A100002F0B4FEFFF786FA01F0ECFBFEF7B4FAC1
:108A2000FDF7C0FFFFF746FB00F018F800F06BFE03
:108A300009E00549054801F0BDFA0549054801F07E
:108A4000B9FA02F0CCFFF4E76C0B00204C030020D5
:108A5000AC0E00208C0D00200220704710B50224BF
:108A60000B49022003F003FC0FE0601EC0B2044675
:108A700000EB8000074951F8200030B104EB84007E
:108A80000A4652F8201020468847002CEDD110BD30
:108A9000F40200204CFC000810B54D224FF4806118
:108AA0000120FEF721F84D224FF400610120FEF76E
:108AB0001BF84FF480610120FEF78CF84FF4006141
:108AC0000120FEF787F810BDC348008840F400601D
:108AD000C14908800846008840F480600880881CEE
:108AE000008840F40060891C08800846008840F433
:108AF000806008807047B848801C008840F400609F
:108B0000B549891C0880881E008840F48060891E51
:108B100008800846008840F400600880704710B55F
:108B200042F21074AC48008840F40060AA49088002
:108B30000122C9141046FDF7D7FFA748008840F46A
:108B40008060A54908801AE0A3480838008800F42E
:108B50000060A0B9A048801C008840F480609E4955
:108B6000891C08804D22C9140120FDF7BDFF9A48D9
:108B7000008840F4006098490880002010BD201E45
:108B8000A4F101018CB2DFD19348801C008840F42D
:108B900080609149891C08804D22C9140120FDF78D
:108BA000A3FF8D48008840F400608B4908800120B5
:108BB000E4E78948801C008840F400608649891CED
:108BC0000880881E008840F48060891E0880881C08
:108BD000008840F48060891C08800846008840F4C2
:108BE0000060088070477C48008840F400607A4943
:108BF00008800846008840F480600880881C00884F
:108C000040F48060891C08800846008840F40060B9
:108C100008807047002121E000F0800232B16E4AE6
:108C2000128842F400626C4B1A8007E06A4A921C78
:108C3000128842F40062684B9B1C1A804206100E98
:108C4000654A128842F48062634B1A809A1C12882B
:108C500042F480629B1C1A804A1CD1B20829DBDBDB
:108C6000704770B500240122D1021046FDF73CFF89
:108C7000002519E05848008840F480605649088073
:108C80006006040E54480838008800F4006008B1FB
:108C900044F001045048801C008840F480604E4934
:108CA000891C0880681CC5B2082DE3DB4D224FF4F7
:108CB00000610120FDF718FF4748008840F400607C
:108CC00045490880204670BD70B505460C46FFF743
:108CD000FBFE7820FFF79EFFFFF721FF2846FFF7F6
:108CE00099FFFFF71CFF2046FFF794FFFFF717FFE0
:108CF000FFF701FF70BD70B50446FFF7E5FE782071
:108D0000FFF788FFFFF70BFF2046FFF783FFFFF712
:108D100006FFFFF7D9FE7920FFF77CFFFFF7FFFE84
:108D2000FFF79FFF0546FFF75EFFFFF7E4FE2846CB
:108D300070BD2DE9F04180460C4615462746FFF7E9
:108D4000C3FE7820FFF766FFFFF7E9FE4046FFF716
:108D500061FFFFF7E4FE002607E03878FFF75AFFCF
:108D6000FFF7DDFE7F1C701CC6B2AE42F5DBFFF7DD
:108D7000C2FEBDE8F0812DE9F04180460D46164661
:108D80002C46FFF7A1FE7820FFF744FFFFF7C7FE50
:108D90004046FFF73FFFFFF7C2FEFFF795FE792041
:108DA000FFF738FFFFF7BBFE002707E0FFF759FF8B
:108DB00004F8010BFFF7FDFE781CC7B2701EB84225
:108DC000F4DCFFF74EFF04F8010BFFF70CFFFFF791
:108DD00092FEBDE8F08100001804024070B5002446
:108DE00019E004F1B000C1B20020FFF76DFF0021CF
:108DF0000846FFF769FF10210020FFF765FF0025F7
:108E000005E000214020FFF75FFF681CC5B2842DFC
:108E1000F7DB601CC4B2082CE3DB70BD10B5FFF7B4
:108E20003BFE402280210020FDF75EFEF748008BCC
:108E300040F08000F5490883402201210846FDF7F3
:108E400053FE01210846FDF7CFFE142001F0FAFB86
:108E500001210846FDF7BEFEAE210020FFF734FFDA
:108E600020210020FFF730FF10210020FFF72CFF0A
:108E7000B0210020FFF728FFC0210020FFF724FFCA
:108E800000210846FFF720FF10210020FFF71CFFFC
:108E900040210020FFF718FF81210020FFF714FF79
:108EA0007F210020FFF710FFA0210020FFF70CFF1B
:108EB000A6210020FFF708FFA8210020FFF704FFEC
:108EC0003F210020FFF700FFA4210020FFF7FCFE58
:108ED000D3210020FFF7F8FE00210846FFF7F4FE3B
:108EE000D5210020FFF7F0FEF0210020FFF7ECFE77
:108EF000D9210020FFF7E8FE22210020FFF7E4FE41
:108F0000DA210020FFF7E0FE12210020FFF7DCFE4F
:108F1000DB210020FFF7D8FE20210020FFF7D4FE40
:108F20008D210020FFF7D0FE14210020FFF7CCFE9A
:108F3000052001F087FBFFF751FFAF210020FFF76D
:108F4000C3FE10BD10B5AF210020FFF7BDFE10BD60
:108F500010B5AE210020FFF7B7FE10BD70B5044676
:108F60000D46E006040E04F00F06102000EB14146A
:108F700005F1B000C1B20020FFF7A6FEB11C002031
:108F8000FFF7A2FE21460020FFF79EFE70BD70B5E0
:108F900004460D4604F00F06102000EB141405F1F2
:108FA000B000C1B20020FFF78FFEB11C0020FFF718
:108FB0008BFE21460020FFF787FE70BD70B504468A
:108FC00000251AE005F1B000C1B20020FFF77CFED9
:108FD00002210020FFF778FE10210020FFF774FE29
:108FE000002606E014F8011B4020FFF76DFE701C00
:108FF000C6B2802EF6DB681CC5B2082DE2DB70BD60
:109000002DE9F04782460D4617461C46DDF82080C4
:109010002E4613E031465046FFF7A0FF4FF00009FF
:1090200008E018F8011B4020FFF74EFE09F101008F
:1090300000F0FF09B945F4DB701CC6B2E11704EB80
:10904000517105EBE101B142E4DCBDE8F0872DE9A7
:10905000F04180460D4600261EE031464046FFF7AF
:109060007DFF002714E010CDE1B24020FFF72CFE79
:10907000C4F307214020FFF727FEC4F30741402037
:10908000FFF722FE210E4020FFF71EFE781CC7B21C
:10909000102FE8DB701CC6B2082EDEDBBDE8F081C5
:1090A0002DE9F04781460F461546002623E0F019CA
:1090B000C1B24846FFF752FF4FF0000816E010CD4E
:1090C000E1B24020FFF700FEC4F307214020FFF784
:1090D000FBFDC4F307414020FFF7F6FD210E4020C1
:1090E000FFF7F2FD08F1010000F0FF08B8F1100FE2
:1090F000E5DB701CC6B2042ED9DBBDE8F0872DE994
:10910000F04781460F461546002623E0F019C1B20C
:109110004846FFF723FF4FF0000816E010CDE1B2FC
:109120004020FFF7D1FDC4F307214020FFF7CCFD1D
:10913000C4F307414020FFF7C7FD210E4020FFF791
:10914000C3FD08F1010000F0FF08B8F1080FE5DBEE
:10915000701CC6B2042ED9DBBDE8F0872DE9F05FA4
:1091600083460C4616461F464FF0000AA6F1200023
:10917000274901EB001A00251CE005EB4400C1B2B1
:109180005846FFF7EBFE4FF000080EE01AF8019B7F
:109190001FB16FEA090000F0FF0949464020FFF7C0
:1091A00093FD08F1010000F0FF08B8F1080FEDDBB6
:1091B000681CC5B2022DE0DBBDE8F09F2DE9FF5F22
:1091C0000E46174698464FF0000B002411E0387801
:1091D000104911F81410884209D178780D4901EB33
:1091E00044014978884202D10B4800EB441B601CC3
:1091F000C4B2112CEBD3002526E005EB4600C1B22A
:109200000098FFF7ABFE4FF0000918E000000240A5
:1092100074FC000864020108860201081BF801AB17
:10922000B8F1000F03D06FEA0A0000F0FF0A5146C0
:109230004020FFF749FD09F1010000F0FF09B9F1F5
:10924000100FEBDB681CC5B2022DD6DBBDE8FF9F1B
:109250002DE9F04105460E4614461F4615E02078DC
:10926000A02809DD3B46224631462846FFF7A6FFE7
:10927000A81CC5B2A41C08E022783B46314628460B
:10928000FFF76CFF681CC5B2641C20780028E6D18B
:10929000BDE8F08170B50546002409E02146284666
:1092A000FFF775FEFF214020FFF70EFD601CC4B2E2
:1092B000082CF3DB70BD2DE9F04782460E461746B9
:1092C000B946002416E0A019C1B25046FFF75FFE70
:1092D0004FF0000809E019F8015B29464020FFF72C
:1092E000F3FC08F1010000F0FF08B8F1120FF2DB07
:1092F000601CC4B2042CE6DBBDE8F08710B5022286
:1093000001210020FDF7F0FB01220E210020FDF7D6
:10931000EBFB01224FF460410220FDF7E5FB10BD9D
:109320000848008A00F0010048B10648008A00F0B1
:109330000E0080000449098840EA51307047FF2040
:10934000FCE70000000002401008024045F25552C0
:10935000084B1A601A46506091604AF6AA221A60B9
:109360004CF6CC421A6070474AF6AA2001490860C0
:10937000704700000030004010B544224FF44E7199
:109380000120FDF7B1FB44224FF400410020FDF71E
:10939000ABFB10BD10B508210120FDF71BFC10210F
:1093A0000120FDF717FC20210120FDF713FC4FF4ED
:1093B00080710120FDF70EFC4FF400710120FDF7D4
:1093C00009FC4FF400410020FDF704FC10BD10B56E
:1093D00008210120FDF708FC10210120FDF704FC05
:1093E00020210120FDF700FC4FF480710120FDF7E2
:1093F000FBFB4FF400710120FDF7F6FB4FF4004139
:109400000020FDF7F1FB10BD10B54C490878097834
:10941000491C4A4A117000EBD0714910A0EB410180
:1094200011B1FFF7B7FF01E0FFF7D1FF10BD10B595
:109430000446072C26D2DFE804F02504090E141A8E
:10944000200020210120FDF7C5FB1BE01021012099
:10945000FDF7C0FB16E04FF400410020FDF7BAFB1A
:1094600010E04FF480710120FDF7B4FB0AE04FF4E7
:1094700000710120FDF7AEFB04E008210120FDF79B
:10948000A9FB00BF00BF10BD70B504460D46072CF8
:1094900026D2DFE804F02504090E141A200020214A
:1094A0000120FDF7A1FB1BE010210120FDF79CFB33
:1094B00016E04FF400410020FDF796FB10E04FF45A
:1094C00080710120FDF790FB0AE04FF4007101204C
:1094D000FDF78AFB04E008210120FDF785FB00BFB2
:1094E00000BF70BD704710B515490978491CC9B255
:1094F000134A1170084601EBD0714910A0EB4101ED
:1095000021B110480078FFF792FF05E040F21131D9
:109510000C480078FFF7B8FF10BD10B50446FFF700
:1095200039FF00200649087006480470AFF249036D
:1095300064220D21012002F07BF910BD0E010020F4
:109540000D0100200C010020002108E0002200EBAA
:1095500041035A70FF2200F811204A1CD1B207299A
:10956000F4DB0022C273827370470146C87B401C43
:10957000072290FBF2F302FB13008A7B904201D199
:10958000012070470020FCE70146C87B8A7B90429F
:1095900001D1012070470020FCE713B504462046A6
:1095A000FFF7E3FFE0B1A07B401C072190FBF1F245
:1095B00001FB1200A0739DF80400E17B04F8110088
:1095C0009DF80500E17B04EB41014870E07B401C05
:1095D000072190FBF1F201FB1200E07300201CBD9B
:1095E0009DF80400E17B04F811009DF80500E17B83
:1095F00004EB41014870E07B401C072190FBF1F235
:1096000001FB1200E0730120E9E770B504460D4646
:109610002046FFF7B9FF08B1002070BDA07B04EB26
:10962000400040786870A07B14F810002870A07B80
:10963000401C072190FBF1F201FB1200A0730120F6
:10964000EBE7000070B504460D4616461A48006860
:10965000A20A01219140084317490860E662258566
:10966000A08820F0F000A080A08840F04000A080FA
:10967000A08940F00100A08100206062208840F0B5
:109680000100208002231C2203211846FEF700FB64
:1096900070BD10B54FF08040008A00F0010008B1A5
:1096A00000F010F94FF08040008A20F001004FF0E8
:1096B0008041088210BD00002438024041F27070E1
:1096C000FE4908610D2008734FF4FA708860FC4869
:1096D000C8610620087105200860002081F8250077
:1096E000086240F2DC504861002081F82400F5480F
:1096F0008861704710B5FFF701FEF348FFF724FFBC
:10970000FFF7DCFF10BD10B54FF0FF3400E0641E22
:10971000EE48008A00F001000028F8D1002CF6D0B5
:1097200041F6FF0220214806FFF78CFF10BD10B55F
:10973000E7480078B8B1FFF751FB0023E5A21946CE
:109740000120FFF785FD0023E6A201210420FFF799
:109750007FFD0023E6A202210620FFF779FD00200D
:10976000E54908702DE0E548007850BBE4484078B2
:10977000012802D0022822D117E0E1480178801C9C
:10978000405C40B9DE480078DE4A52F820100420E0
:10979000FFF75DFC08E0DA4800782030D94A52F83B
:1097A00020100420FFF753FC0AE0D5480078103061
:1097B000D44A52F820100420FFF749FC00E000BF13
:1097C00000BF10BD10B5D04B0A220021084602F0A0
:1097D0002FF810BD10B5FFF701FB0023CBA201212C
:1097E0000420FFF735FD10BD10B5CB4B0A22002138
:1097F000084602F01DF810BD70B505460E46002063
:109800002870FFF78DFDC549087008460078C449E7
:109810000978884250D1C1480078FF281ED1C1483C
:109820000078FF2812D0C0480088FA280EDABE4817
:109830000088B04244DDFF20BA4908700020BA49D0
:10984000088001202870B948007870BDFF20B54914
:1098500008700020B4490880FF20F6E7AF48007880
:10986000B049097888420CD1AF4801880088401C73
:10987000AD4A1080FA2923D102202870AB48007825
:10988000E3E7A6480078A749087001240AE0A84841
:10989000005DA2490978884202D1A448047003E01F
:1098A000601CC4B2072CF2DD00BF072C02DDFF20D4
:1098B0009E490870FF20C8E79848007898490870CA
:1098C000FF20C2E738B500210DF10100FFF794FF3A
:1098D0008DF800009DF80010964B974A7748FFF7E7
:1098E00041F8B0F1FF3F13D09DF80000FF280FD0E2
:1098F0000024FCF77AFE044673480099FFF74DFEFA
:109900002046FCF76FFE9DF80000FFF706FE00BF43
:1099100038BD10B504468948007810B1012877D1C8
:1099200011E0012085490870FFF758FA002384A24E
:1099300019460220FFF78CFC00236DA202210620AD
:10994000FFF786FC83E0062C7FDCFEF732FF7F48C2
:109950000078B0B100235FA219460120FFF778FC20
:10996000002360A201210420FFF772FC002360A203
:1099700002210620FFF76CFC0020744908705E4944
:10998000087004F13001CAB25B490978891DC8B278
:1099900000230221FFF7E2FB6D4857490978445440
:1099A000554801780078401C534A107003294CDB5D
:1099B0000020114608706748007865490978884298
:1099C00031D1644840786249497888422BD1614856
:1099D00080785F498978884225D15E48C0785C49A3
:1099E000C97888421FD1002039490870FFF7F6F97D
:1099F00000204249087042484078012809D1404877
:109A00000078404A52F820100420FFF720FB1CE0A9
:109A10001CE03B48007810303A4A52F820100420ED
:109A2000FFF715FB11E000232AA219460120FFF7DA
:109A30000FFC00232BA201210420FFF709FC0023C7
:109A40002BA202210620FFF703FC00E000BF00BFAD
:109A500010BDF8B500250026FCF7C7FD064669468F
:109A60001948FFF7D2FD05463046FCF7BBFD002D37
:109A700006D01748007820B19DF80000FFF749FF95
:109A8000D5E09DF80000FF28FAD0002404E0002073
:109A900031490855601CC4B2072CF8DB0020174977
:109AA00008709DF80100164948709DF80000087084
:109AB000FEF77FFE9DF8010001284FE024030020FF
:109AC0002801002040010020110300200000024076
:109AD00022010020C7EBD6D8D0C2CAE4C8EBC3DC51
:109AE000C2EB0000C3DCC2EBB4EDCEF3000000001B
:109AF0002D2D2D2D00000000270100204200002008
:109B000008030020480000202F970008CFB5CDB3F0
:109B1000B7B1C3A600000000D59700085901002086
:109B20005A0100205B0100205C0100205801002048
:109B30008A060108C5970008E99700085E01002021
:109B4000C7EBCAE4C8EBC3DCC2EB00004300002053
:109B5000230100201E0100201001002002D0022855
:109B600063D149E09DF800004A49085CB0B9012082
:109B70009DF80010474A50549DF80000464A52F89C
:109B800020100420FFF763FA9DF80000801DC1B289
:109B900001231A46184600F0A9FF16E000209DF8A0
:109BA00000103C4A50549DF8000020303A4A52F8C8
:109BB00020100420FFF74BFA9DF80000801DC1B271
:109BC00000230122104600F091FF9DF8000031496A
:109BD000095C02463148815401209DF80010304A4A
:109BE00050549DF8001001231A46184600F07EFFDD
:109BF000012002F08EF919E09DF800001030264A8D
:109C000052F820100420FFF722FA02209DF80010DD
:109C1000234A50549DF8001002230122104600F000
:109C200065FF012002F075F900E000BF00BFF8BD3C
:109C300070B5FF25FF26FFF773FB05460A2000F0ED
:109C4000F5FCFFF76DFBA8420FD1012407E0154892
:109C5000005DA84201D1264603E0601CC4B2072C77
:109C6000F5DD00BF072C00DDFF26304670BD10B5C6
:109C70000A4A921E092144F2080000F02DFD10BD91
:109C800010B504462246092144F2080000F0E8FC21
:109C900010BD000017010020480000200A0300202A
:109CA000100100208A0601080F20704738B50546CC
:109CB000FEF753FDFFF760FBFFF76CFBFFF7AEF815
:109CC000AC48FEF7B1FB012814D1AA480078082857
:109CD00010DCA94820233822022100902420FFF71D
:109CE0008FF9A64B40F6B8320021084601F0A0FDDE
:109CF00000BFFEE7A24A0421080302F084FFA04847
:109D0000007806280BDC9E484078062807DC9C4833
:109D10008078062803DC9A48C078062805DD0020F4
:109D20009749087048708870C8709548007840B1AD
:109D30009348407828B19248807810B19048C07814
:109D400018B900208F49087002E001208D49087081
:109D50008D4B14220021022001F06AFD8B4B6422FE
:109D60000021022001F064FD894BC822002102205D
:109D700001F05EFD87480078012806D1864B40F24D
:109D8000EE220021022001F053FD8448FFF778FF06
:109D900082480078072802DA8048007818B980489D
:109DA00000787E4908707D484078022802DC7B48B4
:109DB000407810B90120794948707848407877494F
:109DC0000978784A505401240FE07448801C005DE3
:109DD000012803DD00217148801C01556F48801C5B
:109DE000005D71490855601CC4B2072CEDDB6B485F
:109DF0004078012802D0022823D118E06748007873
:109E00006949085C012808D164480078674A52F81B
:109E100020100420FFF71BF908E06048007820308C
:109E2000624A52F820100420FFF711F90AE05B485B
:109E3000007810305D4A52F820100420FFF707F92F
:109E400000E000BF00BFFEF73BFC012002F061F81C
:109E500038BD10B5FFF7ECFE514908700846007890
:109E6000FF2808D001204B49087040F271210520DD
:109E7000FFF76CFA01E0FEF7AAFC10BD70B50546CD
:109E800000BF00203E49087048708870C8700A46BC
:109E90000421080302F0A0FE002040494870FF2082
:109EA00008700A46092144F2080002F095FE0124D8
:109EB00005E000213948801C0155601CC4B2072C04
:109EC000F7DB70BD10B503465C780120087035489B
:109ED000005D1070012010BD01464878801FC2B29D
:109EE0008878012801DD0F207047C8782E4B9854E0
:109EF0000120F9E710B503465878801FC4B201204D
:109F000008702948005D1070012010BD10B504468E
:109F1000E07830381A490870207930384870607914
:109F200030388870A0793038C8700A460421080398
:109F300002F052FE012010BD0346042008701048B4
:109F40000078303010700E484078303050700C4837
:109F50008078303090700A48C0783030D07001205E
:109F6000704710B5124BC8220621012001F060FC99
:109F700010BD000040000020AA050108CF8700089E
:109F80001E01002022010020539A00086B8800085F
:109F90004D8700085F010020699300080803002036
:109FA000600100201001002017010020480000205F
:109FB0000994000870B505460C46607810B1012878
:109FC00024D113E02946A01DD4F80C219047C0B23B
:109FD000207000B91FE000206071A078012802D134
:109FE000B148007A00E00120E07000BF627921787A
:109FF000A01DD4F80831984720B1E078401EC0B2C7
:10A00000E07010B10120607005E000BFFEF732F88B
:10A010000020607000BF00BF70BD10B5A349A44808
:10A02000FFF7C8FFA349A448FFF7C4FF10BD2DE9FF
:10A03000F04104460E46174625463146284604F0B0
:10A04000CAF9012805D12878032800D100E000BF13
:10A0500000BF0120BDE8F0810146881E0C280FD208
:10A06000DFE800F0060E0E0A0E070E080E0B0E0CAF
:10A0700000BF00BF0320704700BF00BF0620FAE703
:10A0800000BF00BF0020F6E7F8B504460D26607853
:10A0900000EB8000894901EB8000C56800270020A3
:10A0A0000090FEF7D9FC617888425EDD00BFA178A0
:10A0B0002868884245D12078022808D020780428D2
:10A0C00005D02078072802D02078092823D1A86855
:10A0D000F8B1607800EB8000794901EB40008079AD
:10A0E00020B90926607801F014FF29E0601CA968F6
:10A0F00088470646022E23D12868CF2800D901269A
:10A10000E07800909DF80020211D601D03F0C9F843
:10A1100016E00A2614E02078052805D020780B28C0
:10A1200002D020780D280AD1E86830B1621D694656
:10A13000601CEB689847064602E00B2600E00C2600
:10A1400012E0617801EB81015C4A02EB8101086950
:10A150008047791CC9B20F46884205DD05F114001D
:10A1600005460068FF28A2D900BF9DF80000401CEA
:10A17000E07026713046F8BD2DE9F84305460F46DC
:10A180009046AC1D05F11B0004F11103621C394619
:10A190000090284603F0AFFE0646012827D104F1BF
:10A1A0001100FFF771FF0646032E20D0FEF701FBDA
:10A1B000FCF7EBFE607C022812D0607C05280FD0F3
:10A1C000607C072802D0607C0B2801D1012E07D0CB
:10A1D000607C092802D0607C0D2808D1012E06D0B1
:10A1E000607CFFF739FF6074204600F0B7FC012067
:10A1F000BDE8F88310B54FF480623249324800F070
:10A200000BFB4FF480623149294800F005FB00BF89
:10A2100000202F494870887008712E48C1F8080145
:10A220002D48C1F80C0100BF00BF00201F49487035
:10A2300001208870002008712848C1F808012848CA
:10A24000C1F80C0100BF80222649274800F0E4FA3B
:10A2500080222649184800F0DFFA00BF0020244978
:10A2600048708870012008712248C1F8080122480E
:10A27000C1F80C0100BF00BF00200E49487001204A
:10A28000887008711548C1F808011B48C1F80C0115
:10A2900000BF1A4B05220021022001F0C9FA10BDAF
:10A2A0000249C1F808017047EC1300207C0C002023
:10A2B0005C030020BC0F00209C0D00204CFC00081B
:10A2C000F40200206C0300204C0300206C070020E7
:10A2D0006C0B002079A1000857A50008CD7A000872
:10A2E0008FA40008AC0D00208C0D00202C0E002047
:10A2F000AC0E00202FA0000821A300081BA000081E
:10A3000010B504460622C749204600F0D3FA10BD16
:10A3100010B504460622C449204600F0CBFA10BD11
:10A320002DE9F04106460C4600BF04B967E000BFC6
:10A3300000BF204600F086FA012800D15FE000BF90
:10A340000622B849204600F065FB0546A56000BF1F
:10A35000204600F077FA012800D150E000BF072521
:10A36000A0682844401E6168B0FBF1F201FB1200B6
:10A370002168085C0830054400BFFA2D00D935E09B
:10A3800000BF00BF204600F086FAA84200D236E0A7
:10A3900000BF00BFA0682844801F6168B0FBF1F2D5
:10A3A00001FB12070623A04A3946204600F060FB55
:10A3B00000B91BE000BF00BF2A463146204600F02E
:10A3C000AEFA00B91BE000BFB57900BFA81C81B28E
:10A3D000F01D02F0BBFF00B111E000BF2A46F11DE5
:10A3E000304602F05EFF2846BDE8F081A068801D7F
:10A3F0006168B0FBF1F201FB1200A06000BF002019
:10A40000F2E72DE9F04106460F46154600BF06B9B2
:10A410003BE000BF00BF06228249304600F04AFA06
:10A4200000B932E000BFA9B2384602F08FFF0446FF
:10A4300000BFE9B2304600F0B0FA00B925E000BF35
:10A4400000BF2A463946304600F034FA00B91CE015
:10A4500000BF00BF2112304600F09FFA00B914E09F
:10A4600000BF00BFE1B2304600F097FA00B90CE03F
:10A4700000BF00BF06226C49304600F01BFA00B94D
:10A4800003E000BF0120BDE8F0810020FBE72DE9DB
:10A49000F04106460C4600BF04B95AE000BF00BFB9
:10A4A000204600F0F8F9062800D852E000BF062246
:10A4B0005C49204600F0AEFA0546A56000BF204684
:10A4C00000F0C0F9012800D143E000BFA068801D62
:10A4D0006168B0FBF1F201FB120021680D5C00BF66
:10A4E000012D00D12CE000BF0C3500BFFA2D00D9A2
:10A4F00026E000BF00BF204600F0CDF9A84200D200
:10A5000027E000BF00BFA0682844801F6168B0FB3F
:10A51000F1F201FB12070623434A3946204600F0B8
:10A52000A7FA00B90CE000BF00BF2A46314620461A
:10A5300000F0F5F900B90CE000BF2846BDE8F08155
:10A54000A068801D6168B0FBF1F201FB1200A06001
:10A5500000BF0020F2E770B504460E4631462046A3
:10A56000FFF795FF054665B1A01D02F0D0FD40B98B
:10A57000A07E00F11D05601906222B4902F066FE3F
:10A58000AD1D284670BDF0B5C1B006460F46144655
:10A5900000BF06B944E000BF00BFFA2C00D93FE07D
:10A5A00000BF2246394601A802F050FEA1B201A820
:10A5B00002F0CCFE054600BF06221A49304600F0E4
:10A5C00079F900B92CE000BF2A122046641C01A9C9
:10A5D0000A542046641C0D5400BFE1B201A802F0E9
:10A5E0006EFD00B91CE000BF9DF8044000BFFA2CCE
:10A5F00000D915E000BF00BF224601A9304600F097
:10A6000059F900B90CE000BF00BF062206493046E8
:10A6100000F050F900B903E000BF012041B0F0BDE7
:10A620000020FBE7C0070108C6070108014604E057
:10A630000A2000E0401E0028FCD10A1EA1F1010101
:10A64000F6D1704710B5044605E0FDF7D6FD40F29F
:10A65000E630FFF7EBFF201EA4F10104F5D110BD99
:10A660002DE9F04104460D46174628E0B4F5004FA9
:10A6700003D247F69C70854202D90020BDE8F081E4
:10A6800004F03F00C0F14000A84204D204F03F00B3
:10A69000C0F1400000E028460646F3B2A1B23A46B7
:10A6A000A020FCF7EFFB00B90BE03444AD1B3744AE
:10A6B0004FF0FF31A020FCF7D1FB00B901E0002DE5
:10A6C000D4D100BF0DB90120D8E7002211461046B1
:10A6D00000F07AF80020D1E72DE9F04104460D465C
:10A6E000174628E0B4F5004F03D247F69C70854228
:10A6F00002D90020BDE8F08104F03F00C0F1400025
:10A70000A84204D204F03F00C0F1400000E0284617
:10A710000646F3B2A1B23A46A020FCF7E6FB00B928
:10A720000BE03444AD1B37446FF07041A020FCF7C0
:10A7300095FB00B901E0002DD4D100BF0DB9012077
:10A74000D8E700221146104600F03EF80020D1E77D
:10A750002DE9F04104460D46174627E0B4F5004FB9
:10A7600003D247F69C70854202D90020BDE8F081F3
:10A7700004F03F00C0F14000A84204D204F03F00C2
:10A78000C0F1400000E028460646F3B2A1B23A46C6
:10A79000A020FCF7D2FB00B90AE03444AD1B6FF0F7
:10A7A0007041A020FCF75AFB00B901E0002DD5D183
:10A7B00000BF0DB90120D9E700221146104600F074
:10A7C00003F80020D2E7000070B506460C46154697
:10A7D00026B1012E09D0022E12D109E0022001F08B
:10A7E000F7FA0C4801F096F80BE0FDF707FD08E0DA
:10A7F0002DB12B4605220021084601F019F800E092
:10A8000000BF00BF24B1012C02D0204601F008FD9A
:10A8100070BD00008D6F0008034600BF0BB900201B
:10A82000704700BF19605A600020D860986001200E
:10A83000F6E700BF00B9704700BF00218160C1602A
:10A8400000BFF8E70146D1E90202904201D10120A0
:10A8500070470020FCE70146C868401C4A68B0FB0E
:10A86000F2F302FB13008A68904201D10120704785
:10A870000020FCE70146D1E90202904204D9D1E967
:10A880000202801A401E7047D1E901021044CA68D2
:10A89000801A401EF7E70146D1E90220904205D216
:10A8A0004A68C86810448A68801A7047D1E9022053
:10A8B000801AFAE72DE9F04104460F46154600BF1D
:10A8C00014B90020BDE8F08100BF00BF2046FFF7AB
:10A8D000D1FFA84201D20020F4E700BFE168606820
:10A8E000401AA84203D2E1686068401A00E0284696
:10A8F0000646E268216888183246394602F0A6FC0E
:10A90000AA1BB919206802F0A1FCE068284461681C
:10A91000B0FBF1F201FB1200E0600120D2E72DE96B
:10A92000F04104460E46154600BF14B90020BDE8AC
:10A93000F08100BF00BF2046FFF784FF012801D14E
:10A940000020F4E700BF00BF2046FFF7A4FFA842A5
:10A9500001D20020EBE700BFD4E90101401AA84270
:10A9600003D2D4E90101401A00E028460746A26854
:10A97000206881183A46304602F068FCEA1BF0195C
:10A98000216802F063FCA06828446168B0FBF1F222
:10A9900001FB1200A0600120C9E770B504460D4616
:10A9A00000BF0CB9002070BD00BF00BF2046FFF7FC
:10A9B00052FF012801D10020F5E700BFE1682068BF
:10A9C0004554E068401C6168B0FBF1F201FB1200E5
:10A9D000E0600120E7E710B503460C4600BF0BB965
:10A9E000002010BD00BF00BF1846FFF72BFF012855
:10A9F00001D10020F5E700BF99681868405C20701D
:10AA00009868401C5968B0FBF1F201FB1200986095
:10AA10000120E6E7F0B503460C46154600BF0BB132
:10AA200004B10DB90020F0BD00BF9968002212E00A
:10AA30001868405CA65CB04205D1501C0246A84292
:10AA400002D1521E0AE00022481C5E68B0FBF6F7F5
:10AA500006FB17000146D8688842E9D100BF586854
:10AA60000844801A5E68B0FBF6F706FB1700DAE7C9
:10AA7000F0B504460D4600BF206800B10AB90020B9
:10AA8000F0BD00BF00210EE068186668B0FBF6F765
:10AA900006FB17002668365C12F8017BBE4201D027
:10AAA0000020EDE7491C9942EED30120E8E70000C1
:10AAB00010B5802223492448FFF7AEFE10BD1CB517
:10AAC000072269462048FFF72AFF58B1DDF8033016
:10AAD0009DF802209DF801109DF8000002F012FE82
:10AAE00001201CBDFFF7E4FF0020FAE72DE9FC413F
:10AAF00005460C4616461F4605EB8500134901EB3B
:10AB00004000807918B9C72C16DDDD2C14DA8DF8D9
:10AB100000508DF801408DF80260CDF803700722D7
:10AB200069460948FFF7C6FEAFF26D03C82200214F
:10AB3000032000F07DFE02E0284601F0EAF9BDE8BE
:10AB4000FC810000DC100020CC100020F40200206A
:10AB500010B56049012001F07EFB10BD10B5044620
:10AB6000012020705B4809380068C4F8010059488A
:10AB700009384168E160D4F8060056490939496846
:10AB8000884202D0607901280CDD207D00F1150299
:10AB900021465148FFF7F7FC20B90022032102208B
:10ABA000FFF712FED4F806004A490939496888427D
:10ABB0000CD0207D00F1150221464848FFF7E3FC48
:10ABC00020B9002202210846FFF7FEFD10BDF0B5B6
:10ABD000BFB005460E4617466C4610222946601C3B
:10ABE00002F034FB3B480938407A401CC1B2394876
:10ABF0000938417221740422314604F1110002F037
:10AC000025FBF27839460DF1150002F01FFB2046B6
:10AC1000FFF7A4FF3FB0F0BDF0B585B004460D4688
:10AC200016461F4601208DF808004FF08830CDF8F9
:10AC300009000020ADF80D008DF800008DF80140EE
:10AC40008DF802508DF803603A46694601A8FFF777
:10AC5000BEFF05B0F0BDF0B591B005460E461446F6
:10AC60001F4601208DF804008DF805508DF8066010
:10AC70008DF807402246394602A802F0E7FA201D67
:10AC8000C2B201AB00210846FFF7C6FF11B0F0BD0C
:10AC90002DE9F04786B004460D4616461F46DDE90D
:10ACA0000F9ADDF838808DF80C40CDF80D50ADF8D6
:10ACB000116004208DF804008DF806808DF8057071
:10ACC0008DF80790524601A902A8FFF780FF06B051
:10ACD000BDE8F087F51300204C0300205C03002042
:10ACE0002520704710B5002001F072F810BD10B596
:10ACF000044601F067FA03F075FE02F077FC01F0FC
:10AD0000F4FCFFF7D5FEFA4802F02CFA00220721E6
:10AD10000220FFF759FDAFF233034FF47A7200219E
:10AD2000084600F085FD10BD2DE9F05F83460C4616
:10AD30001546002602F080FA0746D7F810A0D7F88B
:10AD40000080D7F804900020207042F2D87021785B
:10AD500068522078801C20702178DAF8080068504A
:10AD60002078001D2070E349D9F80000884201D105
:10AD7000C01701E0D9F80400217868502078001D40
:10AD800020702178D8F8000068502078001D2070CD
:10AD900008F1240605E031782278501C2070A9546F
:10ADA000761C30785A2802DC30783028F3DA01201B
:10ADB000BDE8F09F2DE9F04105460C46164602F02D
:10ADC0003BFA8046D8F81070A87850B1B5F8031057
:10ADD0007868884205D0B5F803004FF6FF718842C5
:10ADE00010D100202070B888217870522078801C03
:10ADF00020702178B86870502078001D20700120E4
:10AE0000BDE8F0811220FBE710B50446A0780428C5
:10AE100001DCA07808B90F2010BDD4F80300B449B4
:10AE2000091F0860042001F016FA08B91020F3E7A2
:10AE30000120F1E70346AE48001F006810600420BF
:10AE400008700120704770B504466568E67815B152
:10AE5000B5F1FF3F01D10E2070BD3146284601F00B
:10AE600032FAF9E770B506460C46154601F065FA68
:10AE7000286004202070012070BD03469C48001FFC
:10AE800040681060042008700120704710B5044627
:10AE9000E078052801DCE07808B90F2010BDE078E3
:10AEA0009349091F08720831012001F0D4F908B94B
:10AEB0001020F3E70120F1E703468D48001F007AD8
:10AEC000107001200870704770B50546A8781928E1
:10AED00006DCA878052190FBF1F201FB120008B115
:10AEE0000F2070BDA878052190FBF1F0C6B20024B8
:10AEF0000EE004EB8401E81C405C28B104EB840103
:10AF0000E81C405C052801DD0E20EAE7601CC4B2A5
:10AF1000B442EEDB002410E004EB8400401CE91C8A
:10AF20000A5804EB8401E81C405C401E7049891DEE
:10AF300001EB80000260601CC4B2B442ECDB6C49DF
:10AF4000891D142001F087F908B91020C9E70120F4
:10AF5000C7E7F0B503460C460025D878FF2827D16F
:10AF600000202070002120E06148801D00EB81005E
:10AF70000068C0B15E48801D00EB81000068401C85
:10AF800088B1481C05EB850690555948801D00EB9B
:10AF90008100066805EB8507501CC6512078401DCE
:10AFA0002070681CC5B2481CC1B20529DCDB13E067
:10AFB000D87810B1D878052801DD0F20F0BDD878F9
:10AFC0001070D878401E4A4EB61D06EB800000680F
:10AFD000C2F80100052020700120EFE710B50446FB
:10AFE000E07808B1012000E000204149091F88777E
:10AFF0001E31012001F02FF908B9102010BD0120E9
:10B00000FCE703463A48001F807F012800D100E09A
:10B010000020107001200870704770B50446A078B9
:10B02000052801DCA07808B90F2070BDE078C0B910
:10B03000012511E005EB85012F4A606842F81100F7
:10B0400005EB850002EB4001042001F024F908B96A
:10B050001020EAE7681CC5B2FDF7FEFCA842E9DC57
:10B0600018E0FDF7F9FCE178884201DC0E20DCE70E
:10B07000E17801EB8101204A606842F81100E07834
:10B0800000EB800002EB4001042001F004F908B954
:10B090001020CAE70120C8E72DE9F04104460D461B
:10B0A0001646A078032801DCA07810B90F20BDE86F
:10B0B000F081E078A0B90127002028700BE007EBB1
:10B0C00087000D4951F81000297870502878001D2C
:10B0D0002870781CC7B2FDF7BFFCB842EFDC16E061
:10B0E000FDF7BAFCE178884208DC0E20DFE70000BB
:10B0F000F0130020558778AAF4020020E07800EBD6
:10B100008000F74951F810003060042028700120B9
:10B11000CDE770B50446A078032801DCA07808B913
:10B120000F2070BDE078D0B9012513E0A08805EBB1
:10B130008501EB4A02EB4101888005EB850002EBBB
:10B140004000011D022001F0A6F808B91020E8E730
:10B15000681CC5B2FDF780FCA842E7DC1AE0FDF7E9
:10B160007BFCE178884201DC0E20DAE7A088E178F8
:10B1700001EB8101DA4A02EB41018880E07800EBC3
:10B18000800002EB4000011D022001F084F808B9A4
:10B190001020C6E70120C4E72DE9F04104460D4622
:10B1A0001646A078032801DCA07810B90F20BDE86E
:10B1B000F081E078A8B90127002028700CE007EBA7
:10B1C0008700C74901EB40008088297870522878B1
:10B1D000801C2870781CC7B2FDF73EFCB842EEDC3C
:10B1E00010E0FDF739FCE178884201DC0E20DEE753
:10B1F000E07800EB8000BA4901EB400080883080A5
:10B20000022028700120D2E770B50446A0780228F9
:10B2100001DCA07808B90F2070BDE078D0B9012515
:10B2200013E0207905EB8501AD4A02EB4101C871BD
:10B2300005EB850002EB4000C11D012001F02BF859
:10B2400008B91020E8E7681CC5B2FDF705FCA84264
:10B25000E7DC1AE0FDF700FCE178884201DC0E2013
:10B26000DAE72079E17801EB81019D4A02EB4101A7
:10B27000C871E07800EB800002EB4000C11D0120A6
:10B2800001F009F808B91020C6E70120C4E72DE94C
:10B29000F04104460D461646A078022801DCA0784D
:10B2A00010B90F20BDE8F081E078A8B9012700208F
:10B2B00028700CE007EB8700894901EB4000C0795A
:10B2C000297870542878401C2870781CC7B2FDF784
:10B2D000C3FBB842EEDC10E0FDF7BEFBE17888422C
:10B2E00001DC0E20DEE7E07800EB80007C4901EB1A
:10B2F0004000C0793070012028700120D2E770B57D
:10B300000446A078032801DCA07808B90F2070BD9E
:10B31000E07808BB01251AE0207905EB8501704A29
:10B3200002EB41010872607905EB850102EB4101F6
:10B33000487205EB850002EB400000F10801022095
:10B3400000F0A9FF08B91020E1E7681CC5B2FDF7BD
:10B3500083FBA842E0DC22E0FDF77EFBE178884237
:10B3600001DC0E20D3E72079E17801EB81015C4A12
:10B3700002EB410108726079E17801EB810102EB97
:10B3800041014872E07800EB800002EB400000F1E0
:10B390000801022000F07FFF08B91020B7E7012064
:10B3A000B5E72DE9F04104460D461646A07803287E
:10B3B00002DD0F20BDE8F081E07808B1A078F0B997
:10B3C00001270020287015E007EB8700444901EBB6
:10B3D0004000007A2978705407EB8700404901EB60
:10B3E0004000417A2878401C31542878801C28700D
:10B3F000781CC7B2FDF730FBB842E5DC17E0FDF77B
:10B400002BFBE178884201DC0E20D3E7E07800EBEB
:10B410008000334901EB4000007A3070E07800EBA7
:10B42000800001EB4000407A7070022028700120FB
:10B43000C0E770B50446A078052801DCA07808B9FB
:10B440000F2070BDE078D0B9012513E0207905EB1D
:10B450008501234A02EB4101887105EB850002EB6F
:10B460004000811D012000F016FF08B91020E8E718
:10B47000681CC5B2FDF7F0FAA842E7DC1AE0FDF758
:10B48000EBFAE178884201DC0E20DAE72079E178F6
:10B4900001EB8101124A02EB41018871E07800EB77
:10B4A000800002EB4000811D012000F0F4FE08B98D
:10B4B0001020C6E70120C4E72DE9F04104460D46FF
:10B4C0001646A078032802DD0F20BDE8F081E07861
:10B4D00008B1A078C0B90127002028700FE0000053
:10B4E000F402002007EB8700A34901EB40008079BC
:10B4F000297870542878401C2870781CC7B2FDF752
:10B50000ABFAB842EEDC10E0FDF7A6FAE17888422B
:10B5100001DC0E20D9E7E07800EB8000964901EBD2
:10B52000400080793070012028700120CDE72DE99E
:10B53000F04104460D461746E178207901EB0020E2
:10B5400086B26079822802DD0E20BDE8F081B6F572
:10B55000004F01DB1120F8E760793044B0F5004F6F
:10B5600002DD7042287001E06079287029783A463F
:10B570003046FFF775F808B91020E6E70120E4E748
:10B5800010B50446A07810B900F015FE08E0A078C8
:10B59000052805D1E1788800221D0421FFF79CF8D9
:10B5A000012010BD70B506460C46154629462046BA
:10B5B00000F046FE012070BD10B50446A0780128B9
:10B5C00001DD0F2010BDA078012805D1E07818B961
:10B5D000022000F0D5FD1CE0A07818B9012000F091
:10B5E000CFFD16E0FDF738FAE17888420FDDE0780C
:10B5F00000F069FDE07800F047FDE07800F01CFD08
:10B60000E07801F085F8E07802F06EFB01E00E20B2
:10B61000D8E70120D6E770B50446A07808B90F2016
:10B6200070BDE078022804D003280ED005281FD171
:10B6300014E02079611D02F0E3F90546012D02D1E5
:10B64000A0700220ECE72846EAE76179207902F051
:10B650008AFA012800D1E3E71520E1E76179207932
:10B66000A21D02F008FA012800D1D9E71620D7E779
:10B6700000BF00BF0E20D3E770B504460D46164646
:10B68000E078012802D0042814D109E061792079FA
:10B6900033462A4602F015FA012800D170BD0AE0AF
:10B6A0006179207933462A4602F041FA08B1012037
:10B6B000F4E700E000BF00BF1520EFE770B50446D7
:10B6C000A07808B90F2070BDE078022804D00328C4
:10B6D0000ED005281FD114E02079611D02F065FA13
:10B6E0000546012D02D1A0700220ECE72846EAE7CA
:10B6F0006179207902F037FA012800D1E3E71520BB
:10B70000E1E761792079A21D02F0A9FA012800D1B0
:10B71000D9E71620D7E700BF00BF0E20D3E710B54A
:10B720000446A07808B90F2010BDE07818B90120B0
:10B7300002F028F905E0E07802F0D6FA08B91720FF
:10B74000F2E70120F0E77CB506460D4614460020DE
:10B750000190FF200090694601A8FBF7A2F801289C
:10B7600008D1019820609DF8000020710520287004
:10B7700001207CBD1220FCE7F40200200020C94912
:10B780000860704730B503460C4619460AE0084683
:10B79000491CC44D2D1D05EB0010C068904201D11D
:10B7A000C8B230BDA142F2D30020FAE77FB505460A
:10B7B000BC4A1288BB4B5B88D118BA4A10882A460B
:10B7C000FFF7E0FF044694B3B6480088201A01282A
:10B7D00024D9601EB34A121D02EB001110226846E4
:10B7E00001F034FDAF4B1B88E31A1A01AD4B1E88E4
:10B7F0001B1D03EB06111B1F1B885B1CA94E361D6E
:10B8000006EB031001F04DFD311F0A88091D01EB05
:10B8100002101022694601F019FD00BFA1480088FE
:10B82000401CA049088008464088401E48807FBDD3
:10B830002DE9F0410746884615461E4600BF994847
:10B840000088984949880844142802DB0020BDE894
:10B85000F08100BF93480088924A5288811832468E
:10B860000020FFF78FFF00BB8E4B5B881A018D4BCA
:10B87000B3F800C01B1D03EB0C111B1F1B885B1CC6
:10B88000DFF820C20CF1040C0CEB031001F009FDF1
:10B89000844804880088401C82490880002181482F
:10B8A000001D00EB041001700CE03046FFF77EFF36
:10B8B0007C4800887B4A5288811832460020FFF776
:10B8C00061FF441E7748001D00EB04104770754867
:10B8D000001D00EB0410C6604FB905B96D1C4FF098
:10B8E000010800216F48001D00EB041001706D4835
:10B8F000001D00EB0410A0F802806A48001D00EB58
:10B900000410456000216748001D00EB04108160B1
:10B9100001209CE770B5054662480088614A52885C
:10B9200081182A460020FFF72DFF044604B35D4B23
:10B930001B885C4E768833441B1B1A01594B1B1D18
:10B9400003EB0411631E574E361D06EB031001F086
:10B95000A8FC301F0088A04205D2301F4088401E3E
:10B96000311F488004E04F480088401E4D49088040
:10B9700070BD7FB505464B4801882A460020FFF779
:10B9800001FF044654B3601E464A121D02EB00112B
:10B990001022684601F05AFC424B1B881B1B1A01FF
:10B9A000404B1B1D03EB0411631E3E4E361D06EB80
:10B9B000031001F076FC311F0988491E8AB2311F3D
:10B9C0000A80091D01EB02101022694601F03EFCBD
:10B9D000301F4088401C311F488000BF7FBD70B5BC
:10B9E0000024304C241D27E0207820B3E568002097
:10B9F0002070607830B1012807D002280FD00328CA
:10BA000016D10EE00120207000BF6188481E6080C2
:10BA100021B92846FFF77EFF103C0AE000BFA84787
:10BA200007E0A84718B92846FFF774FF103C00E06C
:10BA300000BF00BF00BF10341A480188001D00EB92
:10BA40000110A042D0D870BD1648001D0AE08168E0
:10BA5000491C81604268914203D300218160012129
:10BA6000017010300F490A88091D01EB0211814253
:10BA7000EDD8704770B504460A480088094A5288D4
:10BA8000811822460020FFF77DFE05460DB90020F3
:10BA900070BD04480088801CA84201DD0120F7E742
:10BAA0000220F5E75C11002070B50446002501F086
:10BAB000C3FB0646A07900F0030008B1212070BD49
:10BAC000B74800684FF00061D1F88813451A206824
:10BAD0008068A84201D92020F1E74FF4807200214C
:10BAE00004F1080001F0D4FBAE4A04217068FBF7B2
:10BAF00091FA22689168AA4A121F1068FBF748FA67
:10BB0000DDE7F8B504460025A748009001F094FB56
:10BB10000646A6480078F02844D12079022832D180
:10BB200007200059A24909688860A149E0680968AE
:10BB30004860E07A9E4988719E48096808609C4880
:10BB4000006880689A498979B0FBF1F098490968E2
:10BB50008968974A9279B1FBF2F302FB131109B19C
:10BB6000012100E000210844914988800846FFF740
:10BB70009BFF0546012804D1F1208C490870012063
:10BB8000F8BD2846FCE72079012814D16A46042133
:10BB90003069FBF73FFA8249091F0868FCF79AF9F8
:10BBA0000020EDE781480078F12801D10120E7E786
:10BBB00000207E4908700E20E2E72DE9F04104469E
:10BBC0000D4617467A488088401EA04201D3C82DF2
:10BBD00002DD0020BDE8F08161097548083050F8A9
:10BBE000210004F01F02012191400840F0B96C4887
:10BBF000001F00686E49897904FB01063A46294610
:10BC00003046FBF7E4F978B161096948083050F82B
:10BC1000210004F01F020121914008436209644998
:10BC2000083141F8220001E00020D3E70120D1E7EC
:10BC300030B502460B4600210020107014E04C097C
:10BC40005B48083050F8240001F01F050124AC4087
:10BC5000204040B923F8021B1078801C1070107827
:10BC6000642800DD04E0491C514880888842E6D8F9
:10BC700000BF107808B9012030BD0020FCE770B586
:10BC800005460C46A9B2464A121F106801F05EFB39
:10BC9000201A84B20CB9012070BD0020FCE710B559
:10BCA00086B001F0C9FA0446FBF769FA3D4908601D
:10BCB00001AA1421A068FBF7A2F9394A121F1268E1
:10BCC0004FF00063D3F88433D11A354A083A10682C
:10BCD000FBF75EF901AA1421A068FBF778F930B1EF
:10BCE000304A0C216068FBF772F906B010BD0020E5
:10BCF000FBE770B5064601F09FFA05466C692E48D1
:10BD0000066011E0FBF73BFA2168884205D12A4A18
:10BD100010212046FBF75BF970BD274A121D0C214C
:10BD2000201DFBF76CF910341D48001D0068A0426F
:10BD3000E8D8224A10212869FBF761F9184A121D38
:10BD400012684FF00063D3F88C33D11A2869FBF7DF
:10BD50001FF91A4A10212869FBF739F93046FFF715
:10BD6000C8FFD9E770B501F067FA05466C6906E0CF
:10BD7000FBF705FA2168884200D105E01034084835
:10BD8000001D0068A042F3D800BF103C206849287D
:10BD900004D320685D2801D8207870BD5320FCE7CB
:10BDA0008C030008B0120020A53CC35A6401002097
:10BDB00068010020558778AABC120020A01200203C
:10BDC00010B58E4B0122FF210020FEF744FF10BD6D
:10BDD00070B5054689480570012D02D14FF47A747B
:10BDE00000E00524864B224600210846FFF720FD8F
:10BDF00070BD30B5C1B004464FF4807101A803F0A6
:10BE00009BFBFCF729FE054619E014B1A54201D0C1
:10BE100005B1A4B98DF804509DF808100DF10A0081
:10BE20000A18C11E01A802F0C2FC8DF809009DF895
:10BE300008009DF807100844C0B28DF80800281EBD
:10BE4000A5F10101CDB2E0D19DF80800401CC0B2BF
:10BE50008DF808009DF808200DF10903002108461F
:10BE6000FEF7DAFE41B030BD10B5FCF7F5FD044633
:10BE700034E004EB8400634901EB4000007A30B306
:10BE800004EB4400604901EB8000007A012825D1D1
:10BE900004EB440051F82000401C04EB44015A4AD2
:10BEA00042F8210000EB800004EB440102EB810129
:10BEB0004968B1EB800F11D82046FFF79AFF0020A8
:10BEC00004EB4401504A02EB8101087206E00020B5
:10BED00004EB44014C4A02EB81010872601EC0B2BF
