:020000040800F2
:10000000600600207D0100088101000883010008CE
:100010008501000887010008890100080000000030
:100020000000000000000000000000008B0100083C
:100030008D010008000000008F01000891010008F8
:100040009301000893010008930100089301000840
:100050009301000893010008930100089301000830
:100060009301000893010008930100089301000820
:100070009301000893010008930100089301000810
:100080009301000893010008930100089301000800
:1000900093010008930100089301000893010008F0
:1000A00093010008930100089301000893010008E0
:1000B00093010008930100089301000893010008D0
:1000C00093010008930100089301000893010008C0
:1000D00093010008930100089301000893010008B0
:1000E00093010008930100089301000893010008A0
:1000F0009301000800F002F800F02CF80AA090E844
:10010000000C82448344AAF10107DA4501D100F0D2
:1001100021F8AFF2090EBAE80F0013F0010F18BF73
:10012000FB1A43F00103184744010000540100008A
:100130000023002400250026103A28BF78C1FBD8F0
:10014000520728BF30C148BF0B6070471FB51FBDA5
:1001500010B510BD00F031F81146FFF7F7FF00F0C1
:100160006FF800F04FF803B4FFF7F2FF03BC00F0A4
:1001700057F8000080F308887047000008480047DF
:10018000FEE7FEE7FEE7FEE7FEE7FEE7FEE7FEE747
:10019000FEE7FEE703480449044A054B70470000A8
:1001A000F5000008600000206006002060020020CA
:1001B00060020020704770477047754600F02CF8C9
:1001C000AE4605006946534620F00700854618B044
:1001D00020B5FFF7DFFFBDE820404FF000064FF0ED
:1001E00000074FF000084FF0000B21F00701AC466C
:1001F000ACE8C009ACE8C009ACE8C009ACE8C0098B
:100200008D46704710B50446AFF300802046BDE828
:100210001040FFF7A8BF0000004870470000002012
:1002200001491820ABBEFEE726000200704770B5FA
:10023000044625462868FFF79DFF6868804770BD23
:1002400008480468084A2168914203D105490C31E5
:10025000096802E00349091D09680846FFF7E7FF3E
:1002600000BFFEE784030008558778AA7C020008D7
:0C027000000000206006000030010008C3
:04000005080000F5FA
:1002F00011270000000000000900000000000000BD
:1003000000000000000000000000000000000000ED
:0B0310000000000049504C3630383629
:1003800000000008000400080008000800600008E1
:0C03900000640008008001080000020862
:0804040010270000D08F00005A
:020000040800F2
:10080000101F0020D1090008D9090008DB090008E1
:10081000DD090008DF090008E10900080000000008
:10082000000000000000000000000000E3090008D4
:10083000E509000800000000E7090008CD2B0008CA
:10084000EB090008EB090008EB090008EB090008B8
:10085000EB090008EB090008EB090008EB090008A8
:10086000EB090008EB090008EB090008EB09000898
:10087000EB090008EB090008EB090008EB09000888
:10088000EB090008EB090008EB090008EB09000878
:10089000EB090008EB090008EB090008EB09000868
:1008A000EB090008EB090008EB090008EB09000858
:1008B000EB090008EB090008EB090008EB09000848
:1008C000EB090008EB090008EB090008EB09000838
:1008D000EB090008A12E0008EB090008EB0900084D
:1008E000FD100008EB090008EB090008EB090008FF
:1008F000EB09000800F002F800F05AF80AA090E8AE
:10090000000C82448344AAF10107DA4501D100F0CA
:100910004FF8AFF2090EBAE80F0013F0010F18BF3D
:10092000FB1A43F001031847A4310000C431000052
:100930000A444FF0000C10F8013B13F0070408BF05
:1009400010F8014B1D1108BF10F8015B641E05D0A3
:1009500010F8016B641E01F8016BF9D113F0080F58
:100960001EBF10F8014BAD1C0C1B09D16D1E58BFEA
:1009700001F801CBFAD505E014F8016B01F8016B21
:100980006D1EF9D59142D6D3704700000023002494
:1009900000250026103A28BF78C1FBD8520728BF8F
:1009A00030C148BF0B6070471FB51FBD10B510BDEB
:1009B00000F027FA1146FFF7F7FF02F0BDFE00F046
:1009C00045FA03B4FFF7F2FF03BC00F04DFA000054
:1009D0000948804709480047FEE7FEE7FEE7FEE7D3
:1009E000FEE7FEE7FEE7FEE7FEE7FEE7044805490F
:1009F000054A064B70470000192C0008F50800084E
:100A000010190020101F0020101B0020101B0020B8
:100A1000EFF3108072B6704780F31088704730BFD4
:100A200080F3088870474FF0010080F31388024874
:100A30000249016000BFFEE70CED00E00400FA058A
:100A400008B50146002000BF0CE00A5C02F0F0028D
:100A5000C0F10303CB5C03F00F031A430DF8002031
:100A6000421CD0B20328F0DD002004E01DF8002075
:100A70000A54421CD0B20328F8DD08BD03784B406D
:100A8000037043785340437083784B408370C3783E
:100A90005340C3707047F8B513460022072900DCA5
:100AA00001B9F8BD012B60D10578C1F10806012418
:100AB000B440641E2C408C404678C1F108070125E3
:100AC000BD406D1EC5F1FF053540C1F10806354139
:100AD0002C43E4B28DF800404578C1F108060124AA
:100AE000B440641E2C408C408678C1F10807012573
:100AF000BD406D1EC5F1FF053540C1F10806354109
:100B00002C43E4B28DF801408578C1F10806012438
:100B1000B440641E2C408C40C678C1F10807012502
:100B2000BD406D1EC5F1FF053540C1F108063541D8
:100B30002C43E4B28DF80240C578C1F108060124C7
:100B4000B440641E2C408C400678C1F10807012592
:100B5000BD406D1EC5F1FF053540C1F108063541A8
:100B60002C43E4B28DF8034053E0022B50D1C578FA
:100B700001248C40641E2C40C1F10805AC4006786D
:100B800001258D406D1EC5F1FF0535400D412C43FB
:100B9000E4B28DF80040057801248C40641E2C409E
:100BA000C1F10805AC40467801258D406D1EC5F1A8
:100BB000FF0535400D412C43E4B28DF801404578E6
:100BC00001248C40641E2C40C1F10805AC4086789D
:100BD00001258D406D1EC5F1FF0535400D412C43AB
:100BE000E4B28DF80240857801248C40641E2C40CC
:100BF000C1F10805AC40C67801258D406D1EC5F1D8
:100C0000FF0535400D412C43E4B28DF8034000E070
:100C100047E7002204E01DF802408454541CE2B26D
:100C2000032AF8DD00BF3CE710B504462046FFF775
:100C300007FF6C4802786C4801782046FFF72BFFCD
:100C40006A4802786A4801782046FFF717FF65482E
:100C50004278654841782046FFF71DFF2046FFF7A0
:100C6000EFFE62484278624841782046FFF706FF6F
:100C70002046FFF7E5FE5D4882785D488178204692
:100C8000FFF7FCFE57488278574881782046FFF7E7
:100C900002FF5648C2785648C1782046FFF7EEFE5C
:100CA0005048C2785048C1782046FFF7F4FE2046ED
:100CB000FFF7C6FE10BD30B50346002000BF07E0B9
:100CC0001C5C00F00305555D6C401C54441CE0B2F4
:100CD0008842F5DB30BD70B504460D4629462046F6
:100CE00000F092F908B9012070BD0020FCE770B552
:100CF00004460D46042229463E4802F02EFD28B93E
:100D000004223D49204602F039FD07E0042229462D
:100D1000204602F033FD2046FFF786FF70BD70B518
:100D200004460D4600262A462146A01D02F032FD4B
:100D300005F1080020700220607004222D49A01CDB
:100D400002F028FD2C4A2946A01DFFF7B4FF2078A9
:100D5000801E81B2204600F057F9064631122078F5
:100D6000801E21542078401E2654012070BDF8B505
:100D700004462178204600F047F908B10220F8BD6A
:100D800025786678022E1BD1A11C6846FFF7AFFFBD
:100D9000A5F10800C1B26A46A01DFFF78CFFA5F1BE
:100DA0000800C1B2A01DFFF796FF38B1A5F10802F7
:100DB000A11D204602F0EEFC0020E0E70120DEE766
:100DC0000320DCE710B5044604222146094802F05E
:100DD000D5FC04222146084802F0D0FC0648FFF763
:100DE00023FF10BDC03A0008BC3A0008C83A00080A
:100DF000C43A000860010020640100207047704779
:100E00007047754600F02CF8AE460500694653461B
:100E100020F00700854618B020B5FFF7E7FDBDE8D4
:100E200020404FF000064FF000074FF000084FF051
:100E3000000B21F00701AC46ACE8C009ACE8C009E2
:100E4000ACE8C009ACE8C0098D46704710B504464F
:100E5000AFF300802046BDE81040FFF7B2BD0000B0
:100E600000487047AC18002001491820ABBEFEE7CF
:100E7000260002007047000010B500F067FB006913
:100E800005490068884205D004480068BDE8104064
:100E900000F01ABE10BD0000A53CC35A9003000824
:100EA00070B500F053FB44694FF0006505E000F0B9
:100EB00059FA2168884204D01034D5F89003A04232
:100EC000F5D8103C074A1021204601F063F820684D
:100ED000A0F14901142901D8C0B270BD01495320C5
:100EE000086070BD7C18002070B50446204D28892C
:100EF00000280DD1082C00D3012401F0CBFF1D499F
:100F000031F81410B0FBF1F201FB1200801C2881B3
:100F10000221012000F0E0FA4FF4C872002480B1F1
:100F20002C81EC80A888401C80B2A880B0F57A7F24
:100F300005D9AC80104B0021032001F0AFFE00204A
:100F400070BD2889401E0004000C2881F7D1E88874
:100F5000401C80B2E880642805D9EC80064B002153
:100F6000032001F09BFE2C81AC80012070BD0000AD
:100F700040010020A03A0008612A000870B5002155
:100F8000D0F80B401E4DC1EBC10305EB43021668C0
:100F9000A6421CD10021C47B5618367AA64201D144
:100FA000002070BD491CC9B20529F5D3517B491CED
:100FB000C9B20524B1FBF4F604FB161151730822E3
:100FC000294402EB4302C07B8854012070BD491CB8
:100FD000C9B21429D7D30B4B1978491CC9B21422B2
:100FE000B1FBF2F402FB14111970C1EBC10105EB66
:100FF0004101C27B0A72D0F80B000860012070BD6D
:10100000A80500202400002070B500230024002241
:10101000074E08E0855C5D4036F81550EBB2634042
:101020002C0A521C92B28A42F4D344EA032070BDC7
:10103000EC37000810B50549054800F061FFBDE830
:1010400010400449044800F05BBF00007802002013
:10105000F806002098040020180F002006E0052163
:10106000491E89B20029FBD1401E80B20028F6D16A
:101070007047000070B500F06FF980B24FF48072D5
:101080004FF4C07354005D009600402811D08028B2
:101090000FD090420DD098420BD0A04209D0A84268
:1010A00007D0B04205D0124881690068081AC0F321
:1010B0008F20104998420DD006DC40280DD08028A2
:1010C0000FD0904211D105E0A04203D0A84201D038
:1010D000B0420AD10848086070BD0748303808603F
:1010E00070BD05481838086070BD0020086070BDEC
:1010F0008003000838010020883A000810B5044831
:1011000000F0F6FF03494FF48060086010BD000056
:10111000E80600201404014070B58B088C07240FEA
:10112000124D2E6846F001062E609D00104B2B4498
:101130009D680F26A640B5439D609D68A04005436D
:101140009D600C4B1C680120884004431C60D10743
:1011500004D0084B0C33196801431960910704D57A
:10116000044908310A6802430A6070BD2038024011
:101170000000014000040140F0B5C1B0064614462D
:10118000002E32D0FA2C30D8224601A802F0F6FA0E
:10119000A1B201A8FFF738FF0546FFF739FC074663
:1011A00006221349304602F07EFAF0B12A0A01A85D
:1011B000611C02554A1C4554D1B2FFF7B0FDA0B1E5
:1011C0009DF80420FA2A10D801A9304602F06BFAE3
:1011D00058B106220749304602F065FA28B1384670
:1011E000FFF71AFC012041B0F0BD0020FBE7000032
:1011F000EC390008F239000870B500F059FE1949C1
:1012000000204870887001224A71174DC1F80C51B6
:10121000164BC1F8083101F5887148708A704A711F
:10122000134AC1F80C21134CC1F8084101F588712B
:101230004870887002244C71C1F80C51C1F8083113
:1012400001F58871487088704C71C1F80C210A480A
:10125000C1F80801BDE8704005220021074B0220BB
:1012600001F01CBD68010020E9340008411D0008A0
:1012700051340008A51E0008FD1E000835100008A6
:1012800070B505464FF40056304600F079F8A8B91D
:101290000E4C206840F400702060206840F0080088
:1012A000206000202860304600F06AF8216821F0B4
:1012B00008012160216821F40071216008B100203B
:1012C00070BDBDE8704000F04FB80000043C024023
:1012D00000224021104602F088B838B504466A461C
:1012E0000121204600F0D0FE9DF80010491C00911D
:1012F0006A460121204602F045F838BD0122FF214F
:10130000014B002000F05FBD3601002010B50C46F7
:10131000002804D0012809D0022811D109E00220B8
:1013200001F0CEFF0B4801F0FFFC09E000F0C4FB28
:1013300006E02AB1134600210522084601F0AEFC62
:10134000002C06D0012C04D02046BDE81040FFF749
:10135000C4BF10BDC51A00080148008870470000CE
:101360004C00F81F0020704704480168890703D526
:10137000022101600120704700207047183C0240A4
:101380000A4900E0401E10B10A68D207FAD140B104
:10139000086810F4F85F06D04FF4F8500860012098
:1013A000704703207047002070470000183C02403F
:1013B0000948016889070ED50068C00705D00648AE
:1013C00006490830016006490160034805490C30B0
:1013D0000160054901607047043C0240EFCDAB89D4
:1013E00005040302BFAE9D8C161514132DE9F041C0
:1013F00005460C4616464FF440573846FFF7C0FFE7
:1014000038B108E001CE01C5241F3846FFF7B8FF08
:1014100008B9002CF6DC14B10020BDE8F0810120F1
:10142000FBE700000248016841F0020101607047DB
:10143000043C02402DE9F0470024254B03EB8023B8
:10144000244E37684FF0010808FA00F52F4202D108
:101450003068284330604FF0030902F0030531E0A3
:1014600008FA04F70F422CD0D3F800C0600009FA44
:1014700000F62CEA060C05FA00FA4AEA0C0AC3F850
:1014800000A0012D01D0022D15D1D3F808C02CEAFF
:10149000060CC2F3C10A0AFA00FA4AEA0C0AC3F8B7
:1014A00008A0B3F804C02CEA070CC2F38007A740D9
:1014B00047EA0C079F80DF68B743560986403E43E2
:1014C000DE60641C31FA04F0CAD1BDE8F087000088
:1014D000000002401C38024002460020034B03EB90
:1014E0008222128A0A4200D0012070470000024086
:1014F000024A02EB80204183704700000000024056
:10150000024A02EB80200183704700000000024085
:101510000C4902280AD0032088770220C87701F1FD
:1015200028000862103048621A3870470920087095
:10153000082048700448C1F802001030C1F80600C5
:1015400000487047C0060020080F002001480068CE
:10155000704700003801002070B50D461446FFF7B3
:101560009FFC20700120287070BD70B506460D46A6
:101570001446FFF7EBFF026900687379012B03D073
:10158000022B0FD00E2070BD0B2129709188218075
:101590000168C4F802109168C4F80610007AA072BD
:1015A000012070BD1E2070BD70B506460C46154664
:1015B000FFF7CCFF0169F07848B1B0884A688242F1
:1015C00005D0A0F57F42FF3A01D0122070BD002067
:1015D0002070888828802078801CC0B2207089689C
:1015E00029502078001D2070012070BD10B50B46D9
:1015F0000D4900780978884214D10C4C2078F128E4
:1016000005D0F2280CD000202070222010BD1146F9
:10161000184601F0B1FD08B1F2202070012010BD84
:10162000012010BD032010BD2D0000202C00002043
:1016300070B504460D46164600F036FA2379F02BB5
:1016400003D0F22B08D00E2070BD3246294620462A
:10165000BDE87040FFF789BF324629462046BDE805
:101660007040FFF7C3BF00002DE9F0410C4615465E
:10167000FFF76CFF026901684368002020704FF695
:10168000FF7028802078801CC0B22070134F16682D
:10169000BE4202D14FF0FF3200E092682A5020781B
:1016A000001DC0B220705A682A502078001DC0B2B8
:1016B000207051F8242B2A502078001D207004E05F
:1016C0002078431C23702A54491C0A78A2F1300068
:1016D0002A28F5D90120BDE8F0810000A53CC35AB5
:1016E00010B50446FFF732FF8168104A086890423F
:1016F00013D14868421C10D078B1B0F1443F0CD0EF
:10170000B0F1883F09D00A4A904206D08968C9439F
:10171000884202D1A04205D105E00648416EA142AF
:1017200001D0406E10BD002010BD00005A3CC3A582
:10173000424553540000F81F10B5044640210120D3
:10174000FFF7D6FE0220FFF789FC24B1802101209B
:10175000FFF7D6FE03E080210120FFF7C9FE02203B
:10176000FFF77CFC40210120FFF7CAFE0220FFF7B3
:1017700075FC4021BDE810400120FFF7B9BE10B54F
:101780003922C0210120FFF755FE80210120FFF7FB
:10179000B7FE4021BDE810400120FFF7B1BE70B593
:1017A00006460024202280210120FFF743FE002569
:1017B00040210120FFF79CFE0220FFF74FFC402153
:1017C0000120FFF79DFE0220FFF748FC6006040E93
:1017D00080210120FFF780FE08B1641CE4B20220E2
:1017E000FFF73CFC6D1CEDB2082DE1D34021012038
:1017F000FFF77EFE0220FFF731FC39228021012015
:10180000FFF718FE80210120FFF77AFE0220FFF784
:1018100025FC3046FFF790FF204670BD70B50546A9
:1018200040210120FFF764FE0220FFF717FC00248F
:10183000280604D580210120FFF762FE03E0802105
:101840000120FFF755FE6806050E0220FFF706FC93
:1018500040210120FFF754FE0220FFF7FFFB40214B
:101860000120FFF745FE0220FFF7F8FB641CE4B2FD
:10187000082CDDD3BDE8704000F031B810B58021F0
:101880000120FFF73DFE40210120FFF739FE022035
:10189000FFF7E4FB80210120FFF72AFE0220FFF77B
:1018A000DDFB4021BDE810400120FFF721BE10B54F
:1018B00080210120FFF71CFE0220FFF7CFFB402113
:1018C0000120FFF71DFE0220FFF7C8FB8021012049
:1018D000FFF716FEBDE810400220FFF7BFBB70B552
:1018E0000024202280210120FFF7A4FD0220FFF721
:1018F000B5FB40210120FFF703FE0220FFF7AEFBFE
:101900004FF4FA750EE0641CA4B2AC420AD9392235
:1019100080210120FFF78EFD80210120FFF7F0FDDF
:10192000002070BD80210120FFF7D6FD0028EAD1FC
:1019300040210120FFF7DCFD0220FFF78FFB392259
:1019400080210120FFF776FD80210120FFF7D8FDDF
:101950000220FFF783FB012070BD70B505460C46E1
:10196000FFF78CFF2846FFF759FF08B9641EF7D12F
:10197000FFF79DFF0CB1012070BD002070BD2DE967
:10198000F04107460E4615461C46FFF777FF3846DE
:10199000FFF744FFF0B1300AFFF740FFD0B1F0B2DB
:1019A000FFF73CFFB0B1FFF769FF47F00100FFF719
:1019B00035FF38B90EE00020FFF7F1FE05F8010B06
:1019C000641EE4B2012CF6D8641EE4B20120FFF7D5
:1019D000E6FE2870FFF76BFF14B10020BDE8F08130
:1019E0000120FBE72DE9F04107460E4615461C464F
:1019F000FFF744FF3846FFF711FF88B1300AFFF7C1
:101A00000DFF68B1F0B2FFF709FF38B908E015F82B
:101A1000010BFFF703FF18B1641EE4B2002CF6D1EE
:101A2000FFF745FF14B10020BDE8F0810120FBE77E
:101A30002DE9F04107460D4616461C46FFF71EFFEE
:101A40003846FFF7EBFE80B1280AFFF7E7FE60B1EA
:101A5000E8B2FFF7E3FE30B907E03046FFF7DEFEFD
:101A600018B1641EE4B2002CF7D1FFF720FF14B1C7
:101A70000020BDE8F0810120FBE70000084A45F2A4
:101A80005553136050609160580010604CF6CC4084
:101A900010600021034B4FF44872022001F0FEB8A1
:101AA00000300040A91A000802494AF6AA2008603E
:101AB0007047000000300040014801F035B90000D7
:101AC000A91A00087047000010B5044600680649CE
:101AD0000840B0F1005F06D12068FEF7A1FF606802
:101AE000BDE81040004710BD0000FE2FF0B50546D0
:101AF0000F4614461E46304600F018F8C6F10400A2
:101B000085400F20F04038402843000104F1E021D7
:101B100081F8000404F01F01012088406109890058
:101B200001F1E021C1F80001F0BD0000072181436F
:101B30000902054A10684FF6FF031840034B18438B
:101B400008431060704700000CED00E00000FA054B
:101B500010B50549054800F0D3F9BDE81040044927
:101B6000044800F0CDB9000068010020E80600201C
:101B700088030020080F00202DE9F843044688461A
:101B80000D266078DFF8F09000EB800009EB800014
:101B9000C56800270020009001F01EFA6178884295
:101BA00062D9A178286888424FD1207802280DD0C8
:101BB00004280BD0072809D0092807D005282CD0E5
:101BC0000B282AD00D2828D00C264DE0A86810B389
:101BD00060782A4901EBC000807998B1E278611CF5
:101BE000D21CA01C01F0D6FD84F80180A968601CFD
:101BF000884706460322A11C601C01F0CBFD022E83
:101C000002D031E009262FE02868CF2800D901262C
:101C1000E078009028E00A2626E0E86898B1E278AB
:101C2000611CD21CA01C01F0B5FD84F80180621D6E
:101C3000EB686946601C984706460322A11C601C9D
:101C400001F0A8FD10E00B260EE0607800EB8000AC
:101C500009EB8000006980477F1CFFB2B84203D9BE
:101C600055F8100FFF289CD99DF80000401CE0702B
:101C700026713046BDE8F883A83A000858010020D4
:101C800070B504460846FFF743FC05460120207066
:101C9000184E3068C4F801007068E060D4F806009F
:101CA0007168884202D0607901280CD9227DD5F86C
:101CB000020015322146FFF75FFA20B92978002289
:101CC0000220FFF723FBD4F80600716888420FD08A
:101CD000227DD5F8060015322146FFF74DFA00287F
:101CE00006D16978BDE8704000220220FFF70EBBE4
:101CF00070BD00008C18002070B5C0B00E461546AF
:101D000001AC01461022601C01F038FD0B49487AF5
:101D1000401C48728DF814000422314604F1110071
:101D200001F02CFDF27829460DF1190001F026FD95
:101D300001212046FFF7A4FF40B070BD8C180020A1
:101D4000F8B50E4610F8015C841D00F11B0104F18A
:101D5000110300911F46621C314600F069F801280A
:101D60001ED129463846FFF707FF0246032A17D03F
:101D7000607C02280DD005280BD0072801D00B2845
:101D800001D1012A05D0092801D00D2808D1012A46
:101D900006D000F007F8607429462046FFF770FF70
:101DA0000120F8BD801E0C280BD2DFE800F0060AE7
:101DB0000A080A060A060A080A08032070470620CD
:101DC00070470020704710B590B0144601228DF87E
:101DD00000208DF801008DF802108DF80340224696
:101DE000194601A801F0CAFC241D0021E2B26B468D
:101DF000084600F002F810B010BD10B586B00124FE
:101E00008DF80C404FF08834CDF80D400024ADF82B
:101E100011408DF804408DF805008DF806108DF8FE
:101E200007201A4601A902A8FFF766FF06B010BDF9
:101E300070B51446184D20682968884206D0174AA4
:101E4000904203D0491C01D0042070BD2046FFF70A
:101E500095F830B120791249012804D005280CD01A
:101E60000EE0082070BDD4F805006A68904201D0E9
:101E7000062070BD0020486007E0D4F8050008B1D6
:101E80000D2070BDD4F80B004860D4F80B00C4F8E6
:101E90000500012070BD00008C18002042455354FD
:101EA000240000200C39C9B2801D00F0B5BD00002F
:101EB00010B50E494FF480642246A1F1200001F0D4
:101EC00042FB0B492246A1F5826001F03CFB094927
:101ED0002246A1F1200001F036FB22460649BDE86A
:101EE0001040A1F5826001F02EBB00000807002021
:101EF000080B0020280F00202813002001F044B810
:101F000070B50C4600256178002902D0012922D144
:101F10000EE00146D4F80C21A01D904710F0FF0000
:101F2000207014D02571A078012811D00120E07014
:101F3000D4F8083122792178A01D984728B1E0789B
:101F4000401E10F0FF00E07005D00120607070BDF1
:101F50000248007AEBE7657070BD00008C18002025
:101F600070B505460C46FFF723FA4FF4807603E080
:101F7000A4F5807405F580752846FFF781F908B14E
:101F8000B442F5D8FFF74EFAB44201D8012070BD33
:101F9000002070BD8B0707D021F0030141F0040140
:101FA00002E008C808C2091F0029FAD101207047C1
:101FB00070B505460C461646E10700D0641CFFF7D5
:101FC000F7F9324621462846FFF710FA0446FFF794
:101FD00029FA204670BD000030B5274B196801F082
:101FE0000C01264C042928D0082928D00C2929D0F6
:101FF000191F0968C1F34231491C4FF400428A405D
:102000000260196801F0F00109091D4A525C01687B
:10201000D14041601A6802F4E062120A184D113D85
:10202000AA5C21FA02F282601A6802F46052D20AB3
:10203000AA5CD140C160046130BD0460E1E7114990
:102040000160DEE719680E4AC1F38341093A515C29
:102050001A68C2F38152521C1D68ED0305D4074D66
:102060006943B1FBF2F10160CBE7064D6943B1FB77
:10207000F2F10160C5E70000083802400024F400D6
:102080001100002000127A002DE9F04105460C46AF
:10209000174620E0B5F5004F03D247F69C70844206
:1020A00002D90020BDE8F08105F03F00C0F14006F4
:1020B000A64200D32646F3B2A9B23A46A020FFF7C3
:1020C0005EFC50B13544A41B37444FF0FF31A020D3
:1020D000FFF743FC08B1002CDCD134B100221146DB
:1020E0001046FFF713F90020DCE70120DAE70000D3
:1020F0002DE9F04F91B0834600253227A946424E84
:102100004FF4806A71E028466D1CEDB2052805D9B0
:10211000052000F0D1FA86F801906CE00021032040
:1021200000F060F980460021042000F05BF95FEACE
:10213000C87002D086F801905DE05FEAC86019D5EA
:10214000707810B9584601F0F1FA002400217F2080
:1021500000F048F90146584601F08AFA641CE4B2DE
:10216000322CF3D37078CD2802D986F8019042E062
:10217000323070705FEA887037D500214B2000F054
:1021800031F904460DF104080DE000217F2000F034
:1021900029F901467078B0FBF7F207FB120208F844
:1021A0000210401C70707078A042EED3322C02D81E
:1021B000584601F0BBFAB4FBF7F007FB104020B122
:1021C000B4FBF7F007FB104200E0322201A95846A9
:1021D00001F069FA584601F003FB86F8019020B936
:1021E000002203210220FFF791F851460020FFF75B
:1021F00073F9002887D07078002801D100F008F921
:1022000011B0BDE8F08F000040010020014901201D
:1022100088707047400100202DE9F04107460D46C7
:1022200000F052FA00F01EF92946BE2000F0DAF85C
:102230004FF480581BE0444603E0142001F07AF983
:10224000641E0021032000F0CDF8800601D4002C8C
:10225000F3D1002607E017F8011BFF2000F0C2F8B9
:102260006D1EEDB2761C322E01D2002DF3D1002D61
:10227000E1D10921872000F0B5F84FF4C87001F0D2
:1022800059F902E0B8F101080ED00021032000F056
:10229000A9F8400702D4B8F1000FF3D100F014FA06
:1022A000BDE8F04100F0B4B8042000F005FAF5E70D
:1022B0002D48016841F480410160016821F48041AA
:1022C0000160001D016841F00201016026480C30E8
:1022D000016841F4804101602448016821F07C419B
:1022E0000160016841F028410160001D018821F46E
:1022F00060410180001D016821F07C41016001689E
:1023000041F07C410160001D016821F07C410160C9
:10231000016841F0A8410160144824300168C1F30C
:10232000130101600168124A1143016011480188DC
:102330000180018841F400710180018841F48071BD
:102340000180018841F00401018001880180018839
:1023500041F00801018001880180018841F04001BD
:102360000180FF2000F008B8183802400004024045
:10237000000050550038004010B500214FF6FE73A4
:102380000E4A06E00C46491C89B29C4201D300204B
:1023900010BD1488A407F5D5084C241D208000200A
:1023A00006E00146401C80B2994201D3002010BDD6
:1023B0001188C907F5D02088C0B210BD0838004088
:1023C00000F007010648028822F0380202800288E5
:1023D00042EAC1010180018841F04001018070475B
:1023E0000038004070B506460D464FF48054214633
:1023F0000120FFF77DF83046FFF7BEFF2846FFF7C4
:10240000BBFF054621460120FFF77AF8284670BD3C
:1024100010B505218720FFF7E5FF02218E20FFF789
:10242000E1FF02218820FFF7DDFF00218820FFF770
:10243000D9FF13218520FFF7D5FF80218620FFF7E4
:10244000D1FF00210320FFF7CDFF00210420FFF77B
:10245000C9FF0348016841F48061016010BD0000BC
:102460000004014010B503218820FFF7BBFF0821BD
:102470008820FFF7B7FF0121BDE810408E20FFF74D
:10248000B1BF00000CB50022019200922D490868EE
:1024900040F4803008604FF4A043086800F4003036
:1024A00000900198401C0190009810B90198984242
:1024B000F3D10868800302D50120009000E000926B
:1024C000009801283CD12048026842F004020260D2
:1024D000026842F002020260026842F001020260F9
:1024E00018482430026842F080520260C214174833
:1024F00002604268D206FCD41248083002680260CA
:102500000268026002680260026822F47D020260D2
:10251000026842F4110202600A6842F080720A60A6
:102520000A689201FCD5016821F00301016001688D
:1025300041F0030101600168C1F381010329FAD16F
:102540000CBD000000380240003C0240007000401A
:1025500010B50446E078012801D00F2010BD207985
:102560004938152801D30E2010BDFEF799FC01460D
:102570002079814209D000F0A5FD40B10021054B32
:102580004FF44872084600F089FB012010BD12206C
:1025900010BD00001527000810B5184A0178127800
:1025A000914229D1164C2178F22905D0F32921D066
:1025B00000202070222010BD401D01794279514039
:1025C0004A404271514001718188006800F06AFD03
:1025D000012811D100F0B0FD70B1F3202070FFF799
:1025E0006BFA084B4FF448720121002000F056FBB3
:1025F000012010BD012010BD032010BD2D000020C2
:102600002C000020270A000810B50446FFF74CFAFA
:102610000D4920780978884214D10C490878F128AE
:1026200005D0F2280CD000200870222010BDE078E0
:10263000801EC1B2A088A21DBDE8104000F0C2BD3E
:10264000012010BD032010BD2D0000202C00002013
:1026500010B50446FFF728FA2179F12903D0F329B0
:1026600006D00E2010BD204600F0D8FDC0B210BD2F
:102670002046BDE81040FFF78FBF10B50446E07854
:10268000012801D1217961B178B100F0A5FC0146A2
:10269000207981420ED900F0D9FC207900F0ACFC01
:1026A00006E0022000F054FE02E0012000F050FE9F
:1026B000012010BD0E2010BD0146024A0220FEF787
:1026C00025BE00001527000810B51148016821F447
:1026D0008061016000218E20FFF784FE01218720A8
:1026E000FFF780FE00218520FFF77CFE0021862079
:1026F000FFF778FE00210320FFF774FE002104207D
:10270000FFF770FEBDE81040022000F005BF00009A
:102710000004014010B500F047F94FF4805101204A
:10272000FEF7EEFE40210020FEF7EAFE022000F058
:10273000F3FE40210020FEF7DBFE322000F0ECFE2D
:1027400000210320FFF74EFE00210420FFF74AFE80
:1027500080218720FFF746FE022000F0DDFE0021E9
:102760008720FFF73FFE00218520FFF73BFE002179
:102770008620FFF737FE00210320FFF733FE0021FC
:102780000420FFF72FFE79218920FFF72BFE062179
:102790008A20FFF727FEEA218B20FFF723FEEA219C
:1027A0008C20FFF71FFEFC218D20FFF71BFE002170
:1027B0008E20FFF717FE2B219C20FFF713FE4021F0
:1027C0009D20FFF70FFE0A219E20FFF70BFE03213D
:1027D0009F20FFF707FE6821A020FFF703FE0121DD
:1027E000A120FFF7FFFD3A21A220FFF7FBFD932177
:1027F000A320FFF7F7FD0221A420FFF7F3FDF62148
:10280000A520FFF7EFFD1D21AA20FFF7EBFDAC216E
:10281000B020FFF7E7FD0021B220FFF7E3FD022122
:10282000B320FFF7DFFD1021B420FFF7DBFD2821E7
:10283000B520FFF7D7FD2D21B620FFF7D3FDD4211A
:10284000B720FFF7CFFD0021B820FFF7CBFD002117
:10285000B920FFF7C7FD4221BA20FFF7C3FD45218C
:10286000BB20FFF7BFFD5321BC20FFF7BBFD542168
:10287000BD20FFF7B7FD4221BF20FFF7B3FD452183
:10288000C020FFF7AFFD5321C120FFF7ABFD54215E
:10289000C220FFF7A7FDFF21C320FFF7A3FDFF2103
:1028A000C420FFF79FFDFF21C520FFF79BFDFF21FF
:1028B000C620FFF797FD8021D820FFF793FD602108
:1028C000E920FFF78FFD4E21EE20FFF78BFDA521BC
:1028D000EF20FFF787FD2D21F020FFF783FD232157
:1028E000F120FFF77FFD0D21F220FFF77BFD522144
:1028F000F520FFF777FDFEF7D3FA493800EB8000AB
:102900004006010EF920FFF76DFD0A21FA20FFF7BE
:1029100069FD0021F320FFF765FD0021F420FFF79A
:1029200061FD6221F620FFF75DFD0021F720FFF732
:1029300059FD0721ED20FFF755FD18480178A72024
:10294000FFF750FD164B4FF4C8720021032000F032
:10295000A5F91E21FC20FFF745FD0C21FD20FFF706
:1029600041FD3221FE20FFF73DFD01220A2100201A
:10297000FEF7D2FB0223282200211846FFF7B6F803
:102980000848016821F480610160FFF79DFEFFF7B0
:102990003FFDBDE81040FFF739BC000040010020BA
:1029A000612A00080004014010B51A48016821F4AA
:1029B00080610160092240210020FEF73BFD0922D1
:1029C0004FF480510120FEF735FD00224FF4806462
:1029D00021461046FEF72EFD002202210120FEF7BF
:1029E00029FD21460020FEF78BFD02210120FEF784
:1029F00087FD6400092221460020FEF71BFD2146C9
:102A00000020FEF77DFDFFF753FCBDE810400420D9
:102A1000FFF7D6BC000401402DE9F04106460F4601
:102A200015460D4CA078012813D12846FEF75CFA14
:102A300078B10020A0700021084BC822084600F0A1
:102A40002DF92A4639463046FFF7E6FB0120BDE85E
:102A5000F0810020FBE70000400100200D2200086B
:102A600070B500212620FFF7BDFC324B197881425A
:102A700001D2421A00E00A1A2E4C00250A3C082A0C
:102A800036DA400800EB5100C0B21870D978491C02
:102A9000C9B2D97014293FD9A0F10A01D32924D28F
:102AA0001430C1B22170A720FFF79CFC6069C8B147
:102AB00000F0F0F96169884204D200F0EBF9616935
:102AC000081A03E000F0E6F96169401A1A498842E1
:102AD00004D20420FFF7F0FD656106E000F0DAF9AA
:102AE000606102E000F0D6F960612561002070BDF0
:102AF0005978814201D2411A00E0091A322909DAD3
:102B00009978491CC9B29970042905D91870DD70EB
:102B10009D7001E058709D702069401C2061B0F5E7
:102B2000167F05D925610420FFF7C6FD002070BD82
:102B3000012070BD4A010020A068060010B500F019
:102B4000D5FB002207210220FEF7E0FB0021054B08
:102B50004FF47A72084600F0A1F8BDE81040024830
:102B6000FEF730B9E53200089018002070B50D4C22
:102B70004FF0FF3020600020FEF7B2FD60600220C1
:102B80002072002565721422002104F10A0000F071
:102B90001EFEA5772246BDE870401F21402000F0B0
:102BA000F1BB00008C18002010B500F021F8FEF7F2
:102BB000E6FDFFF7AFFD4FF4165000F08BF9BDE8CE
:102BC00010404FF4FA610520FEF758BF064A10681E
:102BD0000649B0FBF1F301FB130010601068401CC4
:102BE000106000F005B900003C0100200084D717F8
:102BF00000B585B06846FFF7EFF901984FF47A7198
:102C0000B0FBF1F14FF0E020491E41610721016165
:102C100005B000BD0620704710B51048016841F4AA
:102C2000807101600D4908310A680D4B1A400A6035
:102C300002680C4B1A400260026822F48022026093
:102C4000086820F47D000860091D00200860FFF777
:102C500019FC054805490068086010BD00380240AD
:102C60000CC0FF88FEFFFEEE8803000808ED00E0C0
:102C700010B5064B06E0044603EB0414401C24691F
:102C8000944202D08842F6D3002010BD28170020BD
:102C90000149002008607047281700202DE9F047FF
:102CA00006460F46144699464FF001081D4D2888E8
:102CB00069880144142902D30220BDE8F0874A46FE
:102CC0000020FFF7D5FF98B1484600F0AFF82888FC
:102CD00069884A4601440020FFF7CAFF401E4FF0B2
:102CE000030805EB00100671C0F8109086B112E0E1
:102CF00068880201288805EB0011401C05EB0010D4
:102D0000091D001D00F046FD2888411C2980E8E7C8
:102D100004B90124012700214171C7808460C1608A
:102D20004046CAE72817002010B50F4C0246002085
:102D3000218863881944FFF79BFF002812D021885F
:102D40006288114481420AD9091A0A0104EB001170
:102D5000401E04EB0010091D001D00F01BFD208823
:102D6000401E208010BD0000281700202DE9F041F2
:102D70001E4F3C1D13E0607880B1FDF749FE06460A
:102D8000E56800206070217889B1012911D00229FD
:102D90001BD003291ED03046FDF73EFE1034388884
:102DA00007EB0010001DA042E5D8BDE8F08101202E
:102DB00060706088411E618007D22846FFF7B4FF2B
:102DC000103C3046FDF728FEE8E73046FDF724FECC
:102DD000A847E3E73046FDF71FFEA8470028DDD1EE
:102DE0002846FFF7A1FF103CD8E700002817002075
:102DF00070B5FDF70DFE0C4B191D0024012508E0F0
:102E00008A68521C8A604E68B24201D38C604D7051
:102E100010311A8803EB0212121D8A42F0D8BDE865
:102E20007040FDF7F9BD0000281700207FB502466D
:102E3000174D288869880144FFF71AFF0446002CC3
:102E400025D02888201A01281BD9601E05EB001107
:102E5000091D1022684600F091FC2888211A0A01F9
:102E600005EB0011401C05EB0010091D001D00F0D2
:102E700091FC2888102205EB0010001D694600F027
:102E80007DFC2888401C28806888401E68807FBDA3
:102E90002817002001480068704700003C0100200E
:102EA00070B50A4C208880060BD5FDF7B1FD0546AC
:102EB000211D09880648C9B200F0DAFB2846FDF753
:102EC000ABFD208820F02000208070BD003801403C
:102ED000080F002010B586B0044601A8FFF77CF863
:102EE0002649086840F480400860086820F4804063
:102EF000086022490831086840F001000860091D97
:102F0000086840F4804008601D49086820F470108B
:102F10000860086840F420100860888820F4C060C9
:102F20008880886820F470108860886840F4701089
:102F30008860C86820F47010C860486A4862486AAF
:102F400040F4EE60486204980E49B0FBF4F008804B
:102F5000081D018842F20C0211430180018841F4EE
:102F600080710180018841F020010180032102234A
:102F700025220846FEF7BAFD06B010BD14380240FF
:102F8000000002400838014070B505460C4604E0D8
:102F900015F8010B00F008F820B1641EE4B2F7D276
:102FA000012070BD002070BD10B5002144F62062E4
:102FB000084B00E0491C1C88640601D49142F9D3F7
:102FC000914204D20349091D0880012010BD002050
:102FD00010BD0000003801400120704710B50024EA
:102FE00004E0204600F008F8641CE4B2FFF7F4FFA8
:102FF000A042F6D810BD0000044900EB800201EBAE
:1030000082014968002900D008477047A83A0008A3
:1030100070B504460E46802506E006EBC40205EBBB
:1030200004100821FFF730F8641EE4B2F5D270BD39
:1030300010B5002404E0204600F008F8641CE4B257
:10304000FFF7CAFFA042F6D810BD0000084A4FF0B3
:10305000FF3142F8301002EBC002002191800123C1
:103060009371D171802101EB0010082100F08AB921
:103070005801002070B5012408490120FFF7C8FF5E
:10308000074D08E0641EE4B204EB840055F82010FC
:1030900009B120468847002CF4D170BD58010020AA
:1030A000A83A000810B50C4681B205480068FDF743
:1030B000ABFF201A80B208B1002010BD012010BD66
:1030C000900300082DE9F0410746FEF73FFA054658
:1030D0006C69DFF86080C8F800704FF0006612E09D
:1030E000FEF740F92168884206D12046BDE8F0414C
:1030F000104A0421FEF75CBF08F104020C21201DD8
:10310000FEF748FF1034D6F89003A042E8D8094AE9
:103110001021103A2869FEF73DFFD6F89013286970
:10312000091AFEF71DFF034A1021103A2869FEF71D
:103130003FFFCAE77C18002070B5FEF707FA044687
:10314000FDF7AEFE0546FEF70DF90A4908604FF09F
:103150000060D0F890132069091AFEF701FF054AB4
:1031600010212069FEF724FF2846BDE87040FFF7D4
:10317000A9BF00006C180020F0B5002200230370E6
:103180000F4C012513E0530904EB830302F01F07E2
:10319000D3F8076005FA07F31E4207D121F8022B86
:1031A00003789B1CDBB20370642B03D8521CA388EA
:1031B0009342E8D8007808B10020F0BD0120F0BDAE
:1031C0002E0000202DE9F041134B9C88641E8442A0
:1031D00001D3C82902D90020BDE8F081440903EBDE
:1031E000840400F01F07D4F807600125BD402E427B
:1031F0000DD14FF000669B79D6F8906300FB036019
:10320000FEF7D6FE28B154F8070F284320600120AE
:10321000E2E70020E0E700002E00002070B54179D1
:10322000012901D01E2070BD134C01786170A11CD2
:10323000C2880B685A600B688268DA600B68D0F845
:103240000D209A60007B88710A68D268B2FBF0F3A7
:10325000B2FBF0F500FB152008B1012000E00020D2
:10326000184488800448801C00F008F80128DAD14E
:10327000F1202070012070BD2C00002070B50446A4
:10328000A079800701D0212070BD4FF00065D5F8EE
:103290009013D5F89403401A2168C968814201D976
:1032A000202070BD4FF480720021E01D00F08FFAE5
:1032B0002068C168D5F89003BDE87040FEF750BEA5
:1032C00006490870012805D005220021044B084654
:1032D000FFF7E4BC4FF47A72F7E7000036010020F4
:1032E000FD1200080020FFF7EBBF000010B5164AE2
:1032F0001F214020FEF7C8FE13484068FEF7F0F992
:10330000124CB8B1AFF21B03002132220846FFF77E
:10331000C5FC2078401CC0B22070032813D9AFF23E
:103320003300FFF701FDFDF7D3FFBDE8104001209A
:1033300000F00EB82078002805D000202070BDE8ED
:103340001040FFF797BE10BD8C18002035010020FB
:103350001CB5044609A106C9CDE90012FFF706FC19
:10336000FFF766FEFFF73AFE022C02D16846FFF730
:10337000EFF80120FFF7A4FF1CBD00000100F801D9
:10338000530000002DE9F04105460C46174620E0A9
:10339000B5F5004F03D247F69C70844202D9002055
:1033A000BDE8F08105F03F00C0F14006A64200D321
:1033B0002646F3B2A9B23A46A020FEF713FB50B15D
:1033C0003544A41B37446FF07041A020FEF7C5FAC6
:1033D00008B1002CDCD134B1002211461046FDF7B3
:1033E00095FF0020DCE70120DAE72DE9F0410546F2
:1033F0000C4617461FE0B5F5004F03D247F69C7008
:10340000844202D90020BDE8F08105F03F00C0F100
:103410004006A64200D32646F3B2A9B23A46A020FF
:10342000FEF706FB48B13544A41B6FF07041A020A5
:10343000FEF793FA08B1002CDDD134B10022114619
:103440001046FDF763FF0020DDE70120DBE7000009
:1034500070B506460C46002C40D0204600F05BF9C3
:1034600006283BD906221E49204600F09AF8A060A3
:10347000204600F08EF8012830D0A0686168801DD9
:10348000B0FBF1F201FB120021680D5C012D1DD98A
:103490000C35FA2D1AD8204600F03DF9A8421DD36C
:1034A000A168A81F084461680623B0FBF1F201FB84
:1034B00012010C4A204600F051F838B12A46314634
:1034C000204600F0A2F848B1284670BDA0686168A7
:1034D000801DB0FBF1F201FB1200A060002070BD66
:1034E000EC390008F239000870B505462846FFF7A8
:1034F000AFFF04465CB1A81DFDF739FC38B9AC7EBE
:103500001D3428190622034900F038F9A41D20466D
:1035100070BD0000F239000870B5044640F2E6358F
:1035200004E0FEF7C1FA284600F004F8641E601CAF
:10353000F7D170BD03E00A21491E0029FCD1401ECD
:10354000411CF8D17047002806D00160426000217C
:10355000C16081600120704700207047F0B50768A6
:10356000002F02D00AB100240FE00020F0BD466811
:103570000D19B5FBF6FC06FB1C5512F8016B7D5DC1
:10358000B54201D00020F0BD641C9C42EFD3012065
:10359000F0BDD0E90210814201D101207047002026
:1035A0007047F0B5002806D029B122B18468002305
:1035B000C668456812E00020F0BD076811F803C036
:1035C0003F5D674504D15B1C934202D15B1E07E05F
:1035D0000023641CB4FBF5F705FB1744A642ECD1AD
:1035E0002819C01AB0FBF5F105FB1100F0BDC16848
:1035F0004268491CB1FBF2F302FB1311806881425F
:1036000001D101207047002070472DE9F0410446A8
:103610000F461546002C0CD02046FFF7BAFF0128B4
:1036200009D0204600F077F8A84206D20020BDE875
:10363000F0810020FBE70020F9E7D4E901100E1A21
:10364000AE4200D32E46216832460144384600F08F
:1036500095F8AA1BB819216800F090F8A068616875
:103660002844B0FBF1F201FB1200A0600120DEE76C
:1036700070B504460D46002C11D02046FFF7B7FF69
:1036800001280ED0E16820684554E0686168401C5C
:10369000B0FBF1F201FB1200E060012070BD0020E0
:1036A00070BD002070BD2DE9F04104460F4615465F
:1036B000002C07D0204600F022F8A84204D20020B7
:1036C000BDE8F0810020FBE76168E0680E1AAE42B9
:1036D00000D32E46216832460844394600F04EF8A1
:1036E000AA1BB919206800F049F8E068616828440D
:1036F000B0FBF1F201FB1200E0600120E0E7D0E94D
:103700000212914202D9881A401E7047406808444C
:10371000801A401E7047D0E90221914203D24068CE
:103720000844801A7047881A704700000622014931
:10373000FFF7B9BFEC390008FDF79CFCFDF79CFBD7
:10374000FFF7A6FAFFF730FAFDF756FDFFF792FCF8
:10375000FEF7FEF9FFF70AFBFAE710B588420BD037
:1037600052B110F8013B11F8014BA34201D00120E6
:1037700010BD521E002AF4D1002010BD884208D08E
:10378000002A06D011F8013B00F8013B521E002A26
:10379000F8D1704788420AD2002A07D011F8013BBD
:1037A00000F8013BA2F10102002AF7D17047FDD9D0
:1037B00000EB020301EB0200002AF7D010F8011D14
:1037C00003F8011DA2F10102002AF7D17047002A77
:1037D00004D000F8011B521E002AFAD170470000E5
:1037E00006220149FFF75FBFF23900080000C1C09F
:1037F00081C1400101C3C003800241C201C6C006AD
:10380000800741C70005C1C581C4400401CCC00C7C
:10381000800D41CD000FC1CF81CE400E000AC1CA3C
:1038200081CB400B01C9C009800841C801D8C0182C
:10383000801941D9001BC1DB81DA401A001EC1DEAC
:1038400081DF401F01DDC01D801C41DC0014C1D49C
:1038500081D5401501D7C017801641D601D2C012BC
:10386000801341D30011C1D181D0401001F0C0308C
:10387000803141F10033C1F381F240320036C1F6AC
:1038800081F7403701F5C035803441F4003CC1FC7C
:1038900081FD403D01FFC03F803E41FE01FAC03A3C
:1038A000803B41FB0039C1F981F840380028C1E86C
:1038B00081E9402901EBC02B802A41EA01EEC02EAC
:1038C000802F41EF002DC1ED81EC402C01E4C0249C
:1038D000802541E50027C1E781E640260022C1E2BC
:1038E00081E3402301E1C021802041E001A0C060CC
:1038F000806141A10063C1A381A240620066C1A6AC
:1039000081A7406701A5C065806441A4006CC1AC7B
:1039100081AD406D01AFC06F806E41AE01AAC06A3B
:10392000806B41AB0069C1A981A840680078C1B82B
:1039300081B9407901BBC07B807A41BA01BEC07EAB
:10394000807F41BF007DC1BD81BC407C01B4C0749B
:10395000807541B50077C1B781B640760072C1B2BB
:1039600081B3407301B1C071807041B00050C1900B
:10397000819140510193C053805241920196C056AB
:10398000805741970055C19581944054019CC05C7B
:10399000805D419D005FC19F819E405E005AC19A3B
:1039A000819B405B0199C059805841980188C0486B
:1039B00080494189004BC18B818A404A004EC18EAB
:1039C000818F404F018DC04D804C418C0044C1849B
:1039D000818540450187C047804641860182C042BB
:1039E000804341830041C18181804040F1F1F1F287
:1039F000F1F1F2F2F2F1F2F2C0000000000000007A
:103A000000000000A9150008C1000000000000002F
:103A10000000000069160008C90000000000000056
:103A20007B26000800000000F400000000000000F9
:103A30005126000831160008F500000000000000C3
:103A40000926000800000000F80000000000000047
:103A50005125000859150008F0020008000400086C
:103A6000300400083C0400080050000840500008E2
:103A7000F002000800040008300400083C040008BC
:103A80000060000840600008F0020008000800081C
:103A9000300800083C08000800680008406800087A
:103AA00005000500050005003D2B00080000000092
:103AB00000000000F8390008152C00080403020774
:103AC0000202010254F139CDE3A3A432EC3A00081A
:103AD000000000206801000030090008103B0008C9
:103AE00068010020A81D00008C09000841800E011B
:103AF000020304030406080C101820302915B5062B
:103B000007080915EF016C1802FF20F10227A00039
:04000005080008F5F2
:0C60040040010000307500000262040042
:046040005300A55A0A
:020000040800F2
:10640000382A0020F5650008FD650008FF650008D2
:106410000166000803660008056600080000000029
:1064200000000000000000000000000007660008F7
:1064300009660008000000000B660008858000085F
:106440000F6600080F6600080F6600080F66000858
:106450000F6600080F660008BD8800080F66000878
:106460000F6600080F6600080F6600080F66000838
:106470000F6600080F6600080F6600080F66000828
:106480000F6600080F6600080F6600080F66000818
:106490000F6600080F6600080F6600080F66000808
:1064A0000F6600080F6600080F6600080F660008F8
:1064B000679600080F6600080F6600080F66000860
:1064C0000F6600080F6600080F6600080F660008D8
:1064D0000F660008C98100080F6600080F660008F3
:1064E000E17900080F6600080F6600080F660008D3
:1064F0000F66000800F002F800F05AF80AA090E8D1
:10650000000C82448344AAF10107DA4501D100F06E
:106510004FF8AFF2090EBAE80F0013F0010F18BFE1
:10652000FB1A43F001031847E8A6000008A7000083
:106530000A444FF0000C10F8013B13F0070408BFA9
:1065400010F8014B1D1108BF10F8015B641E05D047
:1065500010F8016B641E01F8016BF9D113F0080FFC
:106560001EBF10F8014BAD1C0C1B09D16D1E58BF8E
:1065700001F801CBFAD505E014F8016B01F8016BC5
:106580006D1EF9D59142D6D3704700000023002438
:1065900000250026103A28BF78C1FBD8520728BF33
:1065A00030C148BF0B6070471FB51FBD10B510BD8F
:1065B00008F0B4FF1146FFF7F7FF02F025FA08F0E4
:1065C000D2FF03B4FFF7F2FF03BC08F0D9FF0000CD
:1065D00072B6704762B6704730BF72B662B680F36B
:1065E0000888704780F310887047EFF3108072B608
:1065F000704700000948804709480047FEE7FEE76A
:10660000FEE7FEE7FEE7FEE7FEE7FEE7FEE7FEE762
:1066100004480549054A064B704700004B680008CE
:10662000F564000838200020382A00203822002095
:10663000382200200EB50020029001900090CE4834
:10664000006840F48030CC49086000BFCA48006848
:1066500000F4003001900298401C0290019818B993
:106660000298B0F5A04FF1D1C348006800F40030A3
:1066700010B10120019001E0002001900198012853
:106680005AD1BE48006840F00400BC490860084682
:10669000006840F0020008600846006840F0010011
:1066A0000860B5482430006840F08050B249243179
:1066B0000860C814B249086000BFB148406800F0E3
:1066C00010000028F9D1AC4808300068AA49083108
:1066D00008600846006808600846006808600846C8
:1066E000006820F47D0008600846006840F411004E
:1066F0000860A148006840F080709F49086000BFB2
:106700009D48006800F000700028F9D09A480830D1
:10671000006820F0030098490831086008460068C6
:1067200040F00300086000BF93480830006800F0A4
:106730000C000C28F8D187E08F48006820F48030E6
:106740008D4908600846006840F00100086000209C
:10675000029000BF8848006800F002000090029894
:10676000401C0290009818B90298B0F5A04FF1D1E2
:106770008148006800F0020010B10120009001E0A3
:1067800000200090009801285ED17C48006840F00D
:1067900004007A4908600846006840F0020008607A
:1067A0000846006840F00100086073482430006823
:1067B00040F08050704924310860C8147049086066
:1067C00000BF6F48406800F010000028F9D16A4807
:1067D00008300068684908310860084600680860A9
:1067E0000846006808600846006820F47D000860DC
:1067F0000846006820F4803008600846006840F4CD
:10680000080008605C48006840F080705A490860E1
:1068100000BF5948006800F000700028F9D05648C1
:106820000830006820F0030053490831086008462A
:10683000006840F00300086000BF4F48083000685F
:1068400000F00C000C28F8D10EBD10B54A480068C5
:1068500040F480704849086047480830006849495A
:1068600008404549083108604348006846490840E7
:10687000414908600846006820F4802008603E48CE
:106880000830006820F47D003B4908310860002092
:10689000091D0860FFF7CEFE3C4800683C490860CF
:1068A00010BD2DE9F04105460A46002600230024CC
:1068B0009C460027002130480830006800F00C0694
:1068C00036B1042E11D0082E11D00C2E38D110E084
:1068D0002948001D0068C0F34237781C4FF00108BA
:1068E00008FA00F84FEAC83137E02A4935E02A496A
:1068F00033E021480830006800F470131E48083067
:10690000006800F44004254800EB93400378012020
:1069100000EB945418480830006800F4803CBCF147
:10692000000F06D11B485843B0FBF4F10020107053
:1069300005E019485843B0FBF4F1012010700CE059
:106940000D48001D0068C0F34237781C4FF0010865
:1069500008FA00F84FEAC83100BF00BF0648083007
:106960000068C0F30310DFF8388018F80060F140C9
:1069700029600120BDE8F08100380240003C02405F
:10698000007000400CC0FF88FEFFFEEE9003000880
:1069900008ED00E00024F40000127A00000000205E
:1069A00009000020704700004A48006800F001001C
:1069B00028B149484749083108604848086070478D
:1069C00000B54448006800F0020038B1FFF7ECFF62
:1069D000434840490C3108604248086000BD3D48CA
:1069E000006840F002003B490860704739481430A5
:1069F000006800F0020028B1022036491431086016
:106A0000012070470020FCE7014600E0491E31B13B
:106A100030481430006800F001000028F6D109B9B0
:106A2000032070472B481430006800F4F85030B150
:106A30004FF4F850274A143210600120F1E700208B
:106A4000EFE770B504464FF40050FFF7DDFF054651
:106A5000E5B92048006840F400701E490860084607
:106A6000006840F008000860002020604FF40050EB
:106A7000FFF7CAFF05461748006820F008001549CF
:106A800008600846006820F40070086015B9FFF738
:106A9000ADFF70BD0020FCE770B505460C461646FC
:106AA0004FF44050FFF7B0FF70B90AE0306828603B
:106AB000361D2D1D241F4FF44050FFF7A5FF00B1D8
:106AC00001E0002CF2DC00BF0CB9012070BD0020F9
:106AD000FCE70000043C0240EFCDAB890504030253
:106AE000BFAE9D8C16151413F0B504460B46494DE8
:106AF00005EB8420484D2D680126A6403543464EBF
:106B00003560002135E003F0010585B305684F00CD
:106B10000326BE40B5430560868801258D40AE43FF
:106B2000868085684F000326BE40B5438560C568F2
:106B30004F000326BE40B543C56095094E00B540E1
:106B40000668354305608688C2F300158D402E43E4
:106B5000868085684F00C2F38106BE40354385605C
:106B600002F003054E00B540C6683543C5605B10B2
:106B7000491C002BC7DCF0BDF0B503461446254D7B
:106B800005EB8322002022E001F00105EDB1C608EB
:106B900002F1200555F826504607F70E0F26BE4095
:106BA000B543C70802F1200646F82750C60802F18F
:106BB000200555F826504607F60E04FA06F635432A
:106BC000C70802F1200646F827504910401C00294A
:106BD000DADCF0BD02460B460E4800EB8221888AC3
:106BE00018438882888A70470A4B03EB8022938A75
:106BF0008B4393827047074B03EB8022938A4B4071
:106C0000938270470246034800EB8223188A0840AB
:106C100070470000000002401C380240002107E0DD
:106C2000052101E04A1E91B20029FBDC421E90B210
:106C30000028F5DC704710B54D22C0210120FFF778
:106C400053FFC0210120FFF7C5FF10BD10B5802103
:106C50000120FFF7BFFF40210120FFF7BBFF02200B
:106C6000FFF7DCFF80210120FFF7BEFF0220FFF7C6
:106C7000D5FF40210120FFF7B7FF10BD10B58021DF
:106C80000120FFF7B1FF0220FFF7C8FF40210120DC
:106C9000FFF7A0FF0220FFF7C1FF80210120FFF7CF
:106CA00099FF0220FFF7BAFF10BD10B5044640213E
:106CB0000120FFF799FF0220FFF7B0FF24B18021E8
:106CC0000120FFF787FF03E080210120FFF78CFF01
:106CD0000220FFF7A3FF40210120FFF77BFF0220E6
:106CE000FFF79CFF40210120FFF77EFF10BD10B58C
:106CF0000024012280211046FFF7F6FE80210120AA
:106D0000FFF768FF0220FFF789FF40210120FFF70E
:106D100061FF0220FFF782FF10E0601C80B2044692
:106D2000B0F5FA7F0ADD4D2280210120FFF7DCFE5D
:106D300080210120FFF74EFF002010BD802101209F
:106D4000FFF760FF0028E8D140210120FFF74CFF4A
:106D50000220FFF763FF4D2280210120FFF7C4FED0
:106D600080210120FFF736FF0220FFF757FF0120A7
:106D7000E3E770B5044640210120FFF735FF02200C
:106D8000FFF74CFF002520E004F0800020B18021B7
:106D90000120FFF71FFF03E080210120FFF724FF00
:106DA0006006040E0220FFF739FF40210120FFF7A3
:106DB00011FF0220FFF732FF40210120FFF714FFEF
:106DC0000220FFF72BFF681CC5B2082DDCDBFFF7A4
:106DD0008EFF70BD70B5064600240122802110464A
:106DE000FFF782FE80210120FFF7F4FE00251BE063
:106DF00040210120FFF7F8FE0220FFF70FFF40219E
:106E00000120FFF7E7FE0220FFF708FF6006040EEF
:106E100080210120FFF7F6FE08B1601CC4B20220F9
:106E2000FFF7FCFE681CC5B2082DE1DB4021012004
:106E3000FFF7DAFE0220FFF7F1FE4D22802101204C
:106E4000FFF752FE80210120FFF7C4FE0220FFF76A
:106E5000E5FE3046FFF729FF204670BD70B50546B8
:106E60000C4600BFFFF7F2FE2846FFF782FF10B97D
:106E7000601E041EF6D1FFF701FF0CB1012070BDAA
:106E80000020FCE72DE9F04107460E4615461C465A
:106E9000FFF7DCFE3846FFF76CFFF0B13012FFF76A
:106EA00068FFD0B1F0B2FFF764FFB0B1FFF7CEFEDC
:106EB00047F00100FFF75DFF78B106E00020FFF723
:106EC00089FF05F8010B601EC4B2012CF6DC601EC0
:106ED000C4B20120FFF77EFF2870FFF7CFFE14B980
:106EE0000120BDE8F0810020FBE72DE9F0410746D5
:106EF0000D4616461C46FFF7A9FE3846FFF739FF38
:106F000098B12812FFF735FF78B1E8B2FFF731FFEB
:106F100058B107E016F8010BFFF72BFF00B903E0AB
:106F2000601EC4B2002CF5DC00BFFFF7A7FE14B949
:106F30000120BDE8F0810020FBE72DE9F041074684
:106F40000D4616461C46FFF781FE3846FFF711FF37
:106F500090B12812FFF70DFF70B1E8B2FFF709FFFB
:106F600050B106E03046FFF704FF00B903E0601EB1
:106F7000C4B2002CF6DC00BFFFF780FE14B901207C
:106F8000BDE8F0810020FBE77047704770470000C4
:106F900070B505460C464FF480707D490860FFF7D8
:106FA0000FFD03E0A4F5807405F580752846FFF712
:106FB00048FD012802D1B4F5807FF3D8FFF70FFD1B
:106FC000B4F5807F01D8012070BD0020FCE72DE9D9
:106FD000F04106460C46174604F0030010B124F0B9
:106FE0000304241DFFF7ECFC3A4621463046FFF728
:106FF00053FD0546FFF7F3FC2846BDE8F081034644
:1070000004E018681060121D1B1D091F0029F8D12B
:10701000012070472DE9F04FC1B080460D469246E1
:1070200005F0030010B125F003052D1DFFF7C8FC86
:10703000B8F1006F02D35748804503D3002041B018
:10704000BDE8F08FA8F1006B4FEA1B260BF0FF099B
:10705000C9F58074A54200D8ACB249E04FF0006198
:1070600001EB06206A46C914FFF7C9FF002707E0B5
:1070700009EB07001DF8000000B103E0781C87B29F
:10708000A742F5DB00BFA7421CDA4FF0006101EB1D
:107090000620FFF7D6FC4090002707E01AF807000B
:1070A00007EB09010DF80100781C87B2A742F5DB58
:1070B0004FF0006101EB06206A46C914FFF7ECFCB3
:1070C000409005E0524621464046FFF7E5FC4090DF
:1070D000A54200D10DE0761C4FF00009A244A04467
:1070E0002D1BB5F5807F02D94FF4807400E0ACB25F
:1070F000B4E700BFFFF773FC4098A0E71CB5264932
:1071000003C9CDE900012548006840F480502349B7
:1071100008602348806840F00100214988600846E3
:10712000007940F0FF0008711E4800681E4988423F
:107130001AD01C49083908681949896841F00101C9
:10714000174A91601949096D11601849496D11601C
:107150001649496E116011460860096801916A4636
:1071600008211048FFF756FF1CBD1049096D01604A
:107170000E49496D41600D49496E8160704700209C
:1071800070474FF48070704708484C300088704753
:10719000183C024000000608A0FB00081C38024012
:1071A000003002403C040008A542BD5A0000F81F10
:1071B00008B1012100E00021FE4A11707047FE482D
:1071C0007047FE480078704770B505460C464FF48E
:1071D00080510120FFF708FD284600F0B5FC20464D
:1071E00000F0B2FC06464FF480510120FFF7F2FC9C
:1071F000304670BD10B5F248006820F48060F04958
:107200000860442240210020FFF76EFC44224FF426
:1072100080510120FFF768FC00224FF48061104686
:10722000FFF762FC002202210120FFF75DFC4FF412
:1072300080610020FFF7CEFC02210120FFF7CAFC8D
:1072400044224FF400610020FFF74EFC4FF4006130
:107250000020FFF7BFFC00F0A2FC042000F0E6FCD9
:1072600010BD0120D7490870704710B5052187204F
:10727000FFF7AAFF02218E20FFF7A6FF0221882038
:10728000FFF7A2FF00218820FFF79EFF1321852032
:10729000FFF79AFF80218620FFF796FF0021032049
:1072A000FFF792FF00210420FFF78EFFC44800681B
:1072B00040F48060C249086010BD10B5C048006845
:1072C00020F48060BE49086000218E20FFF77CFF1B
:1072D00001218720FFF778FF00218520FFF774FF49
:1072E00000218620FFF770FF00210320FFF76CFFCD
:1072F00000210420FFF768FF022003F06BF910BDA6
:1073000010B50446B04A2146022003F025FA10BD0C
:1073100010B500212620FFF757FF0446AB48007840
:10732000A04203DAA9480078201A02E0A7480078B2
:10733000001B08284EDA6410A448007804EB6000B3
:10734000A24908700846C078401CC0B2C870142812
:1073500060DD084600780A2803DB08460078DC2850
:1073600003DD0420FFF7CCFF30E0984800781430AC
:107370009249087008460178A720FFF725FF944836
:107380000068F8B100F073FE91490968884205D29F
:1073900000F06DFE8E490968081A04E000F067FEEF
:1073A0008B490968401A8B49884206D20420FFF7AE
:1073B000A7FF00208649086008E000F058FE8449D5
:1073C000086003E000F053FE814908600020824914
:1073D000086010BD7D484078A04203DA7B484078C1
:1073E000201A02E079484078001B32280DDA7748ED
:1073F0008078401CC0B27549887004280ADD0846B0
:1074000004700020C870887004E070484470002048
:107410006E49887070480068401C6F490860B0F57C
:10742000167F06D9002008600420FFF769FF0020BE
:10743000CFE70120CDE710B5FFF7DCFE4FF4805118
:107440000120FFF7C7FB40210020FFF7C3FB02200C
:1074500003F0C0F840210020FFF7C6FB322003F004
:10746000B9F800210320FFF7AFFE00210420FFF749
:10747000ABFE80218720FFF7A7FE022003F0AAF8C9
:1074800000218720FFF7A0FE00218520FFF79CFE4A
:1074900000218620FFF798FE00210320FFF794FECD
:1074A00000210420FFF790FE79218920FFF78CFE50
:1074B00006218A20FFF788FEEA218B20FFF784FE51
:1074C000EA218C20FFF780FEFC218D20FFF77CFE57
:1074D00000218E20FFF778FE404801789C20FFF7BE
:1074E00073FE3E4841789D20FFF76EFE3B48817851
:1074F0009E20FFF769FE3948C1789F20FFF764FEA0
:1075000036480179A020FFF75FFE34484179A12079
:10751000FFF75AFE31488179A220FFF755FE2F4828
:10752000C179A320FFF750FE2C48017AA420FFF771
:107530004BFE2A48417AA520FFF746FE2748817A6C
:10754000AA20FFF741FEAC21B020FFF73DFE00214D
:10755000B220FFF739FE0221B320FFF735FE1021DC
:10756000B420FFF731FE2821B520FFF72DFE2D2195
:10757000B620FFF729FED421B720FFF725FE002112
:10758000B820FFF721FE0021B920FFF71DFE4221A0
:10759000BA20FFF719FE4521BB20FFF715FE532146
:1075A000BC20FFF711FE5421BD20FFF70DFE422144
:1075B000BF2015E01F000020900200201E000020C8
:1075C000000401401D00002037740008280000203E
:1075D00030000020A06806002C000020A8FB000856
:1075E000FFF7F2FD4521C020FFF7EEFD5321C1203A
:1075F000FFF7EAFD5421C220FFF7E6FDFF21C3207B
:10760000FFF7E2FDFF21C420FFF7DEFDFF21C520CB
:10761000FFF7DAFDFF21C620FFF7D6FDFE48C17A4D
:10762000D820FFF7D1FDFC48017BE920FFF7CCFD16
:10763000F948417BEE20FFF7C7FDF748817BEF203B
:10764000FFF7C2FDF448C17BF020FFF7BDFDF24813
:10765000017CF120FFF7B8FDEF48417CF220FFF7F5
:10766000B3FD5221F520FFF7AFFD04F043FB49388D
:1076700000EB80004006040E2146F920FFF7A4FD30
:107680000A21FA20FFF7A0FD0021F320FFF79CFD5F
:107690000021F420FFF798FDDF48C17CF620FFF7BA
:1076A00093FDDD48017DF720FFF78EFD0721ED20DA
:1076B000FFF78AFDD9480178A720FFF785FDD84B51
:1076C0004FF4C8720021032004F07AF81E21FC2038
:1076D000FFF77AFD0C21FD20FFF776FD3221FE2019
:1076E000FFF772FD01220A21002000F0F3FA0223C5
:1076F00028220021184600F0CBFACA48006820F47E
:107700008060C8490860FFF7D8FDFFF7AEFDFFF7BE
:10771000A8FD10BD10B503218820FFF755FD0821F5
:107720008820FFF751FD01218E20FFF74DFD10BD90
:107730002DE9F04106460C4690460025FFF7BDFDB9
:10774000FFF7E8FF2146BE20FFF73EFD1DE04FF4A6
:10775000805503E0142002F031FF6D1E002103204C
:10776000FFF732FD00F0200008B9002DF2D100270C
:1077700007E016F8011BFF20FFF726FD601EC4B2CC
:107780007F1C322F01D2002CF3D1002CDFD1092134
:107790008720FFF719FD4FF4C87002F00FFF4FF478
:1077A000805506E0681E051E03D10420FFF7A8FDE2
:1077B00008E000210320FFF707FD00F0040008B9EE
:1077C000002DEFD100BFFFF778FDFFF74EFDBDE8BC
:1077D000F0812DE9F04105460F462C4604F11206D2
:1077E000322F2FDC204605F05AFC10B10020BDE8F6
:1077F000F081E07CB2280FD1F078BB280CD105F0E5
:1078000006FAE168884207D13079642804DA8648AC
:1078100001783079854A115405F0F9F9E168884218
:107820000AD005F0F7F98046804810F80800401C9F
:107830007E4901F8080000BF207D1730C1B2204604
:1078400005F005FC0120D2E72DE9F04F91B080460C
:107850000F464FF000094FF0010AB1E04846411CC5
:1078600001F0FF09052806DD0520FFF749FD00208E
:107870006F490870ACE000210320FFF7A5FC044627
:1078800000210420FFF7A0FC054605F0800028B188
:1078900000212620FFF798FC6349087004F00100DE
:1078A00018B100206249087092E004F0100020B383
:1078B0005F48007818B9404602F0EAFC824600268C
:1078C0000BE000217F20FFF77FFC834659464046AE
:1078D00003F02BF88246701CC6B2322EF1DB5448FE
:1078E0000078CD2803DD00205149087070E0504831
:1078F000007832304E49087000BF04F002000028C2
:107900005ED000214B20FFF75FFC044611E0002110
:107910007F20FFF759FC46490978322291FBF2F3A8
:1079200002FB131101AA505441480078401C404901
:1079300008703F480078A042E9DB172C2EDB3D4859
:10794000007860B1214601A8FFF743FF38B9002055
:1079500037490870FFF789FC11B0BDE8F08F322C71
:1079600003DC404602F094FC8246322094FBF0F1A6
:1079700000FB114028B1322094FBF0F100FB1140D4
:1079800000E032200646324601A9404602F05AFF86
:107990008246404602F084FC824606E0224601A967
:1079A000384602F0F6FC00F0FF0A0020204908707B
:1079B000BAF1000F04D100220321022002F0CCFE14
:1079C0004FF480610020FFF71DF900283FF446AF17
:1079D00000BF1748007808B9FFF747FC00BFBBE7B6
:1079E00010B515491548FFF72FFF4FF480600D497A
:1079F0001431086010BD10B504461148008850B914
:107A0000082C00D3012400F032FB0E4931F8141089
:107A1000B0FBF1F218E01CE0A8FB00081E000020FB
:107A200011730008000401401C0000209002002097
:107A3000200000201F0000208C0D00204C0300209F
:107A400026000020BEFB000801FB1200801C31490B
:107A5000088002210120FFF7D5F8F0B92D480088F1
:107A6000401E80B22B49088070BB2B480088401C08
:107A700080B229490880642808DD00200880274B4F
:107A80004FF4C8720021032003F09AFE0020214920
:107A9000088023490880012010BD00201D4908806E
:107AA0001D4908801E480088401C80B21C4908807F
:107AB000B0F57A7F08DD00200880184B4FF4C872BB
:107AC0000021032003F07CFE0020E5E770B50646A8
:107AD0000C46154613480078012819D12846FFF7AF
:107AE0008AFFA8B100200F4908700F4BC82200215F
:107AF000084603F065FE172C03DBB61DA4F10C004D
:107B0000C4B22A4621463046FFF712FE012070BD5E
:107B10000020FCE72600002024000020117300084C
:107B2000220000201D0000206372000810B585228D
:107B30004FF460410120FEF7D7FF05224FF460416A
:107B40000120FFF719F810BD0146002208E0104699
:107B5000531C9AB24FF6FE73984201DB0020704727
:107B60003D48008800F002000028F0D03A48001D8F
:107B70000180002208E01046531C9AB24FF6FE73B3
:107B8000984201DB0020EAE73348008800F001005A
:107B90000028F0D03048001D0088C0B2DFE710B5E3
:107BA0002E48006840F480402C4908600846006870
:107BB00020F48040086029480C30006840F4804080
:107BC00026490C3108602548001D006840F002007D
:107BD0002249091D0860FFF7A9FF1F4808380088DF
:107BE0001D49083908800846008840F40070088064
:107BF0000846008840F4807008800846008840F0FD
:107C0000040008800846008808800846008840F084
:107C1000080008800846008808800846008840F070
:107C200040000880FF20FFF78FFF10BD00F0070025
:107C300009490839098821F03801074A083A1180B2
:107C40001146098841EAC00111801146098841F0B6
:107C50004001118070470000083800401838024089
:107C6000A44A0A400243A44B1A6070470146072306
:107C700023EA01021202A04B1B1D18684FF6FF03F6
:107C800018409E4B184310439B4B1B1D18607047B8
:107C90002DE9F0410746884614461D460026284631
:107CA000FFF7E4FFC5F1040007FA00F60F202841B2
:107CB00000EA0800064336019148065504F01F010A
:107CC000012088406111890001F1E021C1F8000123
:107CD000BDE8F08170B504460B46CE1701EB9676F1
:107CE000C6F38700CE1701EB9676B610A1EB860699
:107CF000B606350E834B1B6843F00103814E33609B
:107D0000814B53F820300F26AE40B3437E4E46F8E9
:107D10002030334653F8203004FA05F61E437A4BE0
:107D200043F82060794B1B6801268E403343774E21
:107D3000336002F0010343B1744B0C331B6801261E
:107D40008E403343714E0C36336002F0020343B170
:107D50006E4B08331E6801238B401E436B4B083368
:107D60001E6070BD0020674908390860091F08605F
:107D700014206449091F08600020091D0860091DBE
:107D8000086060482038006840F001005D492039F3
:107D900008605C48183800685D490840594918393E
:107DA00008605848203800685A4908405549203929
:107DB00008600846006820F48020086051481838A0
:107DC000006820F4FE004F49183908600020091DA2
:107DD0000860704710B548480830006840F004005B
:107DE0004549083108604748001D006840F0805050
:107DF0004449091D08604848406840F4807046497D
:107E000048600846006840F00400086008460068C2
:107E100040F002000860FEF7DFFB10BD3748001D90
:107E20003549091D0860704701464906354A126800
:107E300042F00102334B1A60704700B5024600233E
:107E4000FFF790FF2F482038006840F480302D491C
:107E50002039086000BF2B4820380068400C0028FB
:107E6000F9D04FF48060274918390860901EC2B2DB
:107E70000846006840EA824008600846006840F40E
:107E8000803008602548006840F0320023490860CF
:107E90001C482038006840F080701A49203908607A
:107EA00000BF184820380068400E0028F9D0154857
:107EB0001838006840F0020012491839086006E0DE
:107EC000104818380068C0F3870303F00303022B3F
:107ED000F6D100BD70B5044625462068104908401B
:107EE000B0F1005F04D12868FEF779FB686880472D
:107EF00070BD000080FFFF1F08ED00E00000FA05E4
:107F000000E400E020380240080001400004014085
:107F10000000FFF8FFFFF6FE00700040003C02404A
:107F20000000FE2F10B505F001F900F07FF8FFF713
:107F3000E5F8FEF780FEFFF77EFA10BD01463648F1
:107F40000068364A90422DD13348001D0068B0F1D8
:107F5000FF3F27D03048001D006818B32E48001D91
:107F60000068B0F1443F1DD02B48001D0068B0F1FF
:107F7000883F17D02848001D0068294A904211D038
:107F80002548001D0068244A08321268D2439042F6
:107F900008D12148001D006888420AD01E48001DF3
:107FA000006870471F48406E884202D01D48406EEE
:107FB000F7E70020F5E7184800681849884229D1FA
:107FC0001548001D0068B0F1FF3F23D01248001D86
:107FD0000068F8B11048001D0068B0F1443F19D0A6
:107FE0000D48001D0068B0F1883F13D00A48001DFD
:107FF00000680B4988420DD00748001D00680649FB
:1080000008310968C943884204D10348001D00684B
:108010000549486070470000300400085A3CC3A579
:10802000424553540000F81FEC1300201CB50020FB
:108030000190FF200090694601A8FEF732FC4FF046
:10804000E020006920F004004FF0E02108614FF4C7
:10805000FA510198B0FBF1F04FF0E02148610020A7
:1080600088610320086100200F4908601CBD0E488C
:10807000006870470C4800680C49086070470B485E
:108080000068704710B5084800680949B0FBF1F274
:1080900001FB12000449086008460068401C0860A3
:1080A00003F09AFC10BD00003400002038000020CE
:1080B0000084D71710B5012280210020FEF714FD9F
:1080C00080210020FEF786FD00200149086010BDD8
:1080D0003C00002070B505460C464348006840F45B
:1080E0008040414908600846006820F480400860EC
:1080F0003D480C30006840F004003B490C310860FA
:108100000846006840F4804008608C224915002031
:10811000FEF7EAFC8C224FF480610020FEF7E4FCBD
:1081200007224FF4C0610020FEF726FD2F48684368
:10813000B0FBF4F02E490880081D008842F20C01C3
:1081400008432B49091D08800846008840F48070C8
:1081500008800846008840F020000880022325227D
:1081600003210846FFF794FD70BD0246002100E0A0
:10817000491C1F480838008800F0400018B944F630
:1081800020608142F4D344F62060814204D2184832
:10819000001F0280012070470020FCE770B50446F4
:1081A0000D46164609E014F8010BFFF7DEFF20B973
:1081B0004FF4E1312020FFF78DFF281EA5F10101CA
:1081C000CDB2F0D1012070BD10B509480838008843
:1081D00000F0200030B10648001F0088C1B20548F9
:1081E00002F0A3FB10BD00001438024040420F0013
:1081F000083801404C030020704770477047014623
:108200001220704710B54022D1000020FEF76CFC10
:108210004FF400710020FEF7DDFC00224FF4005106
:108220001046FEF761FC00224FF480411046FEF735
:108230005BFCC02210210020FEF756FC10BD10B5DB
:108240004FF400710020FEF7C5FC10BD10B54FF4CF
:1082500000710020FEF7C8FC10BD10B500245F4877
:10826000006840F001005D490860FFF7CBFF05E0C2
:10827000601C0446B0F57A7F00D905E057480068D5
:1082800000F002000028F3D000BF544820300068FE
:1082900040F40070514920310860504814300068A3
:1082A00040F400704D49143108600846006820F41D
:1082B000007008604A4800684A4908404849086018
:1082C000084600680860084600680860081D0068E5
:1082D000454908404249091D086008460068086091
:1082E000084600680860084600680860084600689C
:1082F00008603B482C30006839492C310860384808
:108300003C30006820F01F0035493C3108600846C9
:10831000006840F0040008603148001D006840F02B
:1083200001002F49091D086010BD014600222C489C
:10833000001D006840F08040294B1B1D186007E0BD
:10834000501C80B20246B0F5FA6F01DD0020704784
:108350002348001F006800F002000028F0D02048E9
:108360005430006808800120F1E7F8B504460D4656
:108370000026002000901A48001D006840F001000F
:108380001749091D0860002718E06846FFF7CDFF70
:10839000012807D1BDF8000006444FF4FA7002F03E
:1083A0000DF909E00E48001D006820F001000C499D
:1083B000091D08600020F8BD781CC7B2A742E4DBA5
:1083C000B6FBF4F028800648001D006820F001008C
:1083D0000349091D08600120EDE700000038024054
:1083E00004240140FFFEFFFCFDF7FFC038B5044642
:1083F000002000900025FFF722FF69460A20FFF7C2
:10840000B4FF01280CD1BDF8000040F2393100FB67
:1084100001F5C5F34F202080FFF718FF012038BD7C
:10842000FFF714FF0020FAE7F8B50546002000909A
:10843000002400266846FFF7D9FF01286FD19D4828
:108440000088BDF80010884201DC642604E19948E8
:108450004088BDF80010884213DC96480088954992
:108460004988401A0A2190FBF1F092494988BDF8E9
:108470000020511A91FBF0F0C4B204F15A00C6B2C8
:10848000EAE08C488088BDF80010884213DC8948F7
:10849000408888498988401A0A2190FBF1F0854973
:1084A0008988BDF80020511A91FBF0F0C4B204F1A4
:1084B0005000C6B2D0E07F48C088BDF800108842A6
:1084C00013DC7C4880887B49C988401A0A2190FBCC
:1084D000F1F07849C988BDF80020511A91FBF0F0FD
:1084E000C4B204F14600C6B2B6E072480089BDF8D5
:1084F0000010884214DC6F48C0886E490989401A10
:108500000A2190FBF1F06B490989BDF80020511A4E
:1085100091FBF0F0C4B204F13C00C6B29CE0C1E0B3
:1085200064484089BDF80010884213DC6148008926
:1085300060494989401A0A2190FBF1F05D49498957
:10854000BDF80020511A91FBF0F0C4B204F13200E2
:10855000C6B281E057488089BDF80010884213DC1C
:108560005448408953498989401A0A2190FBF1F007
:1085700050498989BDF80020511A91FBF0F0C4B22E
:1085800004F12800C6B267E04A48C089BDF800106F
:10859000884213DC474880894649C989401A0A2124
:1085A00090FBF1F04349C989BDF80020511A91FBB5
:1085B000F0F0C4B204F11E00C6B24DE03D48008A9E
:1085C000BDF80010884213DC3A48C0893949098A4D
:1085D000401A0A2190FBF1F03649098ABDF80020C3
:1085E000511A91FBF0F0C4B204F11400C6B233E0AA
:1085F0003048408ABDF80010884213DC2D48008ABC
:108600002C49498A401A0A2190FBF1F02949498AEC
:10861000BDF80020511A91FBF0F0C4B204F10A0039
:10862000C6B219E02348808ABDF80010884212DCE7
:108630002048408A1F49898A401A0A2190FBF1F09C
:108640001C49898ABDF80020511A91FBF0F0C4B290
:10865000601CC6B200E001262E7017480078502832
:1086600003DD0420154908701AE0134800783C28FF
:1086700003DD03201149087012E00F480078282814
:1086800003DD02200D4908700AE00B480078142829
:1086900003DD01200949087002E000200749087045
:1086A0000120F8BDFF20287000200449087000BF99
:1086B000F7E70000C6FB0008400000204100002052
:1086C00000B58DB0302101A806F0FEFE30480078DC
:1086D00060BB4FF400510020FEF794FA28B94FF424
:1086E00080410020FEF78EFA40B12A48102308226C
:1086F000002100900C2000F083FC05E000232022E4
:1087000019460C2000F02AFD23480078C0EBC00178
:1087100001EB00101F49E63901EB4000102317223E
:10872000002100900D2000F06BFC0DE000232022C2
:1087300019460C2000F012FD01A810231722002179
:1087400000900D2000F05CFC0DB000BD10B513488A
:10875000007808B9FFF7B4FF10BD10B5FFF77DFD35
:108760000F48FFF761FE10BD70B506460C46154672
:108770000B48FFF759FE012805D1094800782870F9
:108780000120207070BD1220FCE7034601207047D5
:1087900042000020A2040108410000202601002020
:1087A0004000002010B5022201210020FEF79CF9B4
:1087B00010BD002043490880704710B501210020FA
:1087C000FEF720FA012801D1FFF7F3FF10BD10B525
:1087D00000204FF0E0210861282000F01F02012155
:1087E0009140394A430942F8231000BFFDF7F0FEDB
:1087F0004FF400610020FEF7F7F93448008820F0BC
:108800004000324908803248006820F480403049F6
:108810000860081F006820F48040091F08602C4889
:108820001438006840F001002949143908602848CC
:10883000006840F08050264908602648006840F0F3
:108840000400244908602448006840F002002249DE
:1088500008600846006840F0040008600846406868
:1088600040F48070486030BF10BD10B515480188D5
:108870000088401C134A1080B1F5967F0BD300206E
:108880001146088000F0AAFA02F02AF901F0D1F9A5
:10889000FFF79DFF11E00B480088C8280DD101208B
:1088A0000E49087000F07DFD0D49087800F0A9FD23
:1088B00000F094FA01200B49087010BD01200A490C
:1088C000086070474400002080E100E0003800406C
