:020000040800F2
:1008000010220020F5090008FD090008FF09000872
:10081000010A0008030A0008050A00080000000099
:10082000000000000000000000000000070A0008AF
:10083000090A0008000000000B0A0008C96200084D
:100840000F0A00080F0A00080F0A00080F0A000824
:100850000F0A00080F0A0008496B00080F0A000879
:100860000F0A00080F0A00080F0A00080F0A000804
:100870000F0A00080F0A00080F0A00080F0A0008F4
:100880000F0A00080F0A00080F0A00080F0A0008E4
:100890000F0A00080F0A00080F0A00080F0A0008D4
:1008A0000F0A00080F0A00080F0A00080F0A0008C4
:1008B0001B7900080F0A00080F0A00080F0A000839
:1008C0000F0A00080F0A00080F0A00080F0A0008A4
:1008D0000F0A00080D6400080F0A00080F0A00083C
:1008E000495C00080F0A00080F0A00080F0A0008F8
:1008F0000F0A000800F002F800F05AF80AA090E889
:10090000000C82448344AAF10107DA4501D100F0CA
:100910004FF8AFF2090EBAE80F0013F0010F18BF3D
:10092000FB1A43F001031847748F0000948F0000F6
:100930000A444FF0000C10F8013B13F0070408BF05
:1009400010F8014B1D1108BF10F8015B641E05D0A3
:1009500010F8016B641E01F8016BF9D113F0080F58
:100960001EBF10F8014BAD1C0C1B09D16D1E58BFEA
:1009700001F801CBFAD505E014F8016B01F8016B21
:100980006D1EF9D59142D6D3704700000023002494
:1009900000250026103A28BF78C1FBD8520728BF8F
:1009A00030C148BF0B6070471FB51FBD10B510BDEB
:1009B00007F06AFC1146FFF7F7FF06F073F907F03E
:1009C00088FC03B4FFF7F2FF03BC07F08FFC0000C4
:1009D00072B6704762B6704730BF72B662B680F3C7
:1009E0000888704780F310887047EFF3108072B664
:1009F000704700000948804709480047FEE7FEE7C6
:100A0000FEE7FEE7FEE7FEE7FEE7FEE7FEE7FEE7BE
:100A100004480549054A064B70470000370B00089B
:100A2000F50800081018002010220020101A0020DD
:100A3000101A00200CB50020019000908748006833
:100A400040F480308549086000BF8448006800F4A5
:100A5000003000900198401C0190009818B901984E
:100A6000B0F5A04FF1D17D48006800F4003010B11E
:100A70000120009001E0002000900098012859D149
:100A80007748006840F0040075490860084600682F
:100A900040F0020008600846006840F0010008606D
:100AA0006E482430006840F080506C492431086062
:100AB000C8146C49086000BF6A48406800F0100024
:100AC0000028F9D165480830006864490831086099
:100AD0000846006808600846006808600846006824
:100AE00020F47D0008600846006840F411000860AA
:100AF0005A48006840F080705849086000BF574865
:100B0000006800F000700028F9D0544808300068F0
:100B100020F003005149083108600846006840F0A1
:100B20000300086000BF4D480830006800F00C006A
:100B30000C28F8D10CBD10B54848006840F480700E
:100B4000464908604548083000684749084043491D
:100B50000831086041480068444908403F4908603E
:100B60000846006820F4802008603C48083000688F
:100B700020F47D003949083108600020091D086013
:100B8000FFF758FF3A4800683A49086010BD70B551
:100B900000220020002100240023304D08352D685C
:100BA00005F00C0232B1042A10D0082A12D00C2A07
:100BB00039D113E0294D2D1D2D68C5F342335D1C3D
:100BC0000126AE40F5032C4E356038E02B4D2A4E01
:100BD000356034E02A4D284E356030E01F4D083531
:100BE0002D6805F470101D4D08352D6805F4400181
:100BF000244D05EB90452878012505EB9151174DC3
:100C000008352D6805F4803434B91C4D4543B5FBD7
:100C1000F1F5194E356005E0194D4543B5FBF1F589
:100C2000154E35600BE00D4D2D1D2D68C5F342337B
:100C30005D1C0126AE40F5030F4E356000BF00BFBE
:100C4000064D08352D68C5F303150F4E725D0A4D2C
:100C50002D68D540084E356070BD00000038024058
:100C6000003C0240007000400CC0FF88FEFFFEEE1A
:100C70000804000808ED00E0000000200024F40053
:100C800000127A00040000200D00002030B58842D8
:100C900009D003460C4604E014F8015B03F8015B3D
:100CA000521E002AF8D130BDF0B503468B420DD05C
:100CB0001D460C4608E015F8016B14F8017BBE4296
:100CC00001D00120F0BD521E002AF4D10020F9E726
:100CD00010B5034602E003F8011B521E002AFAD1A8
:100CE00010BD70B588420AD203460C4604E014F8E1
:100CF000015B03F8015B521E002AF8D10DE0884227
:100D00000BD983188C1806E0651E2C462E785D1EC4
:100D10002B462E70521E002AF6D170BDF0B5054646
:100D20000C4616462F46314614E011F801CB3878B0
:100D300084450DD1012200E0521CA24204D211F8D8
:100D400001CBB85C8445F7D0A24201D1881AF0BD2E
:100D50005B1E491C002BE8D10020F8E770B5044663
:100D600000260E70254610460AE010F8016B05F8C3
:100D7000016B0E78761C0E70067806B970BD5B1E8E
:100D8000002BF2D100260E7000BFF7E70146B1F14B
:100D9000883F01D1022070479B480068884201D1FA
:100DA0000320F8E70020F6E770B505460C466078AA
:100DB00010B1012826D115E02946601D00F03CF94C
:100DC000C0B2207000B922E0A078012802D18F487B
:100DD000007A00E00120E070D4F81100FFF7D6FFA0
:100DE000207100BF22792178601DD4F80431984722
:100DF00020B1E078401EC0B2E07010B101206070F8
:100E000005E000BF05F058FA0020607000BF00BF89
:100E100070BD10B57E497F48FFF7C6FF10BD014683
:100E2000881E0C280FD2DFE800F0060E0E0A0E070F
:100E30000E080E0B0E0C00BF00BF0320704700BF52
:100E400000BF0620FAE700BF00BF0020F6E7F8B5B4
:100E500004460D266078704901EB0010C56800203B
:100E6000009005F03FFF6178884252DD00BFA17815
:100E70002868884242D12078022808D020780428A7
:100E800005D02078072802D02078092820D1A8682A
:100E9000E0B16078614901EBC000807918B909269A
:100EA00003F0DBF929E0601CA96888470646022E9A
:100EB00023D12868CF2800D90126E07800909DF83A
:100EC0000020211D601DFFF70CFF16E00A2614E02C
:100ED0002078052805D020780B2802D020780D280E
:100EE0000AD1E86830B1621D6946601CEB6898471A
:100EF000064602E00B2600E00C2609E005F1100092
:100F0000296805460068814202D22868FF28AED9C8
:100F100000BF9DF80000401CE07026713046F8BD0F
:100F20002DE9F8430746884614461E4604F111038E
:100F3000621C41463846009601F0CDFA054601286C
:100F400027D104F11100FFF782FF0546032D20D0C1
:100F500005F075FD04F081F9607C022812D0607CF8
:100F600005280FD0607C072802D0607C0B2801D1B7
:100F7000012D07D0607C092802D0607C0D2808D1A3
:100F8000012D06D0607CFFF74AFF6074204601F017
:100F90002DF9BDE8F8832DE9F04104460D461746CA
:100FA000A61D04F11B03324629462046FFF7B8FF71
:100FB0000120BDE8F08110B54FF48062184919484E
:100FC00000F01EFA4FF480621749124800F018FA38
:100FD0000020164948708870AFF24500C1F804013E
:100FE00000200B494870012088701148C1F80401A5
:100FF000104B03220021022002F01AFD10BD04490B
:10100000C1F80401704700002000002048160020AD
:101010009C0A0020840100206C8D000858170020D5
:101020009401002074010020940500209409002000
:10103000375D0008130E00082DE9F04106460C4606
:1010400000BF04B96AE000BF00BF204600F0EEF91F
:10105000012800D162E000BF06225049204600F07E
:10106000CDFA0546A56000BF204600F0DFF9012853
:1010700000D153E000BF1B2500BF204600F0FFF960
:10108000A84200D24AE000BFA0682844401E616820
:10109000B0FBF1F201FB12002168085C0830054446
:1010A00000BFFF2D00D930E000BF00BF204600F098
:1010B000E6F9A84200D231E000BF00BFA068284492
:1010C000801F6168B0FBF1F201FB12070623344A6E
:1010D0003946204600F0C0FA00B916E000BF00BF54
:1010E0002A463146204600F00EFA00B916E000BF4D
:1010F00000BFA5F10C0081B2B01D00F053F800B1A3
:101100000CE000BF2846BDE8F081A068801D616842
:10111000B0FBF1F201FB1200A06000BF0020F2E77B
:101120002DE9F04105460E46174600BF05B933E0EC
:1011300000BF00BF06221949284600F0AFF900B9E8
:101140002AE000BFB9B2304600F02CF8044600BFD8
:101150003A463146284600F0A1F900B91CE000BF2C
:1011600000BF2112284600F00CFA00B914E000BFBD
:1011700000BFE1B2284600F004FA00B90CE000BF5D
:1011800000BF06220649284600F088F900B903E0AE
:1011900000BF0120BDE8F0810020FBE7DC880008EB
:1011A000E288000870B503460C46002500260021A1
:1011B0000DE0585C80EA0502154810F8120080EA3C
:1011C0000605134830F812000612481C81B2A142ED
:1011D000EFDB46EA052070BDF0B504460D4600265B
:1011E00000271612D7B200210DE0605C80EA0603EA
:1011F000074810F8130080EA0706054830F8130086
:101200000712481C81B2A942EFDB47EA0620F0BD75
:10121000E8880008014604E00A2000E0401E00289B
:10122000FCD10A1EA1F10101F6D1704710B50446A8
:1012300005E005F003F940F2E630FFF7EBFF201E72
:10124000A4F10104F5D110BD2DE9F04104460D468D
:10125000174628E0B4F5004F03D247F69C7085424C
:1012600002D90020BDE8F08104F03F00C0F1400049
:10127000A84204D204F03F00C0F1400000E028463C
:101280000646F3B2A1B23A46A02003F063FF00B9CC
:101290000BE03444AD1B37444FF0FF31A02003F086
:1012A00045FF00B901E0002DD4D100BF0DB90120E8
:1012B000D8E700221146104600F07AF80020D1E766
:1012C0002DE9F04104460D46174628E0B4F5004FDD
:1012D00003D247F69C70854202D90020BDE8F08118
:1012E00004F03F00C0F14000A84204D204F03F00E7
:1012F000C0F1400000E028460646F3B2A1B23A46EB
:10130000A02003F05AFF00B90BE03444AD1B374472
:101310006FF07041A02003F009FF00B901E0002D3B
:10132000D4D100BF0DB90120D8E7002211461046E4
:1013300000F03EF80020D1E72DE9F04104460D46CB
:10134000174627E0B4F5004F03D247F69C7085425C
:1013500002D90020BDE8F08104F03F00C0F1400058
:10136000A84204D204F03F00C0F1400000E028464B
:101370000646F3B2A1B23A46A02003F046FF00B9F8
:101380000AE03444AD1B6FF07041A02003F0CEFEA4
:1013900000B901E0002DD5D100BF0DB90120D9E77A
:1013A00000221146104600F003F80020D2E70000AA
:1013B00070B506460C46154626B1012E09D0022E00
:1013C00012D109E0022002F01BFF0C4802F0A2FB40
:1013D0000BE005F051F808E02DB12B460522002165
:1013E000084602F025FB00E000BF00BF24B1012C3D
:1013F00002D0204603F045F870BD00005D520008A1
:10140000034600BF0BB90020704700BF19605A6047
:101410000020D86098600120F6E700BF00B970474F
:1014200000BF00218160C16000BFF8E70146D1E93B
:101430000202904201D1012070470020FCE70146E2
:10144000C868401C4A68B0FBF2F302FB13008A68CC
:10145000904201D1012070470020FCE70146D1E90C
:101460000202904204D9D1E90202801A401E70475C
:10147000D1E901021044CA68801A401EF7E701460C
:10148000D1E90220904205D24A68C86810448A68AF
:10149000801A7047D1E90220801AFAE72DE9F0415D
:1014A00004460F46154600BF14B90020BDE8F08180
:1014B00000BF00BF2046FFF7D1FFA84201D20020A5
:1014C000F4E700BFE1686068401AA84203D2E1680F
:1014D0006068401A00E028460646E26821688818DD
:1014E00032463946FFF7D2FBAA1BB9192068FFF72D
:1014F000CDFBE06828446168B0FBF1F201FB12000B
:10150000E0600120D2E72DE9F04104460E46154681
:1015100000BF14B90020BDE8F08100BF00BF204625
:10152000FFF784FF012801D10020F4E700BF00BFCE
:101530002046FFF7A4FFA84201D20020EBE700BF3E
:10154000D4E90101401AA84203D2D4E90101401AAA
:1015500000E028460746A268206881183A463046CF
:10156000FFF794FBEA1BF0192168FFF78FFBA068D7
:1015700028446168B0FBF1F201FB1200A060012079
:10158000C9E770B504460D4600BF0CB9002070BD18
:1015900000BF00BF2046FFF752FF012801D1002005
:1015A000F5E700BFE16820684554E068401C6168C9
:1015B000B0FBF1F201FB1200E0600120E7E710B59B
:1015C00003460C4600BF0BB9002010BD00BF00BF92
:1015D0001846FFF72BFF012801D10020F5E700BFD7
:1015E00099681868405C20709868401C5968B0FB86
:1015F000F1F201FB120098600120E6E7F0B5034626
:101600000C46154600BF0BB104B10DB90020F0BD6A
:1016100000BF9968002212E01868405CA65CB042E6
:1016200005D1501C0246A84202D1521E0AE00022F7
:10163000481C5E68B0FBF6F706FB17000146D86849
:101640008842E9D100BF58680844801A5E68B0FB40
:10165000F6F706FB1700DAE7F0B504460D4600BFC3
:10166000206800B10AB90020F0BD00BF00210EE0E3
:1016700068186668B0FBF6F706FB17002668365C4C
:1016800012F8017BBE4201D00020EDE7491C9942CF
:10169000EED30120E8E700001FB504467D4904F1C0
:1016A00009020868611D02F007FC00284DD0B4F85B
:1016B000030000900D20005B0390206901907548A5
:1016C000001D0068B0F1082F1FD155207249087025
:1016D00072480088402808D0802809D0B0F5807F63
:1016E00009D0B0F5007F0CD108E06D4802900BE006
:1016F0006C48029008E06C48029005E06B4802904C
:1017000002E06748029000BF05E0AA206249087025
:101710004FF008200290E07B694602F0D8FB98B1B8
:10172000F120634908700720A0705A48001F008804
:10173000A4F8030057480168C4F80510564801781A
:101740006172022004B010BD00BF0E20FAE710B590
:10175000044604F073FE56480078F1280DD1E07875
:101760004D490978884206D1A278D21ED1B2A0880C
:10177000A21D02F0F3FB012010BD4D480078F228B5
:1017800001D10120F8E70020494908700320F3E760
:1017900070B506460C46154604F050FE44480078E5
:1017A000F1280BD12946204602F010FC20B1F2208E
:1017B0003F490870012070BD0020FCE73C480078DC
:1017C000F22801D10120F6E70020394908700320F2
:1017D000F1E710B5044636480078F22822D1E079C6
:1017E000217A4840E071207AE17948402072E0791E
:1017F000217A4840E0710722115BD4F8030002F01F
:101800000BFC012814D12348001F02F059FC78B1C9
:10181000F3202749087002F066FC48B104F02CFE62
:10182000012010BD22480078F32801D10120F8E7FB
:1018300000201F4908701220F3E710B50446A07875
:10184000012801D00F2010BDE078492802DBE078A4
:101850005D2801DD0E20F6E702F018FCE1788842F1
:101860000CD0E07802F0E7FB08B91220EBE7114B4F
:101870004FF448720021084602F0DAF80120E2E74E
:1018800070B506460C46154602F000FC2870012093
:10189000207070BD040400081E0000204C00F81FDA
:1018A0000084000800C4000800980108002803080C
:1018B0001D000020FF56000810B580222149224853
:1018C000FFF79EFD10BD1CB5072269461E48FFF7B5
:1018D0001AFE58B1DDF803309DF802209DF8011082
:1018E0009DF8000000F048FA01201CBDFFF7E4FF5E
:1018F0000020FAE72DE9FC4105460C4616461F4636
:10190000124800EBC500807918B9C72C16DDDD2C14
:1019100014DA8DF800508DF801408DF80260CDF892
:101920000370072269460848FFF7B8FDAFF2690364
:10193000C8220021032002F07BF801E002F08DFCB8
:10194000BDE8FC81B40B0020A40B00205817002038
:1019500038B5A520009000BF4FF4005004466A46F9
:101960000121FFF7ADFCBC4890F8720670B140F25F
:1019700073620021B848FFF7ABF900BF42F20100E3
:101980000446B54A40F27361FFF79AFC38BD10B5C2
:1019900000BF42F201000446AF4A40F27361FFF714
:1019A00053FC00B910BDAC4890F87206322801DD36
:1019B000FFF7CEFF00BFF5E72DE9F04105460E46E3
:1019C00000241FE004EB4410A349085CC0B104EB01
:1019D00044100844C07C1230C7B204EB44100A46DD
:1019E0001044811C3A463046FFF75EF940B904EBDB
:1019F000441099490844407828700120BDE8F081DE
:101A0000601CC4B2944890F87206A042DADC002050
:101A1000F4E710B5034601221FE000210DE001EBC1
:101A200041108D4C205C30B101EB411020444078D6
:101A3000904200D106E0481CC1B2874890F8720677
:101A40008842ECDC00BF844890F87206884202D1DC
:101A50001A70012010BD501CC2B2FE2ADDDB00202E
:101A6000F8E7024600210EE001EB41107A4B185CCA
:101A700038B101EB411018444078904201D108463A
:101A80007047481CC1B2744890F872068842EBDC7B
:101A9000FF20F5E7704890F87206322801DB01203C
:101AA00070470020FCE72DE9F04104460D4616463C
:101AB00004EB441068490844C07C1230C7B204EB00
:101AC00044100A461044811C3A463046FFF7DEF8BF
:101AD0002F700120BDE8F0812DE9F04704460E4645
:101AE00017461D46A5F10209322C3DDC99F813007A
:101AF000123000F0FF0804EB4411574A1144881CCF
:101B000042462946FFF7C2F8012004EB4411524A2D
:101B1000505404EB441011460844467000BF42F292
:101B20000100212101FB040A04EB44101146421874
:101B300021215046FFF7C4FB9FB1474890F8720639
:101B4000401C454981F8720600BF42F2010143483A
:101B5000414A801A01EB000A404A01215046FFF732
:101B6000AFFB0120BDE8F0870020FBE770B504461D
:101B7000394890F87206401EA0423AD0364A92F890
:101B80007226521E02EB4212334BD11804EB441260
:101B9000D0182122FFF77AF800BF42F2010021217C
:101BA00001FB040504EB44102B494218212128466F
:101BB000FFF786FB284991F87216491E01EB411187
:101BC000254A881821220021FFF782F800BF42F23F
:101BD0000101214890F87206401E212202FB0015E7
:101BE00004EB44101C49421821212846FFF768FBEA
:101BF00015E004EB4411184A881821220021FFF750
:101C000067F800BF42F20100212101FB040504EB4B
:101C100044101149421821212846FFF751FB0E4874
:101C200090F87206002814DD0B4890F87206401EEA
:101C3000094981F8720600BF42F201010748064ACD
:101C4000801A0D18054A01212846FFF739FB0120AB
:101C500070BD0020FCE70000340C0020A61200201C
:101C600010B5FFF794FE10BD10B5FFF771FE10BD63
:101C700010B50446092C3AD2DFE804F039050B11FF
:101C8000171D23293100994201DA012010BD0020DF
:101C9000FCE7994201DC0120F8E70020F6E79942D1
:101CA00001DD0120F2E70020F0E7994201DB01208D
:101CB000ECE70020EAE7994201D10120E6E70020A5
:101CC000E4E7994201D00120E0E70020DEE79942F5
:101CD00003DC9A4201DB0120D8E70020D6E79942D5
:101CE00001DC9A4201DA0120D0E70020CEE7002093
:101CF000CCE70146092916D2DFE801F015090F0DDE
:101D00000B0507111300062070470520FCE704208F
:101D1000FAE70120F8E70220F6E70320F4E70820BD
:101D2000F2E70720F0E70020EEE70346092B1ED27A
:101D3000DFE803F01D05060A0B1D1D0F160000BF8E
:101D40000868401C086014E000BF0868401E086076
:101D50000FE00868401C08601068401E106008E032
:101D60000868401C08601068401E106001E00020F8
:101D7000704700BF0120FBE72DE9FE4F05460E46E8
:101D800017469846002484E004EB44104549085C5B
:101D900001287CD1012F79D14FF0000904EB4410C8
:101DA0000844007A010604EB44103E4A1044C0790E
:101DB00001EB004104EB44101044807901EB00205A
:101DC00004EB44111144497900EB010904EB441080
:101DD000114608448078A84257D104EB44100844C7
:101DE000C078B04251D104EB441111440879434604
:101DF00000224946FFF73CFFE8B304EB44102949B1
:101E00000844007B010604EB4410264A1044C07AC3
:101E100001EB004104EB44101044807A01EB0020F8
:101E200004EB44111144497A00EB010904EB44101E
:101E300011460844143004EB44111144C97C04EBEE
:101E40004412184B1A44927CCDE90021029004EB15
:101E500044119C46614491F80EC004EB44119A462B
:101E60005144C97B0CEB01218AB204EB44119C461E
:101E700061444B7C02E008E009E007E004EB441118
:101E80006144487B494600F06AFA00E000BF601CEC
:101E9000C4B2044890F87206A0423FF775AF012023
:101EA000BDE8FE8F340C002010B50446012C02D191
:101EB000FFF7F0FD10BDFF20FCE770B504460D46AE
:101EC000012C03D12846FFF7CCFD70BDFF20FCE7B5
:101ED00030B503460C46012B18D100210BE001EB75
:101EE0004110BE4D285C20B101EB411028444078E0
:101EF0005054481CC1B2B94890F872068842EEDCD2
:101F0000B64890F872062070012030BDFF20FCE733
:101F10002DE9F04104460D4616461F46012C06D118
:101F20003A4631462846FFF7BEFDBDE8F081FF2066
:101F3000FBE72DE9F04104460D4616461F46DDF845
:101F40001880012C12D1FF2D03D1A44991F87216EB
:101F500000E02946084643463A463146FFF7BCFDB5
:101F600010B10120BDE8F0810020FBE7FF20F9E778
:101F700070B50446012C10D140F2736200219748DD
:101F8000FEF7A6FE00BF42F201000546934A40F26A
:101F90007361FFF795F9012070BDFF20FCE770B574
:101FA00005460C46012D07D1322C03DA2046FFF7F7
:101FB000DDFD70BD0020FCE7FF20FAE770B50446A8
:101FC0000D461646012C04D131462846FFF7F4FC95
:101FD00070BDFF20FCE770B504460D46012C03D10F
:101FE0002846FFF716FD70BDFF20FCE72DE9FC41F8
:101FF00007460C46224601A93846FFF7DFFFF0B935
:102000003846FFF751FF012802D11320BDE8FC81BB
:1020100001A93846FFF7DFFF012802D10126FF257D
:1020200001E01420F2E7334600949DF8042029468D
:102030003846FFF77EFF012801D01020E6E7A41EF6
:102040009DF8040020700120E0E72DE9F8430746E1
:102050000D4616464FF0000929463846FFF72DFF7A
:102060008046FF2801D0002402E001244FF0FF0841
:1020700023462A46414638460096FFF75AFF8146D6
:102080004846BDE8F8832DE9F04104460D46164662
:102090001F4629462046FFF710FF8046FF2808D03C
:1020A0003B46324641462046FFF732FF0120BDE85D
:1020B000F0810020FBE72DE9F04107460E4614466B
:1020C0001D46FF2E07D12A4621463846FFF700FF5E
:1020D0000120BDE8F08131463846FFF7EEFE28705A
:1020E000FF2802D001202070F3E70020F1E770B54F
:1020F00005460C46FF2C03D12846FFF739FF70BD7B
:1021000021462846FFF7D9FE0646FF2804D031466F
:102110002846FFF744FFF2E70120F0E72DE9F04100
:102120000546002400262D4890F8720610B90120BB
:10213000BDE8F0811FE004EB441028490844807892
:10214000A84216D101260A4692F87226521E02EBC8
:1021500042120B46D11804EB4412D0182122FEF78C
:1021600095FD1E4890F87206401E1C4981F87206C3
:1021700001E0601CC4B2194890F87206A042DADC93
:1021800046B100BF42F201000746144A40F27361B3
:10219000FFF796F80120CBE770B505460E46002400
:1021A00000BF14E004EB44100C490844C078A84276
:1021B0000AD104EB44100844D0F80500B04203D122
:1021C0002046FFF7D3FC02E0601CC4B200BF034806
:1021D00090F87206A042E5DC012070BD340C0020AE
:1021E00010B57049012002F067F910BD70B50446C2
:1021F000012020706B4809380068C4F80100694864
:1022000009384168E160D4F806006649093949682F
:1022100088420AD163480938407A401CC1B26148FB
:10222000093841722174604D1EE0607901281ADD81
:10223000267C5C480938407A401CC1B259480938AC
:1022400041722174584D207D00F115022146284627
:10225000FEF766FF20B9002203210220FFF7A8F84D
:102260002674524D00E0514D207D00F115022146AB
:102270002846FEF755FF80B94C48854205D100221B
:1022800002210846FFF794F807E04748854204D149
:10229000002203210220FFF78BF870BDF0B5BFB01C
:1022A00005460E4617466C4610222946601CFEF76E
:1022B000EDFC3C480938407A401CC1B23948093825
:1022C000417221740422314604F11100FEF7DEFC54
:1022D000F27839460DF11500FEF7D8FC2046FFF7DD
:1022E00085FF3FB0F0BDF0B585B004460D461646FB
:1022F0001F4601208DF808004FF08830CDF8090006
:102300000020ADF80D008DF800008DF801408DF82B
:1023100002508DF803603A46694601A8FFF7BEFFF8
:1023200005B0F0BDF0B591B005460E4614461F4607
:1023300001208DF804008DF805508DF806608DF8A9
:1023400007402246394602A8FEF7A0FC201DC2B273
:1023500001AB00210846FFF7C6FF11B0F0BD2DE923
:10236000F04786B004460D4616461F46DDE90F9A33
:10237000DDF838808DF80C40CDF80D50ADF81160C7
:1023800004208DF804008DF806808DF805708DF816
:102390000790524601A902A8FFF780FF06B0BDE8EA
:1023A000F0870000511600207401002084010020F5
:1023B0002DE9F04106460F46042506E0681E305C14
:1023C000FF2800D003E0681EC5B2002DF6DC00BF78
:1023D0000024601E38601CE0305DFF2817D004F038
:1023E00081FC804610E0A8F10100C0B28046FE49A1
:1023F00001EBC000005D315D884205D0012101FA8A
:1024000008F1386888433860B8F1000FEBD1601CE0
:10241000C4B2AC42E0DB2846BDE8F08130B50246EC
:10242000002138E0F14800EB01100068D2F80B40C1
:10243000A0422ED100230BE0EC4800EB0110083045
:10244000C05CD47BA04201D1002030BD581CC3B277
:10245000052BF1DBE54800EB0110407B401CC0B2CE
:10246000E24C04EB01146073052490FBF4F504FBCB
:102470001500DE4C04EB01146073D47BDB4800EBE9
:1024800001100830D94D05EB01156D7B4455012035
:10249000DBE7481CC1B21429C4DBD5480078401CD6
:1024A000C0B2D34C2070142490FBF4F504FB15004B
:1024B000CF4C2070D07BCD4CCD4D2D7804EB051446
:1024C0002072D2F80B40C948C94D2D7800EB051099
:1024D00004600120B9E72DE9F84F834616461C46F3
:1024E0000A9F3068C3490968884208D03068C249E9
:1024F000884204D0BF480068401C00287ED1304686
:10250000FFF78CFF10B90820BDE8F88F307901285B
:102510000BD1D6F80500B7494968884201D006209A
:10252000F2E70020B54908600EE23079052807D1AE
:10253000D6F8050020B9D6F80B00B049086003E2D0
:102540004FF0000A00BFAE48806840F00100AC497F
:102550008860AC48006D0860AA48406D0860A948D2
:10256000406E0860A84800680860A7480E30006800
:102570000860084600688246D6F80B009F4908604C
:102580006946701DFFF714FF8146009800FA0AF0B3
:102590000090D144009808B90720B5E730790228A7
:1025A00033D1E2783946F81CFEF79BFB0322611C0D
:1025B0003846FEF76BFBE078C01C00F0FF080020F7
:1025C0006070A070E07001251AE00120A840009919
:1025D000084088B1727A09F0FF01284602F07CF8C1
:1025E00050B1E178C81942463946FEF74FFBE07812
:1025F0003D54E0784044E070681C00E0AAE1C5B2B8
:1026000004F070FBA842E0DC9DE1307903282AD178
:1026100000206070A070E07001251FE00120A8403C
:1026200000990840C0B1E078C319727A09F0FF013F
:10263000284602F0B8F9E078385C68B1E07817F81D
:102640000080E2783A44511CE278D0194246FEF705
:1026500048FBE0784044E070681CC5B204F042FBDF
:10266000A842DBDC6FE13079042857D1607890BB59
:10267000E2783946F81CFEF734FB0322611C384629
:10268000FEF704FBE078C01C00F0FF08002060703B
:10269000A070E070012519E00120A84000990840D1
:1026A00090B1B6F8090058497E31098889B288424C
:1026B0000AD1E178C81942463946FEF7E7FAE078D0
:1026C0003D54E0784044E070681CC5B204F00AFB59
:1026D000A842E1DC37E1FFE704F004FB401E61782B
:1026E000884201DA0E200FE76178012088400099C6
:1026F000084088B1B6F8090043497E31098889B29B
:102700008842AFD040487E30008880B21D2803D177
:10271000B6F809001E28A5D00E20F5E63079062867
:1027200032D1E2783946F81CFEF7DBFA0322611C4D
:102730003846FEF7ABFAE078C01C00F0FF08002036
:102740006070A070E070012519E00120A840009998
:10275000084090B1B6F80900234901EBC50189880A
:1027600088420AD1E178C81942463946FEF78EFA06
:10277000E0783D54E0784044E070681CC5B204F055
:10278000B1FAA842E1DCDEE03079072845D1E278F1
:102790003946F81CFEF7A5FA0322611C3846FEF7FD
:1027A00075FAE078C01C00F0FF0800206070A0708F
:1027B000E07001252CE00120A8400099084090B16C
:1027C000B6F80900084901EBC501C97988420AD168
:1027D000E178C81942463946FEF758FAE0783D5488
:1027E000E0784044E07011E058170020A812002063
:1027F00024000020481600204245535420000020A9
:10280000003002400000F81F82030008681CC5B2B7
:1028100004F068FAA842CEDC95E03079142858D14B
:10282000607898BBE2783946F81CFEF75AFA032222
:10283000611C3846FEF72AFAE078C01C00F0FF0859
:1028400000206070A070E07001251AE0424850F846
:102850003500D6F80510884211D1B6F809003F4975
:10286000098889B288420AD1E178C81942463946B6
:10287000FEF70CFAE0783D54E0784044E070681CC4
:10288000C5B204F02FFAA842E0DC5CE0FFE704F0F8
:1028900029FA401E6178884201DA0E2034E6607819
:1028A0002D4951F83000D6F8051088420FD1B6F8FE
:1028B00009002A49098889B2884244D027480088FB
:1028C00080B21D2803D1B6F809001E283BD00E2087
:1028D0001AE63079162834D1E2783946F81CFEF72A
:1028E00000FA0322611C3846FEF7D0F9E078C01CDC
:1028F00000F0FF0800206070A070E07001251BE070
:10290000154850F83500D6F80510884212D1B6F8AF
:102910000900114901EBC501898888420AD1E17893
:10292000C81942463946FEF7B1F9E0783D54E078DF
:102930004044E070681CC5B204F0D4F9A842DFDC62
:1029400001E00520E0E500BFD6F80B00C6F8050061
:102950000120D9E50420D7E558170020000400081D
:102960002DE9F8430446002705F0C8FC0746A07887
:102970003841A0706946201DFFF71AFD0646F01980
:10298000C6B2A078032802DA0F20BDE8F88304F06D
:10299000A9F90146E078401C3844C0B2814205DB09
:1029A000207A401C3844C0B2102801DD0E20ECE72C
:1029B000A07A012828D1E07828B1E078FF2802D059
:1029C000207AFF2801D10E20DFE7E178012088403E
:1029D00000990840B0B1A0780938E072E07A202868
:1029E0000EDA207A012802D1A0780938E072227A22
:1029F000E07804F10B03314601F08DFFC0B2C4E76B
:102A00000F20C2E70720C0E7A07A00286DD1E07848
:102A1000FF283FD1C6B9207AFF2802D101F040FC3F
:102A200063E001250BE00120A8400099084020B197
:102A3000227A3146284601F0D2FE681CC5B204F065
:102A400051F9A842EFDC50E001251EE00120A8402A
:102A500000990840B8B1207AFF280FD14FF0000844
:102A600008E0E0784246314601F0B9FE08F1010085
:102A700000F0FF08B8F1100FF3DB04E0227A3146D2
:102A8000284601F0ACFE681CC5B204F02BF9A84240
:102A9000DCDC2AE0E178012088400099084010B38E
:102AA00066B9207AFF2803D1E07801F074FE1CE0BB
:102AB000227AE078314601F092FE16E0207AFF2873
:102AC0000BD1002506E0E0782A46314601F087FE6A
:102AD000681CC5B2102DF6DB07E0227AE07831469B
:102AE00001F07DFE01E007204FE701204DE7F8B53A
:102AF00004460E4615466946201DFFF759FC074659
:102B0000A078032801DA0F20F8BDE07838B104F08E
:102B1000E9F8E178884202DD207A102801DA0E20F7
:102B2000F2E7E178012088400099084068B1227AF4
:102B3000E0782B46394601F036FF2878307032783D
:102B4000691C2846FEF7CDF803E00020307007200E
:102B5000DAE70120D8E72DE9F8430446002705F01D
:102B6000CDFB0746A0783844A0706946201DFFF7CA
:102B70001FFC064646EA0700C6B2A078032802DA20
:102B80000F20BDE8F88304F0ADF8E178491C394422
:102B9000C9B2884205DB207A401C3844C0B21028F4
:102BA00001DD0E20EDE7A07A012817D1E07828B1E9
:102BB000E078FF2802D0207AFF2801D10E20E0E73C
:102BC000E178012088400099084028B1227AE07815
:102BD000314601F00DFD72E00720D2E7A07A00280F
:102BE0006DD1E078FF283FD1C6B9207AFF2802D105
:102BF00001F086FB63E001250BE00120A84000996D
:102C0000084020B1227A3146284601F083FC681C36
:102C1000C5B204F067F8A842EFDC50E001251EE0E1
:102C20000120A84000990840B8B1207AFF280FD1B0
:102C30004FF0000808E042463146284601F06AFCA1
:102C400008F1010000F0FF08B8F1100FF3DB04E019
:102C5000227A3146284601F05DFC681CC5B204F0BA
:102C600041F8A842DCDC2AE0E178012088400099A4
:102C7000084010B366B9207AFF2803D1E07801F04C
:102C800024FB1CE0227AE078314601F043FC16E098
:102C9000207AFF280BD1002506E0E0782A4631464D
:102CA00001F038FC681CC5B2102DF6DB07E0227A73
:102CB000E078314601F02EFC01E0072061E70120B9
:102CC0005FE7F8B504460D4616466946201DFFF736
:102CD0006FFB0746A078032801DA0F20F8BDE078E3
:102CE00038B103F0FFFFE178884202DD207A102836
:102CF00001DA0E20F2E7E1780120884000990840CF
:102D000040B101202870227AE078394601F0E4FCD5
:102D1000307003E0002028700720DFE70120DDE7A6
:102D200010B5C4B02A48447A03F089FEBB208DF860
:102D30001000284800788DF8110026480078401CC3
:102D4000244908702248007A0978884203DAFF2073
:102D50008DF81000022404A8B521CDE900140290DA
:102D60001B480123002201681846FFF7F8FA44B017
:102D700010BD10B500201749087015484289007A27
:102D8000811CAFF26303012000F052FE10BD10B5AC
:102D9000002002F071FB10BD3EB5002502F073FB70
:102DA0000546002410E00A48007A401CC0B2B62153
:102DB000CDE901050091064801230022016818466B
:102DC000FFF7CDFA601CC4B2022CECDB3EBD000064
:102DD000E81300202600002010B504466248007861
:102DE00008B1122010BD01205F490870D4F803001B
:102DF0005E490860072000594860E07A0872217B2C
:102E00005A4841720D20015B58484181584B4FF49C
:102E10007A720021084600F00BFE0120E2E75348D9
:102E2000006870475148007A704703460D200870CB
:102E30004E48006810604D48406850604B48007A2A
:102E400010724A48407A507248484089508146483A
:102E5000007810730120704770B504460025424881
:102E60000078012801D0122070BD02203E49087070
:102E7000D4F803003D490860072000594860E07A13
:102E80000872217B394841720D20015B374841812E
:102E9000012002F0F1FA374B41F288320021084656
:102EA00000F0C6FD02F0EFFA05463048007A421CF9
:102EB00000212846FDF70CFF0120D5E703460D2031
:102EC00008702A4800681060284840685060274809
:102ED000007A10722548407A507224484089508107
:102EE0002148007810730120704710B50446214B2B
:102EF00041F288320021084600F09AFDE078FF2870
:102F000012D11948007802280ED11A4800F002FEAA
:102F1000FFF73DFF184B4FF47A720021084600F08E
:102F200087FD002010490870012010BD70B50646CD
:102F30000C4615460120207002F0A7FA28700120E7
:102F400070BD10B504460020074908700B4800F01A
:102F5000E1FD012010BD0346012008700248007801
:102F6000107001207047000025000020E8130020A9
:102F7000732D00088F2D0008992D0008212D0008C1
:102F800010B5002001F03CF910BD10B5044601F069
:102F90004AFA01F05FFDFEF763FEFEF78DFC0022AA
:102FA00007210220FEF704FAAFF22B034FF47A72E6
:102FB0000021084600F03CFD10BD70B5044600201D
:102FC000087042F290700D7850530878801C087099
:102FD000F74800680D7850510878001D0870F448D3
:102FE000001D00680D7850510878001D08704FF0E2
:102FF0000060D0F800030D7850510878001D08706B
:10300000EB4BF43B05E01D780E78701C087095556D
:103010005B1C18785A2802DC18783028F3DA012073
:1030200070BD10B50346987860B1E148001F006894
:10303000B3F80340A04205D0B3F803004FF6FF7485
:10304000A04212D100200870D948001F00880C78D7
:1030500010530878801C0870D54800680C7810510F
:103060000878001D0870012010BD1220FCE710B583
:103070000446A078042801DCA07808B90F2010BD10
:10308000D4F80300CB490860042001F015FA08B910
:103090001020F4E70120F2E70346C64800681060FC
:1030A00004200870012070470346C2484068106041
:1030B000042008700120704710B50446E078052808
:1030C00001DCE07808B90F2010BDE078B94908723A
:1030D0000831012001F0F0F908B91020F4E70120CF
:1030E000F2E70346B348007A107001200870704779
:1030F00070B50546A878192806DCA878052190FB4C
:10310000F1F201FB120008B10F2070BDA878052173
:1031100090FBF1F0C6B200240EE004EB8401E81C41
:10312000405C28B104EB8401E81C405C052801DD0B
:103130000E20EAE7601CC4B2B442EEDB002410E0CB
:1031400004EB8400401CE91C0A5804EB8401E81CD1
:10315000405C401E97490A3101EB80000260601C10
:10316000C4B2B442ECDB93490A31142001F0A4F953
:1031700008B91020C9E70120C7E7F0B503460C469F
:103180000025D878FF2827D100202070002120E0DA
:1031900088480A3000EB81000068C0B185480A30D9
:1031A00000EB81000068401C88B1481C05EB8506D7
:1031B000905580480A3000EB8100066805EB8507D2
:1031C000501CC6512078401D2070681CC5B2481C98
:1031D000C1B20529DCDB13E0D87810B1D878052816
:1031E00001DD0F20F0BDD8781070D878401E714EE8
:1031F0000A3606EB80000068C2F801000520207046
:103200000120EFE710B50446E07808B1012000E0A6
:103210000020684988771E31012001F04DF908B976
:10322000102010BD0120FCE703466248807F012882
:1032300000D100E00020107001200870704770B5C8
:103240000446A078052801DCA07808B90F2070BDDD
:10325000E078A8B901250EE05749606841F83500CB
:10326000084600EBC501042001F044F908B910201C
:10327000EDE7681CC5B203F035FDA842ECDC14E0B4
:1032800003F030FDE178884201DC0E20DFE7E178D1
:10329000494A606842F83100E07802EBC00104203E
:1032A00001F028F908B91020D1E70120CFE72DE976
:1032B000F04104460D461646A078032801DCA078AC
:1032C00010B90F20BDE8F081E07890B90127002007
:1032D000287009E0384850F837002978705028786D
:1032E000001D2870781CC7B203F0FCFCB842F1DC6A
:1032F0000DE003F0F7FCE178884201DC0E20E1E705
:10330000E0782D4951F83000306004202870012009
:10331000D8E770B50446A078032801DCA07808B986
:103320000F2070BDE078B8B9012510E0A0882249CF
:1033300001EBC5018880204800EBC500011D02207B
:1033400001F0D8F808B91020EBE7681CC5B203F00B
:10335000C9FCA842EADC16E003F0C4FCE17888422C
:1033600001DC0E20DDE7A088E178134A02EBC10101
:103370008880E07802EBC000011D022001F0BAF85D
:1033800008B91020CDE70120CBE72DE9F041044634
:103390000D461646A078032801DCA07810B90F204E
:1033A000BDE8F081E078C8B901270020287010E05E
:1033B000040400084816002058170020FE4800EBBF
:1033C000C7008088297870522878801C2870781C63
:1033D000C7B203F087FCB842F0DC0EE003F082FCD9
:1033E000E178884201DC0E20DAE7E078F24901EB6F
:1033F000C00080883080022028700120D0E770B59E
:103400000446A078022801DCA07808B90F2070BD1E
:10341000E078B8B9012510E02079E74901EBC50152
:10342000C871E54800EBC500C11D012001F062F83C
:1034300008B91020EBE7681CC5B203F053FCA842A2
:10344000EADC16E003F04EFCE178884201DC0E2055
:10345000DDE72079E178D84A02EBC101C871E07854
:1034600002EBC000C11D012001F044F808B9102092
:10347000CDE70120CBE72DE9F04104460D46164685
:10348000A078022801DCA07810B90F20BDE8F081F7
:10349000E07898B90127002028700AE0C64800EBC0
:1034A000C700C079297870542878401C2870781C8F
:1034B000C7B203F017FCB842F0DC0EE003F012FCD8
:1034C000E178884201DC0E20E0E7E078BA4901EBC0
:1034D000C000C0793070012028700120D6E770B597
:1034E0000446A078052801DCA07808B90F2070BD3B
:1034F000E078B8B9012510E02079AF4901EBC501AA
:103500008871AD4800EBC500811D012000F0F2FF7D
:1035100008B91020EBE7681CC5B203F0E3FBA84232
:10352000EADC16E003F0DEFBE178884201DC0E20E5
:10353000DDE72079E178A04A02EBC1018871E078EB
:1035400002EBC000811D012000F0D4FF08B910205B
:10355000CDE70120CBE72DE9F04104460D461646A4
:10356000A078032802DD0F20BDE8F081E07808B1E3
:10357000A07898B90127002028700AE08E4800EB57
:10358000C7008079297870542878401C2870781CEE
:10359000C7B203F0A7FBB842F0DC0EE003F0A2FBD9
:1035A000E178884201DC0E20DEE7E078824901EB19
:1035B000C00080793070012028700120D4E72DE907
:1035C000F04104460D461746E178207901EB0020D2
:1035D00086B26079822802DD0E20BDE8F081B6F562
:1035E000004F01DB1120F8E760793044B0F5004F5F
:1035F00002DD7042287001E06079287029783A462F
:103600003046FDF721FE08B91020E6E70120E4E787
:1036100010B50446A07810B900F0FEFE08E0A078CE
:10362000052805D1E1788800221D0421FDF748FE18
:10363000012010BD70B506460C46154629462046A9
:1036400000F02FFF012070BD10B50446A0780128BE
:1036500001DD0F2010BDA078012805D1E07818B950
:10366000022000F0BEFE1CE0A07818B9012000F096
:10367000B8FE16E003F036FBE17888420FDDE07813
:1036800000F066FEE07800F048FEE07800F01DFEF5
:10369000E07801F080F8E078FEF740FD01E00E20D0
:1036A000D8E70120D6E770B50446A07808B90F2006
:1036B00070BDE078022804D003280ED005281FD161
:1036C00014E02079611DFEF791FC0546012D02D121
:1036D000A0700220ECE72846EAE761792079FEF73E
:1036E00006FD012800D1E3E71520E1E761792079A3
:1036F000A21DFEF7AAFC012800D1D9E71620D7E7C2
:1037000000BF00BF0E20D3E770B504460D46164635
:10371000E078012802D0042814D109E061792079E9
:1037200033462A46FEF7AFFC012800D170BD0AE0FF
:103730006179207933462A46FEF7BDFC08B10120A5
:10374000F4E700E000BF00BF1520EFE710B5044626
:10375000A07808B90F2010BDE07818B90120FEF755
:1037600007FC05E0E078FEF7D9FC08B91720F2E77E
:103770000120F0E770B506460D4614460F48008854
:103780004AF6552188422DD10C48801C0068401C07
:1037900040B30A48801C006820B30848801C0068B9
:1037A000B0F1443F1ED00548801C0068B0F1883F4E
:1037B00018D00248801C03E058170020800300083E
:1037C00000684F4988420DD04E4800688906D1F8FC
:1037D0008613C943884205D14FF00060D0F88203B8
:1037E000206002E04FF0FF302060201D01F0CDFA94
:1037F00010202870012070BD10B586B00446142139
:1038000001A804F017FD4FF0FF300090A0780828C1
:1038100002DA0F2006B010BD3A48801E00884AF632
:103820005521884227D137480068401C18B33548D5
:10383000006800B333480068B0F1443F1BD0314802
:103840000068B0F1883F16D02E4800682C498842A5
:1038500011D02C4800688906D1F88613C9438842E4
:1038600009D14FF00060D0F88203D4F803108842E9
:1038700009D10120CEE72448416E0720005981423A
:1038800001D00E20C6E72148049054F8030F2049C8
:10389000896841F001011E4A91601B49096D116060
:1038A0001949496D11601849496E11601146086047
:1038B000096805914AF65520ADF804002068CDF856
:1038C000060054F80309C043CDF80A0001AA1421E8
:1038D0000C48801E01F013FD80B1D4F80300009065
:1038E0006A4604214420FDF7EBFC0A4B4FF47A7240
:1038F0000021084600F09CF801208BE7022089E7B0
:1039000042455354820300080000F81FA542BD5AE7
:10391000003002401962000810B5032000F070FC6E
:103920001248FDF76CFB10BD10B504461048006846
:10393000B0F15A3F01D0122010BD0E48D0F804015A
:103940000A4988420BD10C48FDF759FBAFF2370307
:103950004FF496620021084600F06AF804E003483C
:10396000FDF74DFB01F00DFE0120E5E7E1630008E6
:103970004C0000209C0A0020375D00080020C84948
:103980000860704730B503460C4619460AE0084601
:10399000491CC34D2D1D05EB0010C068904201D19C
:1039A000C8B230BDA142F2D30020FAE77FB5054688
:1039B000BB4A1288BA4B5B88D118B94A10882A468C
:1039C000FFF7E0FF044694B3B5480088201A0128A9
:1039D00024D9601EB24A121D02EB00111022684663
:1039E000FDF754F9AE4B1B88E31A1A01AC4B1E8845
:1039F0001B1D03EB06111B1F1B885B1CA84E361DED
:103A000006EB0310FDF76DF9311F0A88091D01EB64
:103A1000021010226946FDF739F900BFA04800885E
:103A2000401C9F49088008464088401E48807FBD52
:103A30002DE9F0410746884615461E4600BF9848C6
:103A40000088974949880844142802DB0020BDE813
:103A5000F08100BF92480088914A5288811832460E
:103A60000020FFF78FFF00BB8D4B5B881A018C4B4A
:103A7000B3F800C01B1D03EB0C111B1F1B885B1C44
:103A8000DFF81CC20CF1040C0CEB0310FDF729F954
:103A9000834804880088401C8149088000218048B0
:103AA000001D00EB041001700CE03046FFF77EFFB4
:103AB0007B4800887A4A5288811832460020FFF7F6
:103AC00061FF441E7648001D00EB041047707448E7
:103AD000001D00EB0410C6604FB905B96D1C4FF016
:103AE000010800216E48001D00EB041001706C48B5
:103AF000001D00EB0410A0F802806948001D00EBD7
:103B00000410456000216648001D00EB0410816030
:103B100001209CE770B5054661480088604A5288DC
:103B200081182A460020FFF72DFF044604B35C4BA2
:103B30001B885B4E768833441B1B1A01584B1B1D98
:103B400003EB0411631E564E361D06EB0310FDF702
:103B5000C8F8301F0088A04205D2301F4088401EA0
:103B6000311F488004E04E480088401E4C490880C0
:103B700070BD7FB505464A4801882A460020FFF7F8
:103B800001FF044654B3601E454A121D02EB0011AA
:103B900010226846FDF77AF8414B1B881B1B1A015F
:103BA0003F4B1B1D03EB0411631E3D4E361D06EB00
:103BB0000310FDF796F8311F0988491E8AB2311F9C
:103BC0000A80091D01EB021010226946FDF75EF81C
:103BD000301F4088401C311F488000BF7FBD70B53A
:103BE0002F4C241D25E0207810B3E56800202070BC
:103BF000607830B1012807D002280ED0032814D1F4
:103C00000DE00120207000BF6188481E608019B956
:103C10002846FFF77FFF09E000BFA84706E0A84756
:103C200010B92846FFF776FF00E000BF00BF00BFD5
:103C300010341B480188001D00EB0110A042D2D8AF
:103C400070BD1748001D0AE08168491C8160426808
:103C5000914203D30021816001210170103010498D
:103C60000A88091D01EB02118142EDD8704770B539
:103C700004460B4800880A4A5288811822460020D0
:103C8000FFF780FE05460DB9002070BD044800888E
:103C9000801CA84201DD0120F7E70220F5E70000C3
:103CA000F4130020F0B585B00446A07800282ADD82
:103CB000A778E51C21E0A878102802DD0F2005B0C8
:103CC000F0BD02208DF80000A878C21C29460DF135
:103CD0000100FCF7DBFF6846FDF7B9F80646012E48
:103CE00008D0BDF80100A4F8030066710320A0709D
:103CF0000220E4E7A878C01C0544E01C3844A84230
:103D0000D9D80120DBE70F20D9E72DE9F043C1B076
:103D100080460C4616460020207098F802000028C5
:103D200041DD98F8029001A800EB090501AF4A4671
:103D300008F103013846FCF7A9FF2EE005202870A2
:103D400017F8010B687017F8010BA8700020E870D5
:103D50002846FDF77CF801281FD169782278501C8D
:103D60002070B154A9782278501C2070B154E878A2
:103D7000401EC1B2E9702278501C2070B154EA781C
:103D800021788819691DFCF781FF2078E9780844BB
:103D9000207020785A2800DD03E001A84844B8428A
:103DA000CCD800BF48E002F09DFF07463EE0404807
:103DB00000EB0710C56800BF287901282BD18DF8CA
:103DC000007128788DF8010100208DF80201E86863
:103DD00008B32078C01C82190DF2031140A8EB68CB
:103DE0009847012817D12178481C207077542978EA
:103DF0002278501C2070B1549DF803112278501C79
:103E00002070B15420789DF8031108442070207868
:103E10005A2800DD09E005F1100029680546006810
:103E2000814202D22868FF28C6D900BF381EA7F1F8
:103E30000101CFB2BBD100BF012041B0BDE8F0838A
:103E400070B5044602F04EFF0546A078012801D067
:103E50000F2070BDE078A84201D30E20F9E7E0788A
:103E600088B902F03FFF05460AE06D1E104800EBDE
:103E70000510806820B10E4901EB05118868804764
:103E8000002DF2D10BE0E078094901EB00108068C9
:103E900028B1E178064A02EB011188688047054B9A
:103EA0003222C8210120FFF7C3FD0120D1E7000025
:103EB0006C8D00085D52000803460868984202D8DD
:103EC0001068984201D2002070470120FCE72DE9DC
:103ED000F04106460D4606F0030010B10020BDE893
:103EE000F081B9480088402808D0802809D0B0F572
:103EF000807F09D0B0F5007F0CD108E04FF4F84482
:103F00000AE04FF43C4407E04FF4C83404E04FF4B7
:103F1000483401E0002400BF00BFE8687043A042BD
:103F200001D90020DBE7A9480670A9492868086084
:103F300068684860A8688860E868C860002705E08D
:103F40000020A44941F82700781CC7B2402FF7D3BE
:103F50009F498868214601F083F9C0E72DE9F041C7
:103F600004460D4617469A48C068A04201D3C82DA2
:103F700001DDBDE8F0816009964951F8200004F0A8
:103F80001F02012191400840F0B9914880688F4993
:103F9000097804FB01063A462946304601F07FF9CC
:103FA00068B160098B4951F8200004F01F0201211B
:103FB000914008436109874A42F8210004E086489D
:103FC0000078401C8449087000BFD2E730B5024633
:103FD0000B4600210020107013E048097D4C54F876
:103FE000200001F01F050124AC40204040B923F817
:103FF000021B1078801C10701078642800DD04E02B
:10400000491C7348C0688842E7D800BF107808B9D7
:10401000012030BD0020FCE770B505460C46A9B272
:104020006B4A9068FDF7BEF8201A84B20CB90120E3
:1040300070BD0020FCE738B505460095674C0BE0E5
:1040400001F008FA2168884205D16A460421204619
:1040500001F025F938BD241D6048E0308442EFD3DB
:104060005B4A10215D48203801F031F94FF480712E
:104070005A48203801F0F4F8554A102157482038A2
:1040800001F00DF92846FFF7D6FFE3E710B5534CD2
:104090000FE001F0DFF92168884209D1241F206870
:1040A000492802D320685D2800D906E0207810BD99
:1040B000241D4A48E0308442EBD300BF5320F6E78A
:1040C00070B50446FFF7E2FF05464FF480712046C5
:1040D00001F0C6F83E4A1021204601F0E0F82846DB
:1040E000FFF7A9FF70BD30B5ADF2044D02F0A6F99F
:1040F00002F0A5FC34480088402804D0802801D173
:10410000374C02E000BF374C00BF00BF01AA1021AE
:104110003248203801F0DBF801F09CF9C5B24022AA
:10412000294605A8FCF7D4FD2F4805900199069172
:1041300001F090F9079001F08DF90890FFF7A6FFC4
:10414000159005AA4421204601F0A9F8C8B301AA98
:104150004FF4806104F5806001F0B9F8C2AA7421BF
:10416000224801F0B4F8C298BD9001F073F9BE90F6
:1041700001F070F9C29001F06DF9C3904FF4006145
:10418000080401F06DF8E0B101AA4FF48061480421
:1041900001F085F8A8B10E48406802900A480088EE
:1041A000402802D14FF4904001E04FF4B04003901A
:1041B00002AA082109481C3801F071F80DF2044DDB
:1041C00030BDFFE70020F9E74C00F81F2700002072
:1041D0003815002048150020280000202004000881
:1041E0000060000800500008A53CC35A0003000806
:1041F00010B5254B0122FF210020FEF793F810BDDA
:1042000070B5054620480570012D02D14FF47A742F
:1042100000E005241D4B224600210846FFF708FC5C
:1042200070BD00B5B3B000208DF8060002AA911E43
:1042300001A8FFF76AFD8DF807009DF80600401CF5
:10424000C0B28DF806009DF806200DF1070300218D
:104250000846FEF748F833B000BD10B502F029F863
:104260004FF49671B0FBF1F201FB120000EB8000FD
:1042700040F6C41101EB4004AFF25903224600217D
:104280000846FFF7D5FB10BD29000020F1410008CA
:1042900010B5002220214FF43F60FDF74DF810BD0E
:1042A00010B501240AE004EB8401090101F58060E6
:1042B00000225021FDF740F8601CC4B202F012FD4C
:1042C000A042F0DCFFF7E4FF10BD2DE9F05F82466D
:1042D000504604F008F980460022F94B04F016F924
:1042E000064600224FF0814304F028F8044604F00B
:1042F000CDF8834600220A21FDF71EF8BDE8F09FA5
:1043000010B5012404E02046FFF7DFFF601CC4B2B3
:1043100002F0E8FCA042F6DC10BD10B50446E94806
:1043200000EB0410406828B1E64800EB0410416837
:104330002046884710BD10B5002404E02046FFF752
:10434000ECFF601CC4B202F0CDFCA042F6DC10BD54
:1043500010B504464FF0FF30DB4941F8340000202F
:1043600001EBC40188800120D74901EBC4018871A9
:104370000020D54901EBC401C871D34901EBC40247
:10438000210101F180000821FCF79AFF10BD10B552
:10439000002404E02046FFF7DBFF601CC4B202F0FB
:1043A000A1FCA042F6DC10BD10B54FF0FF30C749AC
:1043B0000860002001F0F3FEC44948600220087242
:1043C0000020487214220021C0480A30FCF780FC0B
:1043D0000020BE4988770A461F214020FCF770FF65
:1043E00010BD38B50446BAA000680090FFF7DCFFA6
:1043F000FFF7CDFFFFF79FFFFFF782FFFFF750FFAB
:104400000120FDF7B5FD022C02D16846FDF715FA33
:104410000120FFF7F5FE38BD10B5002240211046FF
:10442000FCF78AFF10BD10B5A84A1F214020FCF7F9
:104430000BFFA649486801F0B2FEC0B1AFF2190304
:10444000322200210846FFF7F3FAA2480078401C08
:10445000C0B2A0490870032812DDAFF23500FFF7A3
:1044600059FBFFF7D9FF0120FFF7BBFF08E0994890
:104470000078002804DD00209649087002F034FC22
:1044800010BD38B50446A0006A460421FCF7DCFEE6
:104490000098401C0090A0006A460421FCF710FF21
:1044A00038BD70B504460D464020207021782A465C
:1044B0000020FCF7C9FE70BD70B505460C46834967
:1044C000611A01F1400022462946FCF7F9FE70BD51
:1044D00070B504460D4607E005EBC402210101F169
:1044E00080000821FCF7B0FE201EA4F10101CCB22F
:1044F000F2D170BD70B505460C467348261AF10816
:104500000901803106F00702881822462946FCF787
:10451000D7FE70BD2DE9F74F86B089461446484650
:1045200003F0E1FF054600224FF0804303F0EEFF69
:1045300082468B46069803F0D6FF07460022604B62
:1045400003F0E4FF054600224FF0814303F0F6FE3E
:1045500052465B46CDE9000103F0F0FECDE90201D1
:1045600003F094FF05AA02210490FCF76DFE102CC5
:104570000CDA0120A040BDF81410084030B1012031
:10458000A040BDF814108143059107E0FF2C02D133
:104590000020059002E009B0BDE8F08F484603F026
:1045A000A2FF054600224FF0804303F0AFFF824692
:1045B0008B46069803F097FF07460022404B03F016
:1045C000A5FF054600224FF0814303F0B7FE524697
:1045D0005B46CDE9000103F0B1FECDE9020103F035
:1045E00055FF05AA02210490FCF76AFE00BFD2E73E
:1045F0002DE9F74F86B089461446484603F073FF0D
:10460000054600224FF0804303F080FF82468B4630
:10461000069803F068FF07460022294B03F076FF57
:10462000054600224FF0814303F088FE52465B4668
:10463000CDE9000103F082FECDE9020103F026FF7F
:1046400005AA02210490FCF7FFFD102C34DA0120AA
:10465000A040BDF81410084070BB0120A040BDF878
:104660001410084380B20590484603F03CFF05460D
:1046700000224FF0804303F049FF82468B460698A4
:1046800003F031FF074600220D4B03F03FFF0546C4
:1046900000224FF0814303F051FE52465B46CDE9C4
:1046A000000103F04BFECDE9020103F0EFFE05AA85
:1046B00002210490FCF704FE09B0BDE8F08F000071
:1046C000000024406C8D0008581700204816002078
:1046D00000F801532A0000202DE9F74F86B00C4660
:1046E0009146204603F0FFFE054600224FF080432E
:1046F00003F00CFFCDE90201069803F0F4FE074633
:104700000022D34B03F002FF054600224FF0814305
:1047100003F014FECDE90001DDE9022303F00EFEF3
:10472000824603F0B3FE05AA02210490FCF78CFD3B
:10473000012000FA09F0BDF81410084018B101205A
:1047400009B0BDE8F08F0020FAE738B504462546E9
:10475000E11704EB5171C91001F53F606A46012170
:10476000FCF772FD2046E11704EB5171C910A4EB70
:10477000C102012191409DF800208A430092254604
:10478000E11704EB5171C91001F53F606A46012140
:10479000FCF796FD38BD30B595B0054605EB8501B3
:1047A000090101F5806001AA5021FCF74DFD0024AC
:1047B00008E001A8005D18B101A9085DFFF7C5FF79
:1047C000601CC4B2502CF4DB05EB8501090101F536
:1047D000806000225021FCF7AFFD15B030BDF8B568
:1047E00004460D46164604EB8401090101F580617B
:1047F000102202FB0511012202FB06106A4601216C
:10480000FCF722FD9DF8000090B104EB8401090142
:1048100001F58061102202FB0511012202FB061046
:1048200000220121FCF788FD9DF80000FFF78DFFB5
:10483000F8BD01464FF44060802902DA00EBC10068
:1048400014E000F58060A1F18002D1B2402902DAC3
:1048500000EB01100AE000F58060A1F14002D1B246
:10486000402902DA00EB411000E000BF704770B54C
:1048700005460C462078411C22462846FCF720FDC0
:1048800070BD0146082901DA01207047102901DABC
:104890008020FAE7202901DAC020F6E74FF4807083
:1048A000F3E770B588B006460D466A4620214FF4FE
:1048B0003F60FCF7C9FC3046FFF7E3FF04460020E9
:1048C000287023E0684600EBD400007804F007026B
:1048D000012191400840C0B92C70684600EBD4001B
:1048E000007804F00702012191400843694601EB7A
:1048F000D4010870694601EBD4024FF43F6101EB2B
:10490000D4000121FCF7DCFC02E0641CFF2CD9D9A7
:1049100000BF08B070BD2DE9F84305460E461746A6
:104920001C4605EB8501090101F58061102202FB9F
:104930000611012202FB07106A460121FCF784FCE4
:104940002078FFF79EFF9DF80010884205D99DF85A
:104950000000FFF7FAFE002000909DF80000C0B9AB
:1049600020786946FFF79DFF9DF8000010B91120DF
:10497000BDE8F88305EB8501090101F5806110228E
:1049800002FB0611012202FB07106A460121FCF717
:1049900097FC9DF80000FFF74CFF80462146FFF78B
:1049A00066FF0120E4E72DE9F84305460E46174669
:1049B0001C4605EB8501090101F58061102202FB0F
:1049C0000611012202FB07106A460121FCF73CFC9C
:1049D0009DF8000048B19DF80000FFF72AFF8046CF
:1049E00022462021FCF730FC01E000202070BDE8C9
:1049F000F88370B504460D4616466019B0F5004FB1
:104A000002D8B4F5405F01D2112070BD324629466C
:104A10002046FCF755FC08B91020F6E70120F4E722
:104A200070B504460D4616466019B0F5004F02D821
:104A3000B4F5405F01D2112070BD324629462046B0
:104A4000FCF702FC08B91020F6E70120F4E70000AB
:104A50000000244010B58C2200217548FCF738F97D
:104A600000207349886010BD2DE9F0410446A0780C
:104A70000A2802DA0F20BDE8F081D4F80350E0796B
:104A80006B490880D4F80900486008460088B5FBE7
:104A9000F0F0488008460088B5FBF0F100FB1150AB
:104AA00020B163484088401C614948808022002131
:104AB0005F480C30FCF70CF95D484088B0F5806F1A
:104AC00001D90E20D7E7207A5A2830D159485849C1
:104AD000886059480088402808D0802809D0B0F55F
:104AE000807F09D0B0F5007F0CD108E0534E3746E7
:104AF0000BE0534E534F08E0534E544F05E0544ED5
:104B0000544F02E00026002700BF00BF484840681D
:104B1000B0420BD3464840682844B84206D24449C4
:104B20004868294600F09CFB0120A4E712E0207AA7
:104B3000A5280FD148483E49886008464068B0F52E
:104B4000405F07D3084640682844B0F5004F01D2C3
:104B5000012090E7FFF77EFF0E208CE770B504463A
:104B6000B4F80350A078801EA070A078304909885E
:104B7000884202DC2E48806808B90D2070BD2C48A0
:104B80004088A84201DA0E20F8E7691128480C3065
:104B900050F8210005F01F02012191400840F0B9B2
:104BA000234840682249098805FB0106A17820486E
:104BB000621D836830469847012801D01220DDE746
:104BC00069111B480C3050F8210005F01F0201212B
:104BD000914008436A1116490C3141F82200012026
:104BE000CCE770B50446134600220020087014E09C
:104BF00055090F480C3050F8250002F01F0601251A
:104C0000B540284040B90D785A530878801C087088
:104C10000878642800DD04E0521C05484088904272
:104C2000E6D800BF087808B9012070BD0020FCE775
:104C3000681600209F5200084C00F81F0000010871
:104C40000080010800000208002803080000040892
:104C50000048060800000808F349000870470000F3
:104C60004F48006800F0010028B14E484C49083117
:104C700008604D480860704700B54948006800F07A
:104C8000020038B1FFF7ECFF484845490C31086095
:104C90004748086000BD4248006840F002004049B3
:104CA000086070473E481430006800F0020028B1E8
:104CB00002203B4914310860012070470020FCE7C6
:104CC000014600E0491E31B135481430006800F05B
:104CD00001000028F6D109B901207047304814308E
:104CE000006800F4F85030B14FF4F8502C4A1432F8
:104CF00010600120F1E70020EFE770B504464FF4A3
:104D00000050FFF7DDFF0546E5B92548006840F48F
:104D10000070234908600846006840F008000860F9
:104D2000002020604FF40050FFF7CAFF05461C48E2
:104D3000006820F008001A4908600846006820F45E
:104D40000070086015B9FFF7ADFF70BD0020FCE7EB
:104D500070B505460C4616464FF44050FFF7B0FFBD
:104D600070B90AE030682860361D2D1D241F4FF4ED
:104D70004050FFF7A5FF00B101E0002CF2DC00BFBE
:104D80000CB9012070BD0020FCE70A49096D0160E3
:104D90000849496D41600749496E816070470000CC
:104DA000043C0240EFCDAB8905040302BFAE9D8CED
:104DB000161514130000F81FF0B504460B46494DB4
:104DC00005EB8420484D2D680126A6403543464E0C
:104DD0003560002135E003F0010585B305684F001B
:104DE0000326BE40B5430560868801258D40AE434D
:104DF000868085684F000326BE40B5438560C56840
:104E00004F000326BE40B543C56095094E00B5402E
:104E10000668354305608688C2F300158D402E4331
:104E2000868085684F00C2F38106BE4035438560A9
:104E300002F003054E00B540C6683543C5605B10FF
:104E4000491C002BC7DCF0BDF0B503461446254DC8
:104E500005EB8322002022E001F00105EDB1C60838
:104E600002F1200555F826504607F70E0F26BE40E2
:104E7000B543C70802F1200646F82750C60802F1DC
:104E8000200555F826504607F60E04FA06F6354377
:104E9000C70802F1200646F827504910401C002997
:104EA000DADCF0BD02460B460E4800EB8221888A10
:104EB00018438882888A70470A4B03EB8022938AC2
:104EC0008B4393827047074B03EB8022938A4B40BE
:104ED000938270470246034800EB8223188A0840F9
:104EE00070470000000002401C380240002107E02B
:104EF000052101E04A1E91B20029FBDC421E90B25E
:104F00000028F5DC704710B54D22C0210120FFF7C5
:104F100053FFC0210120FFF7C5FF10BD10B5802150
:104F20000120FFF7BFFF40210120FFF7BBFF022058
:104F3000FFF7DCFF80210120FFF7BEFF0220FFF713
:104F4000D5FF40210120FFF7B7FF10BD10B580212C
:104F50000120FFF7B1FF0220FFF7C8FF4021012029
:104F6000FFF7A0FF0220FFF7C1FF80210120FFF71C
:104F700099FF0220FFF7BAFF10BD10B5044640218B
:104F80000120FFF799FF0220FFF7B0FF24B1802135
:104F90000120FFF787FF03E080210120FFF78CFF4E
:104FA0000220FFF7A3FF40210120FFF77BFF022033
:104FB000FFF79CFF40210120FFF77EFF10BD10B5D9
:104FC0000024012280211046FFF7F6FE80210120F7
:104FD000FFF768FF0220FFF789FF40210120FFF75C
:104FE00061FF0220FFF782FF10E0601C80B20446E0
:104FF000B0F5FA7F0ADD4D2280210120FFF7DCFEAB
:1050000080210120FFF74EFF002010BD80210120EC
:10501000FFF760FF0028E8D140210120FFF74CFF97
:105020000220FFF763FF4D2280210120FFF7C4FE1D
:1050300080210120FFF736FF0220FFF757FF0120F4
:10504000E3E770B5044640210120FFF735FF022059
:10505000FFF74CFF002520E004F0800020B1802104
:105060000120FFF71FFF03E080210120FFF724FF4D
:105070006006040E0220FFF739FF40210120FFF7F0
:1050800011FF0220FFF732FF40210120FFF714FF3C
:105090000220FFF72BFF681CC5B2082DDCDBFFF7F1
:1050A0008EFF70BD70B50646002401228021104697
:1050B000FFF782FE80210120FFF7F4FE00251BE0B0
:1050C00040210120FFF7F8FE0220FFF70FFF4021EB
:1050D0000120FFF7E7FE0220FFF708FF6006040E3D
:1050E00080210120FFF7F6FE08B1601CC4B2022047
:1050F000FFF7FCFE681CC5B2082DE1DB4021012052
:10510000FFF7DAFE0220FFF7F1FE4D228021012099
:10511000FFF752FE80210120FFF7C4FE0220FFF7B7
:10512000E5FE3046FFF729FF204670BD70B5054605
:105130000C4600BFFFF7F2FE2846FFF782FF10B9CA
:10514000601E041EF6D1FFF701FF0CB1012070BDF7
:105150000020FCE72DE9F04107460E4615461C46A7
:10516000FFF7DCFE3846FFF76CFFF0B13012FFF7B7
:1051700068FFD0B1F0B2FFF764FFB0B1FFF7CEFE29
:1051800047F00100FFF75DFF78B106E00020FFF770
:1051900089FF05F8010B601EC4B2012CF6DC601E0D
:1051A000C4B20120FFF77EFF2870FFF7CFFE14B9CD
:1051B0000120BDE8F0810020FBE72DE9F041074622
:1051C0000D4616461C46FFF7A9FE3846FFF739FF85
:1051D00098B12812FFF735FF78B1E8B2FFF731FF39
:1051E00058B107E016F8010BFFF72BFF00B903E0F9
:1051F000601EC4B2002CF5DC00BFFFF7A7FE14B997
:105200000120BDE8F0810020FBE72DE9F0410746D1
:105210000D4616461C46FFF781FE3846FFF711FF84
:1052200090B12812FFF70DFF70B1E8B2FFF709FF48
:1052300050B106E03046FFF704FF00B903E0601EFE
:10524000C4B2002CF6DC00BFFFF780FE14B90120C9
:10525000BDE8F0810020FBE7704770477047000011
:1052600070B505460C464FF480707B490860FFF727
:1052700003FD03E0A4F5807405F580752846FFF76B
:105280003CFD012802D1B4F5807FF3D8FFF703FD80
:10529000B4F5807F01D8012070BD0020FCE72DE926
:1052A000F04106460C46174604F0030010B124F006
:1052B0000304241DFFF7E0FC3A4621463046FFF781
:1052C00047FD0546FFF7E7FC2846BDE8F0810346A9
:1052D00004E018681060121D1B1D091F0029F8D179
:1052E0000120704710B5034603E018781070521C77
:1052F0005B1C081EA1F10101F7D1012010BD2DE9B1
:10530000F04FC1B080460D46924605F0030010B143
:1053100025F003052D1DFFF7AFFCB8F1006F02D398
:105320004E48804503D3002041B0BDE8F08FA8F17E
:10533000006B4FEA1B260BF0FF09C9F58074A542EC
:1053400000D8ACB249E04FF0006101EB06206A469C
:10535000C914FFF7BCFF002707E009EB07001DF8A1
:10536000000000B103E0781C87B2A742F5DB00BF64
:10537000A7421CDA4FF0006101EB0620FFF7BDFCED
:105380004090002707E01AF8070007EB09010DF825
:105390000100781C87B2A742F5DB4FF0006101EBFA
:1053A00006206A46C914FFF7D3FC409005E0524638
:1053B00021464046FFF7CCFC4090A54200D10DE0CD
:1053C000761C4FF00009A244A0442D1BB5F5807F48
:1053D00002D94FF4807400E0ACB2B4E700BFFFF72D
:1053E0005AFC4098A0E71CB51D4903C9CDE900014E
:1053F0001C48006840F480501A4908601A488068C8
:1054000040F00100184988600846007940F0FF002C
:10541000087116480068164988421AD013490A399B
:1054200008681149896841F001010F4A91601149EA
:10543000096D11600F49496D11600E49496E116087
:1054400011460860096801916A4608210748FFF77C
:1054500056FF1CBD00207047183C024000000608A3
:10546000188D00081C380240003002408C030008F0
:10547000A542BD5A0000F81F08B1012100E000213B
:10548000FE4A11707047FE487047FE48007870472A
:1054900070B505460C464FF480510120FFF70CFD16
:1054A000284600F081FC204600F07EFC06464FF4C2
:1054B00080510120FFF7F6FC304670BD10B5F24870
:1054C000006820F48060F0490860442240210020F8
:1054D000FFF772FC44224FF480510120FFF76CFC6F
:1054E00000224FF480611046FFF766FC0022022183
:1054F0000120FFF761FC4FF480610020FFF7D2FC30
:1055000002210120FFF7CEFC44224FF4006100206D
:10551000FFF752FC4FF400610020FFF7C3FC00F0DE
:105520006EFC042000F0B2FC10BD0120D7490870C9
:10553000704710B505218720FFF7AAFF02218E20B2
:10554000FFF7A6FF02218820FFF7A2FF0021882095
:10555000FFF79EFF13218520FFF79AFF8021862009
:10556000FFF796FF00210320FFF792FF00210420A0
:10557000FFF78EFFC448006840F48060C2490860AD
:1055800010BD10B5C048006820F48060BE490860B6
:1055900000218E20FFF77CFF01218720FFF778FF95
:1055A00000218520FFF774FF00218620FFF770FFA0
:1055B00000210320FFF76CFF00210420FFF768FFA4
:1055C0000220FBF733FE10BD10B50446B04A214659
:1055D0000220FBF7EDFE10BD10B500212620FFF7DD
:1055E00057FF0446AB480078A04203DAA948007888
:1055F000201A02E0A7480078001B08284EDA641041
:10560000A448007804EB6000A24908700846C078FE
:10561000401CC0B2C870142860DD084600780A2813
:1056200003DB08460078DC2803DD0420FFF7CCFF0D
:1056300030E09848007814309249087008460178A4
:10564000A720FFF725FF94480068F8B100F031FE6D
:1056500091490968884205D200F02BFE8E490968FD
:10566000081A04E000F025FE8B490968401A8B49AE
:10567000884206D20420FFF7A7FF00208649086071
:1056800008E000F016FE8449086003E000F011FE17
:105690008149086000208249086010BD7D4840783B
:1056A000A04203DA7B484078201A02E0794840782B
:1056B000001B32280DDA77488078401CC0B275494B
:1056C000887004280ADD084604700020C8708870BD
:1056D00004E07048447000206E498870704800688B
:1056E000401C6F490860B0F5167F06D9002008609D
:1056F0000420FFF769FF0020CFE70120CDE710B5B8
:10570000FFF7DCFE4FF480510120FFF7CBFB402177
:105710000020FFF7C7FB0220FBF788FD4021002097
:10572000FFF7CAFB3220FBF781FD00210320FFF7C2
:10573000AFFE00210420FFF7ABFE80218720FFF79A
:10574000A7FE0220FBF772FD00218720FFF7A0FED5
:1057500000218520FFF79CFE00218620FFF798FEA0
:1057600000210320FFF794FE00210420FFF790FEA4
:1057700079218920FFF78CFE06218A20FFF788FE19
:10578000EA218B20FFF784FEEA218C20FFF780FEC0
:10579000FC218D20FFF77CFE00218E20FFF778FE94
:1057A000404801789C20FFF773FE3E4841789D20D9
:1057B000FFF76EFE3B4881789E20FFF769FE39486F
:1057C000C1789F20FFF764FE36480179A020FFF7DB
:1057D0005FFE34484179A120FFF75AFE31488179B4
:1057E000A220FFF755FE2F48C179A320FFF750FEF6
:1057F0002C48017AA420FFF74BFE2A48417AA520C5
:10580000FFF746FE2748817AAA20FFF741FEAC2128
:10581000B020FFF73DFE0021B220FFF739FE022144
:10582000B320FFF735FE1021B420FFF731FE282109
:10583000B520FFF72DFE2D21B620FFF729FED4213C
:10584000B720FFF725FE0021B820FFF721FE002139
:10585000B920FFF71DFE4221BA20FFF719FE4521AE
:10586000BB20FFF715FE5321BC20FFF711FE54218A
:10587000BD20FFF70DFE4221BF2015E02F000020C4
:10588000F41600202E000020000401402D0000200E
:10589000FF5600083800002040000020A0680600E5
:1058A0003C000020208D0008FFF7F2FD4521C020BC
:1058B000FFF7EEFD5321C120FFF7EAFD5421C2207E
:1058C000FFF7E6FDFF21C320FFF7E2FDFF21C42023
:1058D000FFF7DEFDFF21C520FFF7DAFDFF21C6201F
:1058E000FFF7D6FDF948C17AD820FFF7D1FDF74878
:1058F000017BE920FFF7CCFDF448417BEE20FFF768
:10590000C7FDF248817BEF20FFF7C2FDEF48C17B66
:10591000F020FFF7BDFDED48017CF120FFF7B8FD59
:10592000EA48417CF220FFF7B3FD5221F520FFF752
:10593000AFFDFEF7ABFB493800EB80004006040EDC
:105940002146F920FFF7A4FDE048C17CF620FFF7CF
:105950009FFDDE48017DF720FFF79AFD0021F3202F
:10596000FFF796FD0021F420FFF792FD0A21FA20AF
:10597000FFF78EFD0721ED20FFF78AFDD44801785F
:10598000A720FFF785FDD34B4FF4C87200210320F9
:10599000FEF74EF81E21FC20FFF77AFD0C21FD20BA
:1059A000FFF776FD3221FE20FFF772FD01220A216A
:1059B000002000F0BFFA022328220021184600F040
:1059C00097FAC548006820F48060C3490860FFF773
:1059D000D8FDFFF7AEFDFFF7A8FD10BD10B5032100
:1059E0008820FFF755FD08218820FFF751FD012190
:1059F0008E20FFF74DFD10BD2DE9F04106460C4607
:105A000090460025FFF7BDFDFFF7E8FF2146BE20C9
:105A1000FFF73EFD1DE04FF4805503E01420FBF737
:105A2000F9FB6D1E00210320FFF732FD00F020007E
:105A300008B9002DF2D1002707E016F8011BFF205E
:105A4000FFF726FD601EC4B27F1C322F01D2002C4E
:105A5000F3D1002CDFD109218720FFF719FD4FF486
:105A6000C870FBF7D7FB4FF4805506E0681E051E93
:105A700003D10420FFF7A8FD08E000210320FFF771
:105A800007FD00F0040008B9002DEFD100BFFFF7BB
:105A900078FDFFF74EFDBDE8F0812DE9F04F91B0A4
:105AA00081464FF0000A4FF0010BBCE05046411C0C
:105AB00001F0FF0A052806DD0520FFF785FD00201F
:105AC00086490870B7E000210320FFF7E1FC044697
:105AD00000210420FFF7DCFC064606F0800028B118
:105AE00000212620FFF7D4FC7D49087004F0010056
:105AF00018B10020794908709DE004F01000E0B171
:105B000000250AE000217F20FFF7C2FC0746394646
:105B10004846FBF736FD681CC5B2322DF2DB6F48F4
:105B20000078CD2803DD00206C49087083E06B48C5
:105B3000007832306949087000BF04F00200002884
:105B400071D068480078C8B900214B20FFF7A0FC4D
:105B500004460EE000217F20FFF79AFC0546294607
:105B60004846FBF70EFD83465C480078401C5B49C5
:105B700008705A480078A042ECDB49E00DF10A05B4
:105B800005F1120700214B20FFF782FC0446322862
:105B90003DDA0020514908700CE000217F20FFF71A
:105BA00077FC01A94D4A127888544C480078401C73
:105BB0004A49087049480078A042EEDBE87CB228E8
:105BC0000FD1F878BB280CD1FDF729F9E968884294
:105BD00007D13879642804DA414801783879424A93
:105BE0001154FDF71CF9E96888420AD0FDF71AF94B
:105BF00080463D4810F80800401C3B4901F8080069
:105C000000BF224601A94846FBF748FC834600BF77
:105C1000002032490870BBF1000F04D1002203219B
:105C20000220FBF7C5FB4FF480610020FFF752F91B
:105C300000283FF43BAF00BF2848007808B9FFF7C1
:105C400078FC11B0BDE8F08F10B52848FFF725FFAC
:105C50004FF4806020491431086010BD10B504462F
:105C60002348008870B9082C00D3012400F021FBE0
:105C7000204931F81410B0FBF1F201FB1200801C36
:105C80001B49088002210120FFF724F9C0BB1848F6
:105C90000088401E80B21649088090BB16480088D4
:105CA000401C80B214490880642808DD0020088068
:105CB000084B4FF4C87200210320FDF7B9FE002005
:105CC0000B4908800D490880012010BD208D000877
:105CD0002E000020D95500080004014030000020AB
:105CE0002C0000202F000020F4160020740100205A
:105CF00036000020368D00083400002032000020DD
:105D000000E016E000201B4908801B4908801B4862
:105D10000088401C80B219490880B0F57A7F08DD00
:105D200000200880164B4FF4C87200210320FDF7B5
:105D30007FFE002010BD70B505460E461446114882
:105D40000078012813D12046FFF788FF78B10022A0
:105D500031462846FFF750FE00200A4908700A4BDA
:105D6000C82200210846FDF763FE012070BD002017
:105D7000FCE7000036000020340000203200002044
:105D8000D95500082D0000202B55000810B585229C
:105D90004FF460410120FFF70FF805224FF46041F6
:105DA0000120FFF751F810BD0146002208E010461F
:105DB000531C9AB24FF6FE73984201DB00207047E5
:105DC0003D48008800F002000028F0D03A48001D4D
:105DD0000180002208E01046531C9AB24FF6FE7371
:105DE000984201DB0020EAE73348008800F0010018
:105DF0000028F0D03048001D0088C0B2DFE710B5A1
:105E00002E48006840F480402C490860084600682D
:105E100020F48040086029480C30006840F480403D
:105E200026490C3108602548001D006840F002003A
:105E30002249091D0860FFF7A9FF1F48083800889C
:105E40001D49083908800846008840F40070088021
:105E50000846008840F4807008800846008840F0BA
:105E6000040008800846008808800846008840F042
:105E7000080008800846008808800846008840F02E
:105E800040000880FF20FFF78FFF10BD00F00700E3
:105E900009490839098821F03801074A083A118070
:105EA0001146098841EAC00111801146098841F074
:105EB0004001118070470000083800401838024047
:105EC000A44A0A400243A44B1A60704701460723C4
:105ED00023EA01021202A04B1B1D18684FF6FF03B4
:105EE00018409E4B184310439B4B1B1D1860704776
:105EF0002DE9F0410746884614461D4600262846EF
:105F0000FFF7E4FFC5F1040007FA00F60F2028416F
:105F100000EA0800064336019148065504F01F01C7
:105F2000012088406111890001F1E021C1F80001E0
:105F3000BDE8F08170B504460B46CE1701EB9676AE
:105F4000C6F38700CE1701EB9676B610A1EB860656
:105F5000B606350E834B1B6843F00103814E336058
:105F6000814B53F820300F26AE40B3437E4E46F8A7
:105F70002030334653F8203004FA05F61E437A4B9E
:105F800043F82060794B1B6801268E403343774EDF
:105F9000336002F0010343B1744B0C331B680126DC
:105FA0008E403343714E0C36336002F0020343B12E
:105FB0006E4B08331E6801238B401E436B4B083326
:105FC0001E6070BD0020674908390860091F08601D
:105FD00014206449091F08600020091D0860091D7C
:105FE000086060482038006840F001005D492039B1
:105FF00008605C48183800685D49084059491839FC
:1060000008605848203800685A49084055492039E6
:1060100008600846006820F480200860514818385D
:10602000006820F4FE004F49183908600020091D5F
:106030000860704710B548480830006840F0040018
:106040004549083108604748001D006840F080500D
:106050004449091D08604848406840F4807046493A
:1060600048600846006840F0040008600846006880
:1060700040F002000860FAF7AFFC10BD3748001D81
:106080003549091D0860704701464906354A1268BE
:1060900042F00102334B1A60704700B502460023FC
:1060A000FFF790FF2F482038006840F480302D49DA
:1060B0002039086000BF2B4820380068400C0028B9
:1060C000F9D04FF48060274918390860901EC2B299
:1060D0000846006840EA824008600846006840F4CC
:1060E000803008602548006840F03200234908608D
:1060F0001C482038006840F080701A492039086038
:1061000000BF184820380068400E0028F9D0154814
:106110001838006840F0020012491839086006E09B
:10612000104818380068C0F3870303F00303022BFC
:10613000F6D100BD70B504462546206810490840D8
:10614000B0F1005F04D12868FAF749FC686880471D
:1061500070BD000080FFFF1F08ED00E00000FA05A1
:1061600000E400E020380240080001400004014043
:106170000000FFF8FFFFF6FE00700040003C024008
:106180000000FE2F10B500F0F7FC202000F07CF896
:10619000FFF729F9FEF7B7FEFFF7B1FA10BD014688
:1061A000354800884AF6552290422CD13248801C4E
:1061B0000068401C38B33048801C006818B32E4873
:1061C000801C0068B0F1443F1DD02B48801C006843
:1061D000B0F1883F17D02848801C0068274A9042B9
:1061E00011D02548801C00689206D2F88623D2433D
:1061F000904208D12048801C006888420AD01E487E
:10620000801C006870471E48406E884202D01C48BF
:10621000406EF7E70020F5E7174800884AF6552159
:10622000884228D11448801C0068401C18B31248CA
:10623000801C0068F8B11048801C0068B0F1443F31
:1062400019D00D48801C0068B0F1883F13D00A486F
:10625000801C0068094988420DD00748801C0068EE
:106260008906D1F88613C943884204D10248801CAC
:106270000068044948607047800300084245535451
:106280000000F81F481600204FF0E021096921F0B6
:1062900004014FF0E02211614FF47A714143C908C3
:1062A0005161002191610321116100210F4A1160A8
:1062B00070470E48006870470C4800680C49086039
:1062C00070470B480068704710B5084800680949D6
:1062D000B0FBF1F201FB12000449086008460068B7
